{
  "_format": "hh-sol-artifact-1",
  "contractName": "Metropolis",
  "sourceName": "contracts/metropolis.sol",
  "abi": [
    {
      "inputs": [],
      "stateMutability": "nonpayable",
      "type": "constructor"
    },
    {
      "anonymous": false,
      "inputs": [
        {
          "indexed": true,
          "internalType": "address",
          "name": "owner",
          "type": "address"
        },
        {
          "indexed": true,
          "internalType": "address",
          "name": "approved",
          "type": "address"
        },
        {
          "indexed": true,
          "internalType": "uint256",
          "name": "tokenId",
          "type": "uint256"
        }
      ],
      "name": "Approval",
      "type": "event"
    },
    {
      "anonymous": false,
      "inputs": [
        {
          "indexed": true,
          "internalType": "address",
          "name": "owner",
          "type": "address"
        },
        {
          "indexed": true,
          "internalType": "address",
          "name": "operator",
          "type": "address"
        },
        {
          "indexed": false,
          "internalType": "bool",
          "name": "approved",
          "type": "bool"
        }
      ],
      "name": "ApprovalForAll",
      "type": "event"
    },
    {
      "anonymous": false,
      "inputs": [
        {
          "indexed": true,
          "internalType": "address",
          "name": "from",
          "type": "address"
        },
        {
          "indexed": true,
          "internalType": "address",
          "name": "to",
          "type": "address"
        },
        {
          "indexed": true,
          "internalType": "uint256",
          "name": "tokenId",
          "type": "uint256"
        }
      ],
      "name": "Transfer",
      "type": "event"
    },
    {
      "anonymous": false,
      "inputs": [
        {
          "indexed": true,
          "internalType": "uint256",
          "name": "tokenId",
          "type": "uint256"
        },
        {
          "indexed": false,
          "internalType": "address payable",
          "name": "seller",
          "type": "address"
        },
        {
          "indexed": false,
          "internalType": "address payable",
          "name": "owner",
          "type": "address"
        },
        {
          "indexed": false,
          "internalType": "address payable",
          "name": "artist",
          "type": "address"
        },
        {
          "indexed": false,
          "internalType": "uint256",
          "name": "price",
          "type": "uint256"
        },
        {
          "indexed": false,
          "internalType": "uint256",
          "name": "royaltyFeeInBips",
          "type": "uint256"
        },
        {
          "indexed": false,
          "internalType": "bool",
          "name": "sold",
          "type": "bool"
        }
      ],
      "name": "nftCreated",
      "type": "event"
    },
    {
      "inputs": [
        {
          "internalType": "address",
          "name": "to",
          "type": "address"
        },
        {
          "internalType": "uint256",
          "name": "tokenId",
          "type": "uint256"
        }
      ],
      "name": "approve",
      "outputs": [],
      "stateMutability": "nonpayable",
      "type": "function"
    },
    {
      "inputs": [
        {
          "internalType": "address",
          "name": "owner",
          "type": "address"
        }
      ],
      "name": "balanceOf",
      "outputs": [
        {
          "internalType": "uint256",
          "name": "",
          "type": "uint256"
        }
      ],
      "stateMutability": "view",
      "type": "function"
    },
    {
      "inputs": [
        {
          "internalType": "uint256",
          "name": "tokenId",
          "type": "uint256"
        }
      ],
      "name": "buyNft",
      "outputs": [],
      "stateMutability": "payable",
      "type": "function"
    },
    {
      "inputs": [
        {
          "internalType": "string",
          "name": "tokenURI",
          "type": "string"
        },
        {
          "internalType": "uint256",
          "name": "price",
          "type": "uint256"
        },
        {
          "internalType": "uint256",
          "name": "royaltyFeeInBips",
          "type": "uint256"
        }
      ],
      "name": "createToken",
      "outputs": [
        {
          "internalType": "uint256",
          "name": "",
          "type": "uint256"
        }
      ],
      "stateMutability": "payable",
      "type": "function"
    },
    {
      "inputs": [],
      "name": "fetchMarket",
      "outputs": [
        {
          "components": [
            {
              "internalType": "uint256",
              "name": "tokenId",
              "type": "uint256"
            },
            {
              "internalType": "address payable",
              "name": "seller",
              "type": "address"
            },
            {
              "internalType": "address payable",
              "name": "owner",
              "type": "address"
            },
            {
              "internalType": "address payable",
              "name": "artist",
              "type": "address"
            },
            {
              "internalType": "uint256",
              "name": "price",
              "type": "uint256"
            },
            {
              "internalType": "uint256",
              "name": "royaltyFeeInBips",
              "type": "uint256"
            },
            {
              "internalType": "bool",
              "name": "sold",
              "type": "bool"
            }
          ],
          "internalType": "struct Metropolis.NFT[]",
          "name": "",
          "type": "tuple[]"
        }
      ],
      "stateMutability": "view",
      "type": "function"
    },
    {
      "inputs": [],
      "name": "fetchMyListings",
      "outputs": [
        {
          "components": [
            {
              "internalType": "uint256",
              "name": "tokenId",
              "type": "uint256"
            },
            {
              "internalType": "address payable",
              "name": "seller",
              "type": "address"
            },
            {
              "internalType": "address payable",
              "name": "owner",
              "type": "address"
            },
            {
              "internalType": "address payable",
              "name": "artist",
              "type": "address"
            },
            {
              "internalType": "uint256",
              "name": "price",
              "type": "uint256"
            },
            {
              "internalType": "uint256",
              "name": "royaltyFeeInBips",
              "type": "uint256"
            },
            {
              "internalType": "bool",
              "name": "sold",
              "type": "bool"
            }
          ],
          "internalType": "struct Metropolis.NFT[]",
          "name": "",
          "type": "tuple[]"
        }
      ],
      "stateMutability": "view",
      "type": "function"
    },
    {
      "inputs": [],
      "name": "fetchMyNFTs",
      "outputs": [
        {
          "components": [
            {
              "internalType": "uint256",
              "name": "tokenId",
              "type": "uint256"
            },
            {
              "internalType": "address payable",
              "name": "seller",
              "type": "address"
            },
            {
              "internalType": "address payable",
              "name": "owner",
              "type": "address"
            },
            {
              "internalType": "address payable",
              "name": "artist",
              "type": "address"
            },
            {
              "internalType": "uint256",
              "name": "price",
              "type": "uint256"
            },
            {
              "internalType": "uint256",
              "name": "royaltyFeeInBips",
              "type": "uint256"
            },
            {
              "internalType": "bool",
              "name": "sold",
              "type": "bool"
            }
          ],
          "internalType": "struct Metropolis.NFT[]",
          "name": "",
          "type": "tuple[]"
        }
      ],
      "stateMutability": "view",
      "type": "function"
    },
    {
      "inputs": [
        {
          "internalType": "uint256",
          "name": "tokenId",
          "type": "uint256"
        }
      ],
      "name": "getApproved",
      "outputs": [
        {
          "internalType": "address",
          "name": "",
          "type": "address"
        }
      ],
      "stateMutability": "view",
      "type": "function"
    },
    {
      "inputs": [
        {
          "internalType": "uint256",
          "name": "_salePrice",
          "type": "uint256"
        }
      ],
      "name": "getCommissionFee",
      "outputs": [
        {
          "internalType": "uint256",
          "name": "",
          "type": "uint256"
        }
      ],
      "stateMutability": "pure",
      "type": "function"
    },
    {
      "inputs": [
        {
          "internalType": "uint256",
          "name": "_salePrice",
          "type": "uint256"
        },
        {
          "internalType": "uint256",
          "name": "royaltyFeeInBips",
          "type": "uint256"
        }
      ],
      "name": "getRoyaltyFee",
      "outputs": [
        {
          "internalType": "uint256",
          "name": "",
          "type": "uint256"
        }
      ],
      "stateMutability": "pure",
      "type": "function"
    },
    {
      "inputs": [
        {
          "internalType": "address",
          "name": "owner",
          "type": "address"
        },
        {
          "internalType": "address",
          "name": "operator",
          "type": "address"
        }
      ],
      "name": "isApprovedForAll",
      "outputs": [
        {
          "internalType": "bool",
          "name": "",
          "type": "bool"
        }
      ],
      "stateMutability": "view",
      "type": "function"
    },
    {
      "inputs": [],
      "name": "name",
      "outputs": [
        {
          "internalType": "string",
          "name": "",
          "type": "string"
        }
      ],
      "stateMutability": "view",
      "type": "function"
    },
    {
      "inputs": [
        {
          "internalType": "uint256",
          "name": "tokenId",
          "type": "uint256"
        }
      ],
      "name": "ownerOf",
      "outputs": [
        {
          "internalType": "address",
          "name": "",
          "type": "address"
        }
      ],
      "stateMutability": "view",
      "type": "function"
    },
    {
      "inputs": [
        {
          "internalType": "uint256",
          "name": "tokenId",
          "type": "uint256"
        },
        {
          "internalType": "uint256",
          "name": "price",
          "type": "uint256"
        }
      ],
      "name": "resellNFTs",
      "outputs": [],
      "stateMutability": "payable",
      "type": "function"
    },
    {
      "inputs": [
        {
          "internalType": "address",
          "name": "from",
          "type": "address"
        },
        {
          "internalType": "address",
          "name": "to",
          "type": "address"
        },
        {
          "internalType": "uint256",
          "name": "tokenId",
          "type": "uint256"
        }
      ],
      "name": "safeTransferFrom",
      "outputs": [],
      "stateMutability": "nonpayable",
      "type": "function"
    },
    {
      "inputs": [
        {
          "internalType": "address",
          "name": "from",
          "type": "address"
        },
        {
          "internalType": "address",
          "name": "to",
          "type": "address"
        },
        {
          "internalType": "uint256",
          "name": "tokenId",
          "type": "uint256"
        },
        {
          "internalType": "bytes",
          "name": "data",
          "type": "bytes"
        }
      ],
      "name": "safeTransferFrom",
      "outputs": [],
      "stateMutability": "nonpayable",
      "type": "function"
    },
    {
      "inputs": [
        {
          "internalType": "address",
          "name": "operator",
          "type": "address"
        },
        {
          "internalType": "bool",
          "name": "approved",
          "type": "bool"
        }
      ],
      "name": "setApprovalForAll",
      "outputs": [],
      "stateMutability": "nonpayable",
      "type": "function"
    },
    {
      "inputs": [
        {
          "internalType": "bytes4",
          "name": "interfaceId",
          "type": "bytes4"
        }
      ],
      "name": "supportsInterface",
      "outputs": [
        {
          "internalType": "bool",
          "name": "",
          "type": "bool"
        }
      ],
      "stateMutability": "view",
      "type": "function"
    },
    {
      "inputs": [],
      "name": "symbol",
      "outputs": [
        {
          "internalType": "string",
          "name": "",
          "type": "string"
        }
      ],
      "stateMutability": "view",
      "type": "function"
    },
    {
      "inputs": [
        {
          "internalType": "uint256",
          "name": "tokenId",
          "type": "uint256"
        }
      ],
      "name": "tokenURI",
      "outputs": [
        {
          "internalType": "string",
          "name": "",
          "type": "string"
        }
      ],
      "stateMutability": "view",
      "type": "function"
    },
    {
      "inputs": [
        {
          "internalType": "address",
          "name": "from",
          "type": "address"
        },
        {
          "internalType": "address",
          "name": "to",
          "type": "address"
        },
        {
          "internalType": "uint256",
          "name": "tokenId",
          "type": "uint256"
        }
      ],
      "name": "transferFrom",
      "outputs": [],
      "stateMutability": "nonpayable",
      "type": "function"
    }
  ],
  "bytecode": "0x60806040523480156200001157600080fd5b506040518060400160405280600e81526020017f4d6574726f706f6c6973204e46540000000000000000000000000000000000008152506040518060400160405280600581526020017f4d4554524f00000000000000000000000000000000000000000000000000000081525081600090816200008f919062000365565b508060019081620000a1919062000365565b50505033600960006101000a81548173ffffffffffffffffffffffffffffffffffffffff021916908373ffffffffffffffffffffffffffffffffffffffff1602179055506200044c565b600081519050919050565b7f4e487b7100000000000000000000000000000000000000000000000000000000600052604160045260246000fd5b7f4e487b7100000000000000000000000000000000000000000000000000000000600052602260045260246000fd5b600060028204905060018216806200016d57607f821691505b60208210810362000183576200018262000125565b5b50919050565b60008190508160005260206000209050919050565b60006020601f8301049050919050565b600082821b905092915050565b600060088302620001ed7fffffffffffffffffffffffffffffffffffffffffffffffffffffffffffffffff82620001ae565b620001f98683620001ae565b95508019841693508086168417925050509392505050565b6000819050919050565b6000819050919050565b600062000246620002406200023a8462000211565b6200021b565b62000211565b9050919050565b6000819050919050565b620002628362000225565b6200027a62000271826200024d565b848454620001bb565b825550505050565b600090565b6200029162000282565b6200029e81848462000257565b505050565b5b81811015620002c657620002ba60008262000287565b600181019050620002a4565b5050565b601f8211156200031557620002df8162000189565b620002ea846200019e565b81016020851015620002fa578190505b6200031262000309856200019e565b830182620002a3565b50505b505050565b600082821c905092915050565b60006200033a600019846008026200031a565b1980831691505092915050565b600062000355838362000327565b9150826002028217905092915050565b6200037082620000eb565b67ffffffffffffffff8111156200038c576200038b620000f6565b5b62000398825462000154565b620003a5828285620002ca565b600060209050601f831160018114620003dd5760008415620003c8578287015190505b620003d4858262000347565b86555062000444565b601f198416620003ed8662000189565b60005b828110156200041757848901518255600182019150602085019450602081019050620003f0565b8683101562000437578489015162000433601f89168262000327565b8355505b6001600288020188555050505b505050505050565b61475d806200045c6000396000f3fe60806040526004361061012a5760003560e01c80636352211e116100ab578063a22cb4651161006f578063a22cb465146103ea578063b6342bb414610413578063b88d4fde14610450578063bec2a7c514610479578063c87b56dd146104a9578063e985e9c5146104e65761012a565b80636352211e146102ec5780636b0f8b041461032957806370a082311461034557806377e587031461038257806395d89b41146103bf5761012a565b8063202e3740116100f2578063202e37401461022857806323b872dd14610253578063243adbdd1461027c5780633143ec871461029857806342842e0e146102c35761012a565b806301ffc9a71461012f57806306fdde031461016c578063081812fc14610197578063095ea7b3146101d457806315a70d8d146101fd575b600080fd5b34801561013b57600080fd5b5061015660048036038101906101519190613002565b610523565b604051610163919061304a565b60405180910390f35b34801561017857600080fd5b50610181610605565b60405161018e91906130f5565b60405180910390f35b3480156101a357600080fd5b506101be60048036038101906101b9919061314d565b610697565b6040516101cb91906131bb565b60405180910390f35b3480156101e057600080fd5b506101fb60048036038101906101f69190613202565b6106dd565b005b34801561020957600080fd5b506102126107f4565b60405161021f91906133be565b60405180910390f35b34801561023457600080fd5b5061023d610b3e565b60405161024a91906133be565b60405180910390f35b34801561025f57600080fd5b5061027a600480360381019061027591906133e0565b610e88565b005b6102966004803603810190610291919061314d565b610ee8565b005b3480156102a457600080fd5b506102ad611370565b6040516102ba91906133be565b60405180910390f35b3480156102cf57600080fd5b506102ea60048036038101906102e591906133e0565b611637565b005b3480156102f857600080fd5b50610313600480360381019061030e919061314d565b611657565b60405161032091906131bb565b60405180910390f35b610343600480360381019061033e9190613433565b6116dd565b005b34801561035157600080fd5b5061036c60048036038101906103679190613473565b61188e565b60405161037991906134af565b60405180910390f35b34801561038e57600080fd5b506103a960048036038101906103a49190613433565b611945565b6040516103b691906134af565b60405180910390f35b3480156103cb57600080fd5b506103d46119b2565b6040516103e191906130f5565b60405180910390f35b3480156103f657600080fd5b50610411600480360381019061040c91906134f6565b611a44565b005b34801561041f57600080fd5b5061043a6004803603810190610435919061314d565b611a5a565b60405161044791906134af565b60405180910390f35b34801561045c57600080fd5b506104776004803603810190610472919061366b565b611ac8565b005b610493600480360381019061048e919061378f565b611b2a565b6040516104a091906134af565b60405180910390f35b3480156104b557600080fd5b506104d060048036038101906104cb919061314d565b611b6e565b6040516104dd91906130f5565b60405180910390f35b3480156104f257600080fd5b5061050d600480360381019061050891906137fe565b611c80565b60405161051a919061304a565b60405180910390f35b60007f80ac58cd000000000000000000000000000000000000000000000000000000007bffffffffffffffffffffffffffffffffffffffffffffffffffffffff1916827bffffffffffffffffffffffffffffffffffffffffffffffffffffffff191614806105ee57507f5b5e139f000000000000000000000000000000000000000000000000000000007bffffffffffffffffffffffffffffffffffffffffffffffffffffffff1916827bffffffffffffffffffffffffffffffffffffffffffffffffffffffff1916145b806105fe57506105fd82611d14565b5b9050919050565b6060600080546106149061386d565b80601f01602080910402602001604051908101604052809291908181526020018280546106409061386d565b801561068d5780601f106106625761010080835404028352916020019161068d565b820191906000526020600020905b81548152906001019060200180831161067057829003601f168201915b5050505050905090565b60006106a282611d7e565b6004600083815260200190815260200160002060009054906101000a900473ffffffffffffffffffffffffffffffffffffffff169050919050565b60006106e882611657565b90508073ffffffffffffffffffffffffffffffffffffffff168373ffffffffffffffffffffffffffffffffffffffff1603610758576040517f08c379a000000000000000000000000000000000000000000000000000000000815260040161074f90613910565b60405180910390fd5b8073ffffffffffffffffffffffffffffffffffffffff16610777611dc9565b73ffffffffffffffffffffffffffffffffffffffff1614806107a657506107a5816107a0611dc9565b611c80565b5b6107e5576040517f08c379a00000000000000000000000000000000000000000000000000000000081526004016107dc906139a2565b60405180910390fd5b6107ef8383611dd1565b505050565b606060006108026007611e8a565b905060008060005b838110156108a9573373ffffffffffffffffffffffffffffffffffffffff16600a600060018461083a91906139f1565b815260200190815260200160002060010160009054906101000a900473ffffffffffffffffffffffffffffffffffffffff1673ffffffffffffffffffffffffffffffffffffffff160361089657828061089290613a25565b9350505b80806108a190613a25565b91505061080a565b5060008267ffffffffffffffff8111156108c6576108c5613540565b5b6040519080825280602002602001820160405280156108ff57816020015b6108ec612f15565b8152602001906001900390816108e45790505b50905060005b84811015610b33573373ffffffffffffffffffffffffffffffffffffffff16600a600060018461093591906139f1565b815260200190815260200160002060010160009054906101000a900473ffffffffffffffffffffffffffffffffffffffff1673ffffffffffffffffffffffffffffffffffffffff1603610b2057600060018261099191906139f1565b90506000600a60008381526020019081526020016000209050806040518060e0016040529081600082015481526020016001820160009054906101000a900473ffffffffffffffffffffffffffffffffffffffff1673ffffffffffffffffffffffffffffffffffffffff1673ffffffffffffffffffffffffffffffffffffffff1681526020016002820160009054906101000a900473ffffffffffffffffffffffffffffffffffffffff1673ffffffffffffffffffffffffffffffffffffffff1673ffffffffffffffffffffffffffffffffffffffff1681526020016003820160009054906101000a900473ffffffffffffffffffffffffffffffffffffffff1673ffffffffffffffffffffffffffffffffffffffff1673ffffffffffffffffffffffffffffffffffffffff16815260200160048201548152602001600582015481526020016006820160009054906101000a900460ff161515151581525050848681518110610b0457610b03613a6d565b5b60200260200101819052508480610b1a90613a25565b95505050505b8080610b2b90613a25565b915050610905565b508094505050505090565b60606000610b4c6007611e8a565b905060008060005b83811015610bf3573373ffffffffffffffffffffffffffffffffffffffff16600a6000600184610b8491906139f1565b815260200190815260200160002060020160009054906101000a900473ffffffffffffffffffffffffffffffffffffffff1673ffffffffffffffffffffffffffffffffffffffff1603610be0578280610bdc90613a25565b9350505b8080610beb90613a25565b915050610b54565b5060008267ffffffffffffffff811115610c1057610c0f613540565b5b604051908082528060200260200182016040528015610c4957816020015b610c36612f15565b815260200190600190039081610c2e5790505b50905060005b84811015610e7d573373ffffffffffffffffffffffffffffffffffffffff16600a6000600184610c7f91906139f1565b815260200190815260200160002060020160009054906101000a900473ffffffffffffffffffffffffffffffffffffffff1673ffffffffffffffffffffffffffffffffffffffff1603610e6a576000600182610cdb91906139f1565b90506000600a60008381526020019081526020016000209050806040518060e0016040529081600082015481526020016001820160009054906101000a900473ffffffffffffffffffffffffffffffffffffffff1673ffffffffffffffffffffffffffffffffffffffff1673ffffffffffffffffffffffffffffffffffffffff1681526020016002820160009054906101000a900473ffffffffffffffffffffffffffffffffffffffff1673ffffffffffffffffffffffffffffffffffffffff1673ffffffffffffffffffffffffffffffffffffffff1681526020016003820160009054906101000a900473ffffffffffffffffffffffffffffffffffffffff1673ffffffffffffffffffffffffffffffffffffffff1673ffffffffffffffffffffffffffffffffffffffff16815260200160048201548152602001600582015481526020016006820160009054906101000a900460ff161515151581525050848681518110610e4e57610e4d613a6d565b5b60200260200101819052508480610e6490613a25565b95505050505b8080610e7590613a25565b915050610c4f565b508094505050505090565b610e99610e93611dc9565b82611e98565b610ed8576040517f08c379a0000000000000000000000000000000000000000000000000000000008152600401610ecf90613b0e565b60405180910390fd5b610ee3838383611f2d565b505050565b6000600a60008381526020019081526020016000206004015490506000600a60008481526020019081526020016000206005015490506000600a600085815260200190815260200160002060010160009054906101000a900473ffffffffffffffffffffffffffffffffffffffff1690506000600a600086815260200190815260200160002060030160009054906101000a900473ffffffffffffffffffffffffffffffffffffffff169050833414610fd6576040517f08c379a0000000000000000000000000000000000000000000000000000000008152600401610fcd90613ba0565b60405180910390fd5b33600a600087815260200190815260200160002060020160006101000a81548173ffffffffffffffffffffffffffffffffffffffff021916908373ffffffffffffffffffffffffffffffffffffffff1602179055506001600a600087815260200190815260200160002060060160006101000a81548160ff0219169083151502179055506000600a600087815260200190815260200160002060010160006101000a81548173ffffffffffffffffffffffffffffffffffffffff021916908373ffffffffffffffffffffffffffffffffffffffff1602179055506110ba6008612226565b6110c5303387611f2d565b600a600086815260200190815260200160002060030160009054906101000a900473ffffffffffffffffffffffffffffffffffffffff1673ffffffffffffffffffffffffffffffffffffffff16600a600087815260200190815260200160002060010160009054906101000a900473ffffffffffffffffffffffffffffffffffffffff1673ffffffffffffffffffffffffffffffffffffffff160361123857600061116f85611a5a565b90506000813461117f9190613bc0565b9050600960009054906101000a900473ffffffffffffffffffffffffffffffffffffffff1673ffffffffffffffffffffffffffffffffffffffff166108fc839081150290604051600060405180830381858888f193505050501580156111e9573d6000803e3d6000fd5b508373ffffffffffffffffffffffffffffffffffffffff166108fc829081150290604051600060405180830381858888f19350505050158015611230573d6000803e3d6000fd5b505050611369565b600061124385611a5a565b905060006112518686611945565b90506000818361126191906139f1565b3461126c9190613bc0565b90508373ffffffffffffffffffffffffffffffffffffffff166108fc839081150290604051600060405180830381858888f193505050501580156112b4573d6000803e3d6000fd5b50600960009054906101000a900473ffffffffffffffffffffffffffffffffffffffff1673ffffffffffffffffffffffffffffffffffffffff166108fc849081150290604051600060405180830381858888f1935050505015801561131d573d6000803e3d6000fd5b508473ffffffffffffffffffffffffffffffffffffffff166108fc829081150290604051600060405180830381858888f19350505050158015611364573d6000803e3d6000fd5b505050505b5050505050565b6060600061137e6007611e8a565b9050600061138c6008611e8a565b6113966007611e8a565b6113a09190613bc0565b90506000808267ffffffffffffffff8111156113bf576113be613540565b5b6040519080825280602002602001820160405280156113f857816020015b6113e5612f15565b8152602001906001900390816113dd5790505b50905060005b8481101561162c573073ffffffffffffffffffffffffffffffffffffffff16600a600060018461142e91906139f1565b815260200190815260200160002060020160009054906101000a900473ffffffffffffffffffffffffffffffffffffffff1673ffffffffffffffffffffffffffffffffffffffff160361161957600060018261148a91906139f1565b90506000600a60008381526020019081526020016000209050806040518060e0016040529081600082015481526020016001820160009054906101000a900473ffffffffffffffffffffffffffffffffffffffff1673ffffffffffffffffffffffffffffffffffffffff1673ffffffffffffffffffffffffffffffffffffffff1681526020016002820160009054906101000a900473ffffffffffffffffffffffffffffffffffffffff1673ffffffffffffffffffffffffffffffffffffffff1673ffffffffffffffffffffffffffffffffffffffff1681526020016003820160009054906101000a900473ffffffffffffffffffffffffffffffffffffffff1673ffffffffffffffffffffffffffffffffffffffff1673ffffffffffffffffffffffffffffffffffffffff16815260200160048201548152602001600582015481526020016006820160009054906101000a900460ff1615151515815250508486815181106115fd576115fc613a6d565b5b6020026020010181905250848061161390613a25565b95505050505b808061162490613a25565b9150506113fe565b508094505050505090565b61165283838360405180602001604052806000815250611ac8565b505050565b6000806116638361223c565b9050600073ffffffffffffffffffffffffffffffffffffffff168173ffffffffffffffffffffffffffffffffffffffff16036116d4576040517f08c379a00000000000000000000000000000000000000000000000000000000081526004016116cb90613c40565b60405180910390fd5b80915050919050565b3373ffffffffffffffffffffffffffffffffffffffff16600a600084815260200190815260200160002060020160009054906101000a900473ffffffffffffffffffffffffffffffffffffffff1673ffffffffffffffffffffffffffffffffffffffff1614611781576040517f08c379a000000000000000000000000000000000000000000000000000000000815260040161177890613cac565b60405180910390fd5b30600a600084815260200190815260200160002060020160006101000a81548173ffffffffffffffffffffffffffffffffffffffff021916908373ffffffffffffffffffffffffffffffffffffffff1602179055506000600a600084815260200190815260200160002060060160006101000a81548160ff02191690831515021790555033600a600084815260200190815260200160002060010160006101000a81548173ffffffffffffffffffffffffffffffffffffffff021916908373ffffffffffffffffffffffffffffffffffffffff16021790555080600a60008481526020019081526020016000206004018190555061187f6008612279565b61188a333084611f2d565b5050565b60008073ffffffffffffffffffffffffffffffffffffffff168273ffffffffffffffffffffffffffffffffffffffff16036118fe576040517f08c379a00000000000000000000000000000000000000000000000000000000081526004016118f590613d3e565b60405180910390fd5b600360008373ffffffffffffffffffffffffffffffffffffffff1673ffffffffffffffffffffffffffffffffffffffff168152602001908152602001600020549050919050565b600067016345785d8a00008311611991576040517f08c379a000000000000000000000000000000000000000000000000000000000815260040161198890613dd0565b60405180910390fd5b81612710846119a09190613e1f565b6119aa9190613e50565b905092915050565b6060600180546119c19061386d565b80601f01602080910402602001604051908101604052809291908181526020018280546119ed9061386d565b8015611a3a5780601f10611a0f57610100808354040283529160200191611a3a565b820191906000526020600020905b815481529060010190602001808311611a1d57829003601f168201915b5050505050905090565b611a56611a4f611dc9565b83836122d5565b5050565b600067016345785d8a00008211611aa6576040517f08c379a0000000000000000000000000000000000000000000000000000000008152600401611a9d90613dd0565b60405180910390fd5b61012c61271083611ab79190613e1f565b611ac19190613e50565b9050919050565b611ad9611ad3611dc9565b83611e98565b611b18576040517f08c379a0000000000000000000000000000000000000000000000000000000008152600401611b0f90613b0e565b60405180910390fd5b611b2484848484612441565b50505050565b6000611b366007612226565b6000611b426007611e8a565b9050611b4e338261249d565b611b5881866126ba565b611b63818585612727565b809150509392505050565b6060611b7982611d7e565b6000600660008481526020019081526020016000208054611b999061386d565b80601f0160208091040260200160405190810160405280929190818152602001828054611bc59061386d565b8015611c125780601f10611be757610100808354040283529160200191611c12565b820191906000526020600020905b815481529060010190602001808311611bf557829003601f168201915b505050505090506000611c2361295e565b90506000815103611c38578192505050611c7b565b600082511115611c6d578082604051602001611c55929190613ece565b60405160208183030381529060405292505050611c7b565b611c7684612975565b925050505b919050565b6000600560008473ffffffffffffffffffffffffffffffffffffffff1673ffffffffffffffffffffffffffffffffffffffff16815260200190815260200160002060008373ffffffffffffffffffffffffffffffffffffffff1673ffffffffffffffffffffffffffffffffffffffff16815260200190815260200160002060009054906101000a900460ff16905092915050565b60007f01ffc9a7000000000000000000000000000000000000000000000000000000007bffffffffffffffffffffffffffffffffffffffffffffffffffffffff1916827bffffffffffffffffffffffffffffffffffffffffffffffffffffffff1916149050919050565b611d87816129dd565b611dc6576040517f08c379a0000000000000000000000000000000000000000000000000000000008152600401611dbd90613c40565b60405180910390fd5b50565b600033905090565b816004600083815260200190815260200160002060006101000a81548173ffffffffffffffffffffffffffffffffffffffff021916908373ffffffffffffffffffffffffffffffffffffffff160217905550808273ffffffffffffffffffffffffffffffffffffffff16611e4483611657565b73ffffffffffffffffffffffffffffffffffffffff167f8c5be1e5ebec7d5bd14f71427d1e84f3dd0314c0f7b2291e5b200ac8c7c3b92560405160405180910390a45050565b600081600001549050919050565b600080611ea483611657565b90508073ffffffffffffffffffffffffffffffffffffffff168473ffffffffffffffffffffffffffffffffffffffff161480611ee65750611ee58185611c80565b5b80611f2457508373ffffffffffffffffffffffffffffffffffffffff16611f0c84610697565b73ffffffffffffffffffffffffffffffffffffffff16145b91505092915050565b8273ffffffffffffffffffffffffffffffffffffffff16611f4d82611657565b73ffffffffffffffffffffffffffffffffffffffff1614611fa3576040517f08c379a0000000000000000000000000000000000000000000000000000000008152600401611f9a90613f64565b60405180910390fd5b600073ffffffffffffffffffffffffffffffffffffffff168273ffffffffffffffffffffffffffffffffffffffff1603612012576040517f08c379a000000000000000000000000000000000000000000000000000000000815260040161200990613ff6565b60405180910390fd5b61201f8383836001612a1e565b8273ffffffffffffffffffffffffffffffffffffffff1661203f82611657565b73ffffffffffffffffffffffffffffffffffffffff1614612095576040517f08c379a000000000000000000000000000000000000000000000000000000000815260040161208c90613f64565b60405180910390fd5b6004600082815260200190815260200160002060006101000a81549073ffffffffffffffffffffffffffffffffffffffff02191690556001600360008573ffffffffffffffffffffffffffffffffffffffff1673ffffffffffffffffffffffffffffffffffffffff168152602001908152602001600020600082825403925050819055506001600360008473ffffffffffffffffffffffffffffffffffffffff1673ffffffffffffffffffffffffffffffffffffffff16815260200190815260200160002060008282540192505081905550816002600083815260200190815260200160002060006101000a81548173ffffffffffffffffffffffffffffffffffffffff021916908373ffffffffffffffffffffffffffffffffffffffff160217905550808273ffffffffffffffffffffffffffffffffffffffff168473ffffffffffffffffffffffffffffffffffffffff167fddf252ad1be2c89b69c2b068fc378daa952ba7f163c4a11628f55a4df523b3ef60405160405180910390a46122218383836001612b44565b505050565b6001816000016000828254019250508190555050565b60006002600083815260200190815260200160002060009054906101000a900473ffffffffffffffffffffffffffffffffffffffff169050919050565b600081600001549050600081116122c5576040517f08c379a00000000000000000000000000000000000000000000000000000000081526004016122bc90614062565b60405180910390fd5b6001810382600001819055505050565b8173ffffffffffffffffffffffffffffffffffffffff168373ffffffffffffffffffffffffffffffffffffffff1603612343576040517f08c379a000000000000000000000000000000000000000000000000000000000815260040161233a906140ce565b60405180910390fd5b80600560008573ffffffffffffffffffffffffffffffffffffffff1673ffffffffffffffffffffffffffffffffffffffff16815260200190815260200160002060008473ffffffffffffffffffffffffffffffffffffffff1673ffffffffffffffffffffffffffffffffffffffff16815260200190815260200160002060006101000a81548160ff0219169083151502179055508173ffffffffffffffffffffffffffffffffffffffff168373ffffffffffffffffffffffffffffffffffffffff167f17307eab39ab6107e8899845ad3d59bd9653f200f220920489ca2b5937696c3183604051612434919061304a565b60405180910390a3505050565b61244c848484611f2d565b61245884848484612b4a565b612497576040517f08c379a000000000000000000000000000000000000000000000000000000000815260040161248e90614160565b60405180910390fd5b50505050565b600073ffffffffffffffffffffffffffffffffffffffff168273ffffffffffffffffffffffffffffffffffffffff160361250c576040517f08c379a0000000000000000000000000000000000000000000000000000000008152600401612503906141cc565b60405180910390fd5b612515816129dd565b15612555576040517f08c379a000000000000000000000000000000000000000000000000000000000815260040161254c90614238565b60405180910390fd5b612563600083836001612a1e565b61256c816129dd565b156125ac576040517f08c379a00000000000000000000000000000000000000000000000000000000081526004016125a390614238565b60405180910390fd5b6001600360008473ffffffffffffffffffffffffffffffffffffffff1673ffffffffffffffffffffffffffffffffffffffff16815260200190815260200160002060008282540192505081905550816002600083815260200190815260200160002060006101000a81548173ffffffffffffffffffffffffffffffffffffffff021916908373ffffffffffffffffffffffffffffffffffffffff160217905550808273ffffffffffffffffffffffffffffffffffffffff16600073ffffffffffffffffffffffffffffffffffffffff167fddf252ad1be2c89b69c2b068fc378daa952ba7f163c4a11628f55a4df523b3ef60405160405180910390a46126b6600083836001612b44565b5050565b6126c3826129dd565b612702576040517f08c379a00000000000000000000000000000000000000000000000000000000081526004016126f9906142ca565b60405180910390fd5b806006600084815260200190815260200160002090816127229190614496565b505050565b6000821161276a576040517f08c379a0000000000000000000000000000000000000000000000000000000008152600401612761906145b4565b60405180910390fd5b6040518060e001604052808481526020013373ffffffffffffffffffffffffffffffffffffffff1681526020013073ffffffffffffffffffffffffffffffffffffffff1681526020013373ffffffffffffffffffffffffffffffffffffffff16815260200183815260200182815260200160001515815250600a60008581526020019081526020016000206000820151816000015560208201518160010160006101000a81548173ffffffffffffffffffffffffffffffffffffffff021916908373ffffffffffffffffffffffffffffffffffffffff16021790555060408201518160020160006101000a81548173ffffffffffffffffffffffffffffffffffffffff021916908373ffffffffffffffffffffffffffffffffffffffff16021790555060608201518160030160006101000a81548173ffffffffffffffffffffffffffffffffffffffff021916908373ffffffffffffffffffffffffffffffffffffffff1602179055506080820151816004015560a0820151816005015560c08201518160060160006101000a81548160ff021916908315150217905550905050612916333085611f2d565b827f57bc5db4260382b0aa84042772478b244fd59a2fa4988fcc77e2d7c0d09dec7033303386866000604051612951969594939291906145e3565b60405180910390a2505050565b606060405180602001604052806000815250905090565b606061298082611d7e565b600061298a61295e565b905060008151116129aa57604051806020016040528060008152506129d5565b806129b484612cd1565b6040516020016129c5929190613ece565b6040516020818303038152906040525b915050919050565b60008073ffffffffffffffffffffffffffffffffffffffff166129ff8361223c565b73ffffffffffffffffffffffffffffffffffffffff1614159050919050565b6001811115612b3e57600073ffffffffffffffffffffffffffffffffffffffff168473ffffffffffffffffffffffffffffffffffffffff1614612ab25780600360008673ffffffffffffffffffffffffffffffffffffffff1673ffffffffffffffffffffffffffffffffffffffff1681526020019081526020016000206000828254612aaa9190613bc0565b925050819055505b600073ffffffffffffffffffffffffffffffffffffffff168373ffffffffffffffffffffffffffffffffffffffff1614612b3d5780600360008573ffffffffffffffffffffffffffffffffffffffff1673ffffffffffffffffffffffffffffffffffffffff1681526020019081526020016000206000828254612b3591906139f1565b925050819055505b5b50505050565b50505050565b6000612b6b8473ffffffffffffffffffffffffffffffffffffffff16612d9f565b15612cc4578373ffffffffffffffffffffffffffffffffffffffff1663150b7a02612b94611dc9565b8786866040518563ffffffff1660e01b8152600401612bb69493929190614699565b6020604051808303816000875af1925050508015612bf257506040513d601f19601f82011682018060405250810190612bef91906146fa565b60015b612c74573d8060008114612c22576040519150601f19603f3d011682016040523d82523d6000602084013e612c27565b606091505b506000815103612c6c576040517f08c379a0000000000000000000000000000000000000000000000000000000008152600401612c6390614160565b60405180910390fd5b805181602001fd5b63150b7a0260e01b7bffffffffffffffffffffffffffffffffffffffffffffffffffffffff1916817bffffffffffffffffffffffffffffffffffffffffffffffffffffffff191614915050612cc9565b600190505b949350505050565b606060006001612ce084612dc2565b01905060008167ffffffffffffffff811115612cff57612cfe613540565b5b6040519080825280601f01601f191660200182016040528015612d315781602001600182028036833780820191505090505b509050600082602001820190505b600115612d94578080600190039150507f3031323334353637383961626364656600000000000000000000000000000000600a86061a8153600a8581612d8857612d87613df0565b5b04945060008503612d3f575b819350505050919050565b6000808273ffffffffffffffffffffffffffffffffffffffff163b119050919050565b600080600090507a184f03e93ff9f4daa797ed6e38ed64bf6a1f0100000000000000008310612e20577a184f03e93ff9f4daa797ed6e38ed64bf6a1f0100000000000000008381612e1657612e15613df0565b5b0492506040810190505b6d04ee2d6d415b85acef81000000008310612e5d576d04ee2d6d415b85acef81000000008381612e5357612e52613df0565b5b0492506020810190505b662386f26fc100008310612e8c57662386f26fc100008381612e8257612e81613df0565b5b0492506010810190505b6305f5e1008310612eb5576305f5e1008381612eab57612eaa613df0565b5b0492506008810190505b6127108310612eda576127108381612ed057612ecf613df0565b5b0492506004810190505b60648310612efd5760648381612ef357612ef2613df0565b5b0492506002810190505b600a8310612f0c576001810190505b80915050919050565b6040518060e0016040528060008152602001600073ffffffffffffffffffffffffffffffffffffffff168152602001600073ffffffffffffffffffffffffffffffffffffffff168152602001600073ffffffffffffffffffffffffffffffffffffffff16815260200160008152602001600081526020016000151581525090565b6000604051905090565b600080fd5b600080fd5b60007fffffffff0000000000000000000000000000000000000000000000000000000082169050919050565b612fdf81612faa565b8114612fea57600080fd5b50565b600081359050612ffc81612fd6565b92915050565b60006020828403121561301857613017612fa0565b5b600061302684828501612fed565b91505092915050565b60008115159050919050565b6130448161302f565b82525050565b600060208201905061305f600083018461303b565b92915050565b600081519050919050565b600082825260208201905092915050565b60005b8381101561309f578082015181840152602081019050613084565b60008484015250505050565b6000601f19601f8301169050919050565b60006130c782613065565b6130d18185613070565b93506130e1818560208601613081565b6130ea816130ab565b840191505092915050565b6000602082019050818103600083015261310f81846130bc565b905092915050565b6000819050919050565b61312a81613117565b811461313557600080fd5b50565b60008135905061314781613121565b92915050565b60006020828403121561316357613162612fa0565b5b600061317184828501613138565b91505092915050565b600073ffffffffffffffffffffffffffffffffffffffff82169050919050565b60006131a58261317a565b9050919050565b6131b58161319a565b82525050565b60006020820190506131d060008301846131ac565b92915050565b6131df8161319a565b81146131ea57600080fd5b50565b6000813590506131fc816131d6565b92915050565b6000806040838503121561321957613218612fa0565b5b6000613227858286016131ed565b925050602061323885828601613138565b9150509250929050565b600081519050919050565b600082825260208201905092915050565b6000819050602082019050919050565b61327781613117565b82525050565b60006132888261317a565b9050919050565b6132988161327d565b82525050565b6132a78161302f565b82525050565b60e0820160008201516132c3600085018261326e565b5060208201516132d6602085018261328f565b5060408201516132e9604085018261328f565b5060608201516132fc606085018261328f565b50608082015161330f608085018261326e565b5060a082015161332260a085018261326e565b5060c082015161333560c085018261329e565b50505050565b600061334783836132ad565b60e08301905092915050565b6000602082019050919050565b600061336b82613242565b613375818561324d565b93506133808361325e565b8060005b838110156133b1578151613398888261333b565b97506133a383613353565b925050600181019050613384565b5085935050505092915050565b600060208201905081810360008301526133d88184613360565b905092915050565b6000806000606084860312156133f9576133f8612fa0565b5b6000613407868287016131ed565b9350506020613418868287016131ed565b925050604061342986828701613138565b9150509250925092565b6000806040838503121561344a57613449612fa0565b5b600061345885828601613138565b925050602061346985828601613138565b9150509250929050565b60006020828403121561348957613488612fa0565b5b6000613497848285016131ed565b91505092915050565b6134a981613117565b82525050565b60006020820190506134c460008301846134a0565b92915050565b6134d38161302f565b81146134de57600080fd5b50565b6000813590506134f0816134ca565b92915050565b6000806040838503121561350d5761350c612fa0565b5b600061351b858286016131ed565b925050602061352c858286016134e1565b9150509250929050565b600080fd5b600080fd5b7f4e487b7100000000000000000000000000000000000000000000000000000000600052604160045260246000fd5b613578826130ab565b810181811067ffffffffffffffff8211171561359757613596613540565b5b80604052505050565b60006135aa612f96565b90506135b6828261356f565b919050565b600067ffffffffffffffff8211156135d6576135d5613540565b5b6135df826130ab565b9050602081019050919050565b82818337600083830152505050565b600061360e613609846135bb565b6135a0565b90508281526020810184848401111561362a5761362961353b565b5b6136358482856135ec565b509392505050565b600082601f83011261365257613651613536565b5b81356136628482602086016135fb565b91505092915050565b6000806000806080858703121561368557613684612fa0565b5b6000613693878288016131ed565b94505060206136a4878288016131ed565b93505060406136b587828801613138565b925050606085013567ffffffffffffffff8111156136d6576136d5612fa5565b5b6136e28782880161363d565b91505092959194509250565b600067ffffffffffffffff82111561370957613708613540565b5b613712826130ab565b9050602081019050919050565b600061373261372d846136ee565b6135a0565b90508281526020810184848401111561374e5761374d61353b565b5b6137598482856135ec565b509392505050565b600082601f83011261377657613775613536565b5b813561378684826020860161371f565b91505092915050565b6000806000606084860312156137a8576137a7612fa0565b5b600084013567ffffffffffffffff8111156137c6576137c5612fa5565b5b6137d286828701613761565b93505060206137e386828701613138565b92505060406137f486828701613138565b9150509250925092565b6000806040838503121561381557613814612fa0565b5b6000613823858286016131ed565b9250506020613834858286016131ed565b9150509250929050565b7f4e487b7100000000000000000000000000000000000000000000000000000000600052602260045260246000fd5b6000600282049050600182168061388557607f821691505b6020821081036138985761389761383e565b5b50919050565b7f4552433732313a20617070726f76616c20746f2063757272656e74206f776e6560008201527f7200000000000000000000000000000000000000000000000000000000000000602082015250565b60006138fa602183613070565b91506139058261389e565b604082019050919050565b60006020820190508181036000830152613929816138ed565b9050919050565b7f4552433732313a20617070726f76652063616c6c6572206973206e6f7420746f60008201527f6b656e206f776e6572206f7220617070726f76656420666f7220616c6c000000602082015250565b600061398c603d83613070565b915061399782613930565b604082019050919050565b600060208201905081810360008301526139bb8161397f565b9050919050565b7f4e487b7100000000000000000000000000000000000000000000000000000000600052601160045260246000fd5b60006139fc82613117565b9150613a0783613117565b9250828201905080821115613a1f57613a1e6139c2565b5b92915050565b6000613a3082613117565b91507fffffffffffffffffffffffffffffffffffffffffffffffffffffffffffffffff8203613a6257613a616139c2565b5b600182019050919050565b7f4e487b7100000000000000000000000000000000000000000000000000000000600052603260045260246000fd5b7f4552433732313a2063616c6c6572206973206e6f7420746f6b656e206f776e6560008201527f72206f7220617070726f76656400000000000000000000000000000000000000602082015250565b6000613af8602d83613070565b9150613b0382613a9c565b604082019050919050565b60006020820190508181036000830152613b2781613aeb565b9050919050565b7f5375626d6974746564207072696365206e6f7420657175616c20746f204e465460008201527f2070726963652e00000000000000000000000000000000000000000000000000602082015250565b6000613b8a602783613070565b9150613b9582613b2e565b604082019050919050565b60006020820190508181036000830152613bb981613b7d565b9050919050565b6000613bcb82613117565b9150613bd683613117565b9250828203905081811115613bee57613bed6139c2565b5b92915050565b7f4552433732313a20696e76616c696420746f6b656e2049440000000000000000600082015250565b6000613c2a601883613070565b9150613c3582613bf4565b602082019050919050565b60006020820190508181036000830152613c5981613c1d565b9050919050565b7f596f7520617265206e6f74206f776e6572206f662074686973204e4654000000600082015250565b6000613c96601d83613070565b9150613ca182613c60565b602082019050919050565b60006020820190508181036000830152613cc581613c89565b9050919050565b7f4552433732313a2061646472657373207a65726f206973206e6f74206120766160008201527f6c6964206f776e65720000000000000000000000000000000000000000000000602082015250565b6000613d28602983613070565b9150613d3382613ccc565b604082019050919050565b60006020820190508181036000830152613d5781613d1b565b9050919050565b7f53616c65207072696365206973206c657373207468616e20302e31204d41544960008201527f4300000000000000000000000000000000000000000000000000000000000000602082015250565b6000613dba602183613070565b9150613dc582613d5e565b604082019050919050565b60006020820190508181036000830152613de981613dad565b9050919050565b7f4e487b7100000000000000000000000000000000000000000000000000000000600052601260045260246000fd5b6000613e2a82613117565b9150613e3583613117565b925082613e4557613e44613df0565b5b828204905092915050565b6000613e5b82613117565b9150613e6683613117565b9250828202613e7481613117565b91508282048414831517613e8b57613e8a6139c2565b5b5092915050565b600081905092915050565b6000613ea882613065565b613eb28185613e92565b9350613ec2818560208601613081565b80840191505092915050565b6000613eda8285613e9d565b9150613ee68284613e9d565b91508190509392505050565b7f4552433732313a207472616e736665722066726f6d20696e636f72726563742060008201527f6f776e6572000000000000000000000000000000000000000000000000000000602082015250565b6000613f4e602583613070565b9150613f5982613ef2565b604082019050919050565b60006020820190508181036000830152613f7d81613f41565b9050919050565b7f4552433732313a207472616e7366657220746f20746865207a65726f2061646460008201527f7265737300000000000000000000000000000000000000000000000000000000602082015250565b6000613fe0602483613070565b9150613feb82613f84565b604082019050919050565b6000602082019050818103600083015261400f81613fd3565b9050919050565b7f436f756e7465723a2064656372656d656e74206f766572666c6f770000000000600082015250565b600061404c601b83613070565b915061405782614016565b602082019050919050565b6000602082019050818103600083015261407b8161403f565b9050919050565b7f4552433732313a20617070726f766520746f2063616c6c657200000000000000600082015250565b60006140b8601983613070565b91506140c382614082565b602082019050919050565b600060208201905081810360008301526140e7816140ab565b9050919050565b7f4552433732313a207472616e7366657220746f206e6f6e20455243373231526560008201527f63656976657220696d706c656d656e7465720000000000000000000000000000602082015250565b600061414a603283613070565b9150614155826140ee565b604082019050919050565b600060208201905081810360008301526141798161413d565b9050919050565b7f4552433732313a206d696e7420746f20746865207a65726f2061646472657373600082015250565b60006141b6602083613070565b91506141c182614180565b602082019050919050565b600060208201905081810360008301526141e5816141a9565b9050919050565b7f4552433732313a20746f6b656e20616c7265616479206d696e74656400000000600082015250565b6000614222601c83613070565b915061422d826141ec565b602082019050919050565b6000602082019050818103600083015261425181614215565b9050919050565b7f45524337323155524953746f726167653a2055524920736574206f66206e6f6e60008201527f6578697374656e7420746f6b656e000000000000000000000000000000000000602082015250565b60006142b4602e83613070565b91506142bf82614258565b604082019050919050565b600060208201905081810360008301526142e3816142a7565b9050919050565b60008190508160005260206000209050919050565b60006020601f8301049050919050565b600082821b905092915050565b60006008830261434c7fffffffffffffffffffffffffffffffffffffffffffffffffffffffffffffffff8261430f565b614356868361430f565b95508019841693508086168417925050509392505050565b6000819050919050565b600061439361438e61438984613117565b61436e565b613117565b9050919050565b6000819050919050565b6143ad83614378565b6143c16143b98261439a565b84845461431c565b825550505050565b600090565b6143d66143c9565b6143e18184846143a4565b505050565b5b81811015614405576143fa6000826143ce565b6001810190506143e7565b5050565b601f82111561444a5761441b816142ea565b614424846142ff565b81016020851015614433578190505b61444761443f856142ff565b8301826143e6565b50505b505050565b600082821c905092915050565b600061446d6000198460080261444f565b1980831691505092915050565b6000614486838361445c565b9150826002028217905092915050565b61449f82613065565b67ffffffffffffffff8111156144b8576144b7613540565b5b6144c2825461386d565b6144cd828285614409565b600060209050601f83116001811461450057600084156144ee578287015190505b6144f8858261447a565b865550614560565b601f19841661450e866142ea565b60005b8281101561453657848901518255600182019150602085019450602081019050614511565b86831015614553578489015161454f601f89168261445c565b8355505b6001600288020188555050505b505050505050565b7f50726963652063616e2774206265207a65726f2e000000000000000000000000600082015250565b600061459e601483613070565b91506145a982614568565b602082019050919050565b600060208201905081810360008301526145cd81614591565b9050919050565b6145dd8161327d565b82525050565b600060c0820190506145f860008301896145d4565b61460560208301886145d4565b61461260408301876145d4565b61461f60608301866134a0565b61462c60808301856134a0565b61463960a083018461303b565b979650505050505050565b600081519050919050565b600082825260208201905092915050565b600061466b82614644565b614675818561464f565b9350614685818560208601613081565b61468e816130ab565b840191505092915050565b60006080820190506146ae60008301876131ac565b6146bb60208301866131ac565b6146c860408301856134a0565b81810360608301526146da8184614660565b905095945050505050565b6000815190506146f481612fd6565b92915050565b6000602082840312156147105761470f612fa0565b5b600061471e848285016146e5565b9150509291505056fea2646970667358221220c147777d8f4cecd139ccefc23e74528cbdd93c240394556f0b50c6e8f6bc9bdb64736f6c63430008110033",
  "linkReferences": {},
  "deployedLinkReferences": {}
}