{
  "_format": "hh-sol-artifact-1",
  "contractName": "Metropolis",
  "sourceName": "contracts/metropolis.sol",
  "abi": [
    {
      "inputs": [],
      "stateMutability": "nonpayable",
      "type": "constructor"
    },
    {
      "anonymous": false,
      "inputs": [
        {
          "indexed": true,
          "internalType": "address",
          "name": "owner",
          "type": "address"
        },
        {
          "indexed": true,
          "internalType": "address",
          "name": "approved",
          "type": "address"
        },
        {
          "indexed": true,
          "internalType": "uint256",
          "name": "tokenId",
          "type": "uint256"
        }
      ],
      "name": "Approval",
      "type": "event"
    },
    {
      "anonymous": false,
      "inputs": [
        {
          "indexed": true,
          "internalType": "address",
          "name": "owner",
          "type": "address"
        },
        {
          "indexed": true,
          "internalType": "address",
          "name": "operator",
          "type": "address"
        },
        {
          "indexed": false,
          "internalType": "bool",
          "name": "approved",
          "type": "bool"
        }
      ],
      "name": "ApprovalForAll",
      "type": "event"
    },
    {
      "anonymous": false,
      "inputs": [
        {
          "indexed": true,
          "internalType": "address",
          "name": "from",
          "type": "address"
        },
        {
          "indexed": true,
          "internalType": "address",
          "name": "to",
          "type": "address"
        },
        {
          "indexed": true,
          "internalType": "uint256",
          "name": "tokenId",
          "type": "uint256"
        }
      ],
      "name": "Transfer",
      "type": "event"
    },
    {
      "anonymous": false,
      "inputs": [
        {
          "indexed": true,
          "internalType": "uint256",
          "name": "tokenId",
          "type": "uint256"
        },
        {
          "indexed": false,
          "internalType": "address payable",
          "name": "seller",
          "type": "address"
        },
        {
          "indexed": false,
          "internalType": "address payable",
          "name": "owner",
          "type": "address"
        },
        {
          "indexed": false,
          "internalType": "uint256",
          "name": "price",
          "type": "uint256"
        },
        {
          "indexed": false,
          "internalType": "bool",
          "name": "sold",
          "type": "bool"
        }
      ],
      "name": "nftCreated",
      "type": "event"
    },
    {
      "inputs": [
        {
          "internalType": "address",
          "name": "to",
          "type": "address"
        },
        {
          "internalType": "uint256",
          "name": "tokenId",
          "type": "uint256"
        }
      ],
      "name": "approve",
      "outputs": [],
      "stateMutability": "nonpayable",
      "type": "function"
    },
    {
      "inputs": [
        {
          "internalType": "address",
          "name": "owner",
          "type": "address"
        }
      ],
      "name": "balanceOf",
      "outputs": [
        {
          "internalType": "uint256",
          "name": "",
          "type": "uint256"
        }
      ],
      "stateMutability": "view",
      "type": "function"
    },
    {
      "inputs": [
        {
          "internalType": "uint256",
          "name": "tokenId",
          "type": "uint256"
        }
      ],
      "name": "buyNft",
      "outputs": [],
      "stateMutability": "payable",
      "type": "function"
    },
    {
      "inputs": [
        {
          "internalType": "string",
          "name": "tokenURI",
          "type": "string"
        },
        {
          "internalType": "uint256",
          "name": "price",
          "type": "uint256"
        }
      ],
      "name": "createToken",
      "outputs": [
        {
          "internalType": "uint256",
          "name": "",
          "type": "uint256"
        }
      ],
      "stateMutability": "payable",
      "type": "function"
    },
    {
      "inputs": [],
      "name": "fetchMarket",
      "outputs": [
        {
          "components": [
            {
              "internalType": "uint256",
              "name": "tokenId",
              "type": "uint256"
            },
            {
              "internalType": "address payable",
              "name": "seller",
              "type": "address"
            },
            {
              "internalType": "address payable",
              "name": "owner",
              "type": "address"
            },
            {
              "internalType": "uint256",
              "name": "price",
              "type": "uint256"
            },
            {
              "internalType": "bool",
              "name": "sold",
              "type": "bool"
            }
          ],
          "internalType": "struct Metropolis.NFT[]",
          "name": "",
          "type": "tuple[]"
        }
      ],
      "stateMutability": "view",
      "type": "function"
    },
    {
      "inputs": [],
      "name": "fetchMyListings",
      "outputs": [
        {
          "components": [
            {
              "internalType": "uint256",
              "name": "tokenId",
              "type": "uint256"
            },
            {
              "internalType": "address payable",
              "name": "seller",
              "type": "address"
            },
            {
              "internalType": "address payable",
              "name": "owner",
              "type": "address"
            },
            {
              "internalType": "uint256",
              "name": "price",
              "type": "uint256"
            },
            {
              "internalType": "bool",
              "name": "sold",
              "type": "bool"
            }
          ],
          "internalType": "struct Metropolis.NFT[]",
          "name": "",
          "type": "tuple[]"
        }
      ],
      "stateMutability": "view",
      "type": "function"
    },
    {
      "inputs": [],
      "name": "fetchMyNFTs",
      "outputs": [
        {
          "components": [
            {
              "internalType": "uint256",
              "name": "tokenId",
              "type": "uint256"
            },
            {
              "internalType": "address payable",
              "name": "seller",
              "type": "address"
            },
            {
              "internalType": "address payable",
              "name": "owner",
              "type": "address"
            },
            {
              "internalType": "uint256",
              "name": "price",
              "type": "uint256"
            },
            {
              "internalType": "bool",
              "name": "sold",
              "type": "bool"
            }
          ],
          "internalType": "struct Metropolis.NFT[]",
          "name": "",
          "type": "tuple[]"
        }
      ],
      "stateMutability": "view",
      "type": "function"
    },
    {
      "inputs": [
        {
          "internalType": "uint256",
          "name": "tokenId",
          "type": "uint256"
        }
      ],
      "name": "getApproved",
      "outputs": [
        {
          "internalType": "address",
          "name": "",
          "type": "address"
        }
      ],
      "stateMutability": "view",
      "type": "function"
    },
    {
      "inputs": [
        {
          "internalType": "address",
          "name": "owner",
          "type": "address"
        },
        {
          "internalType": "address",
          "name": "operator",
          "type": "address"
        }
      ],
      "name": "isApprovedForAll",
      "outputs": [
        {
          "internalType": "bool",
          "name": "",
          "type": "bool"
        }
      ],
      "stateMutability": "view",
      "type": "function"
    },
    {
      "inputs": [],
      "name": "name",
      "outputs": [
        {
          "internalType": "string",
          "name": "",
          "type": "string"
        }
      ],
      "stateMutability": "view",
      "type": "function"
    },
    {
      "inputs": [
        {
          "internalType": "uint256",
          "name": "tokenId",
          "type": "uint256"
        }
      ],
      "name": "ownerOf",
      "outputs": [
        {
          "internalType": "address",
          "name": "",
          "type": "address"
        }
      ],
      "stateMutability": "view",
      "type": "function"
    },
    {
      "inputs": [
        {
          "internalType": "uint256",
          "name": "tokenId",
          "type": "uint256"
        },
        {
          "internalType": "uint256",
          "name": "price",
          "type": "uint256"
        }
      ],
      "name": "resellNFTs",
      "outputs": [],
      "stateMutability": "payable",
      "type": "function"
    },
    {
      "inputs": [
        {
          "internalType": "address",
          "name": "from",
          "type": "address"
        },
        {
          "internalType": "address",
          "name": "to",
          "type": "address"
        },
        {
          "internalType": "uint256",
          "name": "tokenId",
          "type": "uint256"
        }
      ],
      "name": "safeTransferFrom",
      "outputs": [],
      "stateMutability": "nonpayable",
      "type": "function"
    },
    {
      "inputs": [
        {
          "internalType": "address",
          "name": "from",
          "type": "address"
        },
        {
          "internalType": "address",
          "name": "to",
          "type": "address"
        },
        {
          "internalType": "uint256",
          "name": "tokenId",
          "type": "uint256"
        },
        {
          "internalType": "bytes",
          "name": "data",
          "type": "bytes"
        }
      ],
      "name": "safeTransferFrom",
      "outputs": [],
      "stateMutability": "nonpayable",
      "type": "function"
    },
    {
      "inputs": [
        {
          "internalType": "address",
          "name": "operator",
          "type": "address"
        },
        {
          "internalType": "bool",
          "name": "approved",
          "type": "bool"
        }
      ],
      "name": "setApprovalForAll",
      "outputs": [],
      "stateMutability": "nonpayable",
      "type": "function"
    },
    {
      "inputs": [
        {
          "internalType": "bytes4",
          "name": "interfaceId",
          "type": "bytes4"
        }
      ],
      "name": "supportsInterface",
      "outputs": [
        {
          "internalType": "bool",
          "name": "",
          "type": "bool"
        }
      ],
      "stateMutability": "view",
      "type": "function"
    },
    {
      "inputs": [],
      "name": "symbol",
      "outputs": [
        {
          "internalType": "string",
          "name": "",
          "type": "string"
        }
      ],
      "stateMutability": "view",
      "type": "function"
    },
    {
      "inputs": [
        {
          "internalType": "uint256",
          "name": "tokenId",
          "type": "uint256"
        }
      ],
      "name": "tokenURI",
      "outputs": [
        {
          "internalType": "string",
          "name": "",
          "type": "string"
        }
      ],
      "stateMutability": "view",
      "type": "function"
    },
    {
      "inputs": [
        {
          "internalType": "address",
          "name": "from",
          "type": "address"
        },
        {
          "internalType": "address",
          "name": "to",
          "type": "address"
        },
        {
          "internalType": "uint256",
          "name": "tokenId",
          "type": "uint256"
        }
      ],
      "name": "transferFrom",
      "outputs": [],
      "stateMutability": "nonpayable",
      "type": "function"
    }
  ],
  "bytecode": "0x60806040523480156200001157600080fd5b506040518060400160405280601081526020017f4d657461766572736520546f6b656e73000000000000000000000000000000008152506040518060400160405280600481526020017f4d4554540000000000000000000000000000000000000000000000000000000081525081600090816200008f919062000365565b508060019081620000a1919062000365565b50505033600960006101000a81548173ffffffffffffffffffffffffffffffffffffffff021916908373ffffffffffffffffffffffffffffffffffffffff1602179055506200044c565b600081519050919050565b7f4e487b7100000000000000000000000000000000000000000000000000000000600052604160045260246000fd5b7f4e487b7100000000000000000000000000000000000000000000000000000000600052602260045260246000fd5b600060028204905060018216806200016d57607f821691505b60208210810362000183576200018262000125565b5b50919050565b60008190508160005260206000209050919050565b60006020601f8301049050919050565b600082821b905092915050565b600060088302620001ed7fffffffffffffffffffffffffffffffffffffffffffffffffffffffffffffffff82620001ae565b620001f98683620001ae565b95508019841693508086168417925050509392505050565b6000819050919050565b6000819050919050565b600062000246620002406200023a8462000211565b6200021b565b62000211565b9050919050565b6000819050919050565b620002628362000225565b6200027a62000271826200024d565b848454620001bb565b825550505050565b600090565b6200029162000282565b6200029e81848462000257565b505050565b5b81811015620002c657620002ba60008262000287565b600181019050620002a4565b5050565b601f8211156200031557620002df8162000189565b620002ea846200019e565b81016020851015620002fa578190505b6200031262000309856200019e565b830182620002a3565b50505b505050565b600082821c905092915050565b60006200033a600019846008026200031a565b1980831691505092915050565b600062000355838362000327565b9150826002028217905092915050565b6200037082620000eb565b67ffffffffffffffff8111156200038c576200038b620000f6565b5b62000398825462000154565b620003a5828285620002ca565b600060209050601f831160018114620003dd5760008415620003c8578287015190505b620003d4858262000347565b86555062000444565b601f198416620003ed8662000189565b60005b828110156200041757848901518255600182019150602085019450602081019050620003f0565b8683101562000437578489015162000433601f89168262000327565b8355505b6001600288020188555050505b505050505050565b614025806200045c6000396000f3fe6080604052600436106101145760003560e01c806342842e0e116100a057806395d89b411161006457806395d89b411461039c578063a22cb465146103c7578063b88d4fde146103f0578063c87b56dd14610419578063e985e9c51461045657610114565b806342842e0e146102ad5780636352211e146102d65780636b0f8b041461031357806370a082311461032f57806372b3b6201461036c57610114565b806315a70d8d116100e757806315a70d8d146101e7578063202e37401461021257806323b872dd1461023d578063243adbdd146102665780633143ec871461028257610114565b806301ffc9a71461011957806306fdde0314610156578063081812fc14610181578063095ea7b3146101be575b600080fd5b34801561012557600080fd5b50610140600480360381019061013b9190612a24565b610493565b60405161014d9190612a6c565b60405180910390f35b34801561016257600080fd5b5061016b610575565b6040516101789190612b17565b60405180910390f35b34801561018d57600080fd5b506101a860048036038101906101a39190612b6f565b610607565b6040516101b59190612bdd565b60405180910390f35b3480156101ca57600080fd5b506101e560048036038101906101e09190612c24565b61064d565b005b3480156101f357600080fd5b506101fc610764565b6040516102099190612dba565b60405180910390f35b34801561021e57600080fd5b50610227610a4e565b6040516102349190612dba565b60405180910390f35b34801561024957600080fd5b50610264600480360381019061025f9190612ddc565b610d38565b005b610280600480360381019061027b9190612b6f565b610d98565b005b34801561028e57600080fd5b50610297610f6b565b6040516102a49190612dba565b60405180910390f35b3480156102b957600080fd5b506102d460048036038101906102cf9190612ddc565b6111d2565b005b3480156102e257600080fd5b506102fd60048036038101906102f89190612b6f565b6111f2565b60405161030a9190612bdd565b60405180910390f35b61032d60048036038101906103289190612e2f565b611278565b005b34801561033b57600080fd5b5061035660048036038101906103519190612e6f565b611429565b6040516103639190612eab565b60405180910390f35b61038660048036038101906103819190612ffb565b6114e0565b6040516103939190612eab565b60405180910390f35b3480156103a857600080fd5b506103b1611522565b6040516103be9190612b17565b60405180910390f35b3480156103d357600080fd5b506103ee60048036038101906103e99190613083565b6115b4565b005b3480156103fc57600080fd5b5061041760048036038101906104129190613164565b6115ca565b005b34801561042557600080fd5b50610440600480360381019061043b9190612b6f565b61162c565b60405161044d9190612b17565b60405180910390f35b34801561046257600080fd5b5061047d600480360381019061047891906131e7565b61173e565b60405161048a9190612a6c565b60405180910390f35b60007f80ac58cd000000000000000000000000000000000000000000000000000000007bffffffffffffffffffffffffffffffffffffffffffffffffffffffff1916827bffffffffffffffffffffffffffffffffffffffffffffffffffffffff1916148061055e57507f5b5e139f000000000000000000000000000000000000000000000000000000007bffffffffffffffffffffffffffffffffffffffffffffffffffffffff1916827bffffffffffffffffffffffffffffffffffffffffffffffffffffffff1916145b8061056e575061056d826117d2565b5b9050919050565b60606000805461058490613256565b80601f01602080910402602001604051908101604052809291908181526020018280546105b090613256565b80156105fd5780601f106105d2576101008083540402835291602001916105fd565b820191906000526020600020905b8154815290600101906020018083116105e057829003601f168201915b5050505050905090565b60006106128261183c565b6004600083815260200190815260200160002060009054906101000a900473ffffffffffffffffffffffffffffffffffffffff169050919050565b6000610658826111f2565b90508073ffffffffffffffffffffffffffffffffffffffff168373ffffffffffffffffffffffffffffffffffffffff16036106c8576040517f08c379a00000000000000000000000000000000000000000000000000000000081526004016106bf906132f9565b60405180910390fd5b8073ffffffffffffffffffffffffffffffffffffffff166106e7611887565b73ffffffffffffffffffffffffffffffffffffffff161480610716575061071581610710611887565b61173e565b5b610755576040517f08c379a000000000000000000000000000000000000000000000000000000000815260040161074c9061338b565b60405180910390fd5b61075f838361188f565b505050565b606060006107726007611948565b905060008060005b83811015610819573373ffffffffffffffffffffffffffffffffffffffff16600a60006001846107aa91906133da565b815260200190815260200160002060010160009054906101000a900473ffffffffffffffffffffffffffffffffffffffff1673ffffffffffffffffffffffffffffffffffffffff16036108065782806108029061340e565b9350505b80806108119061340e565b91505061077a565b5060008267ffffffffffffffff81111561083657610835612ed0565b5b60405190808252806020026020018201604052801561086f57816020015b61085c61295b565b8152602001906001900390816108545790505b50905060005b84811015610a43573373ffffffffffffffffffffffffffffffffffffffff16600a60006001846108a591906133da565b815260200190815260200160002060010160009054906101000a900473ffffffffffffffffffffffffffffffffffffffff1673ffffffffffffffffffffffffffffffffffffffff1603610a3057600060018261090191906133da565b90506000600a60008381526020019081526020016000209050806040518060a0016040529081600082015481526020016001820160009054906101000a900473ffffffffffffffffffffffffffffffffffffffff1673ffffffffffffffffffffffffffffffffffffffff1673ffffffffffffffffffffffffffffffffffffffff1681526020016002820160009054906101000a900473ffffffffffffffffffffffffffffffffffffffff1673ffffffffffffffffffffffffffffffffffffffff1673ffffffffffffffffffffffffffffffffffffffff168152602001600382015481526020016004820160009054906101000a900460ff161515151581525050848681518110610a1457610a13613456565b5b60200260200101819052508480610a2a9061340e565b95505050505b8080610a3b9061340e565b915050610875565b508094505050505090565b60606000610a5c6007611948565b905060008060005b83811015610b03573373ffffffffffffffffffffffffffffffffffffffff16600a6000600184610a9491906133da565b815260200190815260200160002060020160009054906101000a900473ffffffffffffffffffffffffffffffffffffffff1673ffffffffffffffffffffffffffffffffffffffff1603610af0578280610aec9061340e565b9350505b8080610afb9061340e565b915050610a64565b5060008267ffffffffffffffff811115610b2057610b1f612ed0565b5b604051908082528060200260200182016040528015610b5957816020015b610b4661295b565b815260200190600190039081610b3e5790505b50905060005b84811015610d2d573373ffffffffffffffffffffffffffffffffffffffff16600a6000600184610b8f91906133da565b815260200190815260200160002060020160009054906101000a900473ffffffffffffffffffffffffffffffffffffffff1673ffffffffffffffffffffffffffffffffffffffff1603610d1a576000600182610beb91906133da565b90506000600a60008381526020019081526020016000209050806040518060a0016040529081600082015481526020016001820160009054906101000a900473ffffffffffffffffffffffffffffffffffffffff1673ffffffffffffffffffffffffffffffffffffffff1673ffffffffffffffffffffffffffffffffffffffff1681526020016002820160009054906101000a900473ffffffffffffffffffffffffffffffffffffffff1673ffffffffffffffffffffffffffffffffffffffff1673ffffffffffffffffffffffffffffffffffffffff168152602001600382015481526020016004820160009054906101000a900460ff161515151581525050848681518110610cfe57610cfd613456565b5b60200260200101819052508480610d149061340e565b95505050505b8080610d259061340e565b915050610b5f565b508094505050505090565b610d49610d43611887565b82611956565b610d88576040517f08c379a0000000000000000000000000000000000000000000000000000000008152600401610d7f906134f7565b60405180910390fd5b610d938383836119eb565b505050565b6000600a60008381526020019081526020016000206003015490506000600a600084815260200190815260200160002060010160009054906101000a900473ffffffffffffffffffffffffffffffffffffffff169050813414610e30576040517f08c379a0000000000000000000000000000000000000000000000000000000008152600401610e2790613589565b60405180910390fd5b33600a600085815260200190815260200160002060020160006101000a81548173ffffffffffffffffffffffffffffffffffffffff021916908373ffffffffffffffffffffffffffffffffffffffff1602179055506001600a600085815260200190815260200160002060040160006101000a81548160ff0219169083151502179055506000600a600085815260200190815260200160002060010160006101000a81548173ffffffffffffffffffffffffffffffffffffffff021916908373ffffffffffffffffffffffffffffffffffffffff160217905550610f146008611ce4565b610f1f3033856119eb565b8073ffffffffffffffffffffffffffffffffffffffff166108fc349081150290604051600060405180830381858888f19350505050158015610f65573d6000803e3d6000fd5b50505050565b60606000610f796007611948565b90506000610f876008611948565b610f916007611948565b610f9b91906135a9565b90506000808267ffffffffffffffff811115610fba57610fb9612ed0565b5b604051908082528060200260200182016040528015610ff357816020015b610fe061295b565b815260200190600190039081610fd85790505b50905060005b848110156111c7573073ffffffffffffffffffffffffffffffffffffffff16600a600060018461102991906133da565b815260200190815260200160002060020160009054906101000a900473ffffffffffffffffffffffffffffffffffffffff1673ffffffffffffffffffffffffffffffffffffffff16036111b457600060018261108591906133da565b90506000600a60008381526020019081526020016000209050806040518060a0016040529081600082015481526020016001820160009054906101000a900473ffffffffffffffffffffffffffffffffffffffff1673ffffffffffffffffffffffffffffffffffffffff1673ffffffffffffffffffffffffffffffffffffffff1681526020016002820160009054906101000a900473ffffffffffffffffffffffffffffffffffffffff1673ffffffffffffffffffffffffffffffffffffffff1673ffffffffffffffffffffffffffffffffffffffff168152602001600382015481526020016004820160009054906101000a900460ff16151515158152505084868151811061119857611197613456565b5b602002602001018190525084806111ae9061340e565b95505050505b80806111bf9061340e565b915050610ff9565b508094505050505090565b6111ed838383604051806020016040528060008152506115ca565b505050565b6000806111fe83611cfa565b9050600073ffffffffffffffffffffffffffffffffffffffff168173ffffffffffffffffffffffffffffffffffffffff160361126f576040517f08c379a000000000000000000000000000000000000000000000000000000000815260040161126690613629565b60405180910390fd5b80915050919050565b3373ffffffffffffffffffffffffffffffffffffffff16600a600084815260200190815260200160002060020160009054906101000a900473ffffffffffffffffffffffffffffffffffffffff1673ffffffffffffffffffffffffffffffffffffffff161461131c576040517f08c379a000000000000000000000000000000000000000000000000000000000815260040161131390613695565b60405180910390fd5b30600a600084815260200190815260200160002060020160006101000a81548173ffffffffffffffffffffffffffffffffffffffff021916908373ffffffffffffffffffffffffffffffffffffffff1602179055506000600a600084815260200190815260200160002060040160006101000a81548160ff02191690831515021790555033600a600084815260200190815260200160002060010160006101000a81548173ffffffffffffffffffffffffffffffffffffffff021916908373ffffffffffffffffffffffffffffffffffffffff16021790555080600a60008481526020019081526020016000206003018190555061141a6008611d37565b6114253330846119eb565b5050565b60008073ffffffffffffffffffffffffffffffffffffffff168273ffffffffffffffffffffffffffffffffffffffff1603611499576040517f08c379a000000000000000000000000000000000000000000000000000000000815260040161149090613727565b60405180910390fd5b600360008373ffffffffffffffffffffffffffffffffffffffff1673ffffffffffffffffffffffffffffffffffffffff168152602001908152602001600020549050919050565b60006114ec6007611ce4565b60006114f86007611948565b90506115043382611d93565b61150e8185611fb0565b611518818461201d565b8091505092915050565b60606001805461153190613256565b80601f016020809104026020016040519081016040528092919081815260200182805461155d90613256565b80156115aa5780601f1061157f576101008083540402835291602001916115aa565b820191906000526020600020905b81548152906001019060200180831161158d57829003601f168201915b5050505050905090565b6115c66115bf611887565b83836121dc565b5050565b6115db6115d5611887565b83611956565b61161a576040517f08c379a0000000000000000000000000000000000000000000000000000000008152600401611611906134f7565b60405180910390fd5b61162684848484612348565b50505050565b60606116378261183c565b600060066000848152602001908152602001600020805461165790613256565b80601f016020809104026020016040519081016040528092919081815260200182805461168390613256565b80156116d05780601f106116a5576101008083540402835291602001916116d0565b820191906000526020600020905b8154815290600101906020018083116116b357829003601f168201915b5050505050905060006116e16123a4565b905060008151036116f6578192505050611739565b60008251111561172b578082604051602001611713929190613783565b60405160208183030381529060405292505050611739565b611734846123bb565b925050505b919050565b6000600560008473ffffffffffffffffffffffffffffffffffffffff1673ffffffffffffffffffffffffffffffffffffffff16815260200190815260200160002060008373ffffffffffffffffffffffffffffffffffffffff1673ffffffffffffffffffffffffffffffffffffffff16815260200190815260200160002060009054906101000a900460ff16905092915050565b60007f01ffc9a7000000000000000000000000000000000000000000000000000000007bffffffffffffffffffffffffffffffffffffffffffffffffffffffff1916827bffffffffffffffffffffffffffffffffffffffffffffffffffffffff1916149050919050565b61184581612423565b611884576040517f08c379a000000000000000000000000000000000000000000000000000000000815260040161187b90613629565b60405180910390fd5b50565b600033905090565b816004600083815260200190815260200160002060006101000a81548173ffffffffffffffffffffffffffffffffffffffff021916908373ffffffffffffffffffffffffffffffffffffffff160217905550808273ffffffffffffffffffffffffffffffffffffffff16611902836111f2565b73ffffffffffffffffffffffffffffffffffffffff167f8c5be1e5ebec7d5bd14f71427d1e84f3dd0314c0f7b2291e5b200ac8c7c3b92560405160405180910390a45050565b600081600001549050919050565b600080611962836111f2565b90508073ffffffffffffffffffffffffffffffffffffffff168473ffffffffffffffffffffffffffffffffffffffff1614806119a457506119a3818561173e565b5b806119e257508373ffffffffffffffffffffffffffffffffffffffff166119ca84610607565b73ffffffffffffffffffffffffffffffffffffffff16145b91505092915050565b8273ffffffffffffffffffffffffffffffffffffffff16611a0b826111f2565b73ffffffffffffffffffffffffffffffffffffffff1614611a61576040517f08c379a0000000000000000000000000000000000000000000000000000000008152600401611a5890613819565b60405180910390fd5b600073ffffffffffffffffffffffffffffffffffffffff168273ffffffffffffffffffffffffffffffffffffffff1603611ad0576040517f08c379a0000000000000000000000000000000000000000000000000000000008152600401611ac7906138ab565b60405180910390fd5b611add8383836001612464565b8273ffffffffffffffffffffffffffffffffffffffff16611afd826111f2565b73ffffffffffffffffffffffffffffffffffffffff1614611b53576040517f08c379a0000000000000000000000000000000000000000000000000000000008152600401611b4a90613819565b60405180910390fd5b6004600082815260200190815260200160002060006101000a81549073ffffffffffffffffffffffffffffffffffffffff02191690556001600360008573ffffffffffffffffffffffffffffffffffffffff1673ffffffffffffffffffffffffffffffffffffffff168152602001908152602001600020600082825403925050819055506001600360008473ffffffffffffffffffffffffffffffffffffffff1673ffffffffffffffffffffffffffffffffffffffff16815260200190815260200160002060008282540192505081905550816002600083815260200190815260200160002060006101000a81548173ffffffffffffffffffffffffffffffffffffffff021916908373ffffffffffffffffffffffffffffffffffffffff160217905550808273ffffffffffffffffffffffffffffffffffffffff168473ffffffffffffffffffffffffffffffffffffffff167fddf252ad1be2c89b69c2b068fc378daa952ba7f163c4a11628f55a4df523b3ef60405160405180910390a4611cdf838383600161258a565b505050565b6001816000016000828254019250508190555050565b60006002600083815260200190815260200160002060009054906101000a900473ffffffffffffffffffffffffffffffffffffffff169050919050565b60008160000154905060008111611d83576040517f08c379a0000000000000000000000000000000000000000000000000000000008152600401611d7a90613917565b60405180910390fd5b6001810382600001819055505050565b600073ffffffffffffffffffffffffffffffffffffffff168273ffffffffffffffffffffffffffffffffffffffff1603611e02576040517f08c379a0000000000000000000000000000000000000000000000000000000008152600401611df990613983565b60405180910390fd5b611e0b81612423565b15611e4b576040517f08c379a0000000000000000000000000000000000000000000000000000000008152600401611e42906139ef565b60405180910390fd5b611e59600083836001612464565b611e6281612423565b15611ea2576040517f08c379a0000000000000000000000000000000000000000000000000000000008152600401611e99906139ef565b60405180910390fd5b6001600360008473ffffffffffffffffffffffffffffffffffffffff1673ffffffffffffffffffffffffffffffffffffffff16815260200190815260200160002060008282540192505081905550816002600083815260200190815260200160002060006101000a81548173ffffffffffffffffffffffffffffffffffffffff021916908373ffffffffffffffffffffffffffffffffffffffff160217905550808273ffffffffffffffffffffffffffffffffffffffff16600073ffffffffffffffffffffffffffffffffffffffff167fddf252ad1be2c89b69c2b068fc378daa952ba7f163c4a11628f55a4df523b3ef60405160405180910390a4611fac60008383600161258a565b5050565b611fb982612423565b611ff8576040517f08c379a0000000000000000000000000000000000000000000000000000000008152600401611fef90613a81565b60405180910390fd5b806006600084815260200190815260200160002090816120189190613c4d565b505050565b60008111612060576040517f08c379a000000000000000000000000000000000000000000000000000000000815260040161205790613d6b565b60405180910390fd5b6040518060a001604052808381526020013373ffffffffffffffffffffffffffffffffffffffff1681526020013073ffffffffffffffffffffffffffffffffffffffff16815260200182815260200160001515815250600a60008481526020019081526020016000206000820151816000015560208201518160010160006101000a81548173ffffffffffffffffffffffffffffffffffffffff021916908373ffffffffffffffffffffffffffffffffffffffff16021790555060408201518160020160006101000a81548173ffffffffffffffffffffffffffffffffffffffff021916908373ffffffffffffffffffffffffffffffffffffffff1602179055506060820151816003015560808201518160040160006101000a81548160ff0219169083151502179055509050506121993330846119eb565b817f4c335077e89c6c45122c792621d60049563a6e1e5691b8b119f0068133fd423633308460006040516121d09493929190613d9a565b60405180910390a25050565b8173ffffffffffffffffffffffffffffffffffffffff168373ffffffffffffffffffffffffffffffffffffffff160361224a576040517f08c379a000000000000000000000000000000000000000000000000000000000815260040161224190613e2b565b60405180910390fd5b80600560008573ffffffffffffffffffffffffffffffffffffffff1673ffffffffffffffffffffffffffffffffffffffff16815260200190815260200160002060008473ffffffffffffffffffffffffffffffffffffffff1673ffffffffffffffffffffffffffffffffffffffff16815260200190815260200160002060006101000a81548160ff0219169083151502179055508173ffffffffffffffffffffffffffffffffffffffff168373ffffffffffffffffffffffffffffffffffffffff167f17307eab39ab6107e8899845ad3d59bd9653f200f220920489ca2b5937696c318360405161233b9190612a6c565b60405180910390a3505050565b6123538484846119eb565b61235f84848484612590565b61239e576040517f08c379a000000000000000000000000000000000000000000000000000000000815260040161239590613ebd565b60405180910390fd5b50505050565b606060405180602001604052806000815250905090565b60606123c68261183c565b60006123d06123a4565b905060008151116123f0576040518060200160405280600081525061241b565b806123fa84612717565b60405160200161240b929190613783565b6040516020818303038152906040525b915050919050565b60008073ffffffffffffffffffffffffffffffffffffffff1661244583611cfa565b73ffffffffffffffffffffffffffffffffffffffff1614159050919050565b600181111561258457600073ffffffffffffffffffffffffffffffffffffffff168473ffffffffffffffffffffffffffffffffffffffff16146124f85780600360008673ffffffffffffffffffffffffffffffffffffffff1673ffffffffffffffffffffffffffffffffffffffff16815260200190815260200160002060008282546124f091906135a9565b925050819055505b600073ffffffffffffffffffffffffffffffffffffffff168373ffffffffffffffffffffffffffffffffffffffff16146125835780600360008573ffffffffffffffffffffffffffffffffffffffff1673ffffffffffffffffffffffffffffffffffffffff168152602001908152602001600020600082825461257b91906133da565b925050819055505b5b50505050565b50505050565b60006125b18473ffffffffffffffffffffffffffffffffffffffff166127e5565b1561270a578373ffffffffffffffffffffffffffffffffffffffff1663150b7a026125da611887565b8786866040518563ffffffff1660e01b81526004016125fc9493929190613f32565b6020604051808303816000875af192505050801561263857506040513d601f19601f820116820180604052508101906126359190613f93565b60015b6126ba573d8060008114612668576040519150601f19603f3d011682016040523d82523d6000602084013e61266d565b606091505b5060008151036126b2576040517f08c379a00000000000000000000000000000000000000000000000000000000081526004016126a990613ebd565b60405180910390fd5b805181602001fd5b63150b7a0260e01b7bffffffffffffffffffffffffffffffffffffffffffffffffffffffff1916817bffffffffffffffffffffffffffffffffffffffffffffffffffffffff19161491505061270f565b600190505b949350505050565b60606000600161272684612808565b01905060008167ffffffffffffffff81111561274557612744612ed0565b5b6040519080825280601f01601f1916602001820160405280156127775781602001600182028036833780820191505090505b509050600082602001820190505b6001156127da578080600190039150507f3031323334353637383961626364656600000000000000000000000000000000600a86061a8153600a85816127ce576127cd613fc0565b5b04945060008503612785575b819350505050919050565b6000808273ffffffffffffffffffffffffffffffffffffffff163b119050919050565b600080600090507a184f03e93ff9f4daa797ed6e38ed64bf6a1f0100000000000000008310612866577a184f03e93ff9f4daa797ed6e38ed64bf6a1f010000000000000000838161285c5761285b613fc0565b5b0492506040810190505b6d04ee2d6d415b85acef810000000083106128a3576d04ee2d6d415b85acef8100000000838161289957612898613fc0565b5b0492506020810190505b662386f26fc1000083106128d257662386f26fc1000083816128c8576128c7613fc0565b5b0492506010810190505b6305f5e10083106128fb576305f5e10083816128f1576128f0613fc0565b5b0492506008810190505b612710831061292057612710838161291657612915613fc0565b5b0492506004810190505b60648310612943576064838161293957612938613fc0565b5b0492506002810190505b600a8310612952576001810190505b80915050919050565b6040518060a0016040528060008152602001600073ffffffffffffffffffffffffffffffffffffffff168152602001600073ffffffffffffffffffffffffffffffffffffffff168152602001600081526020016000151581525090565b6000604051905090565b600080fd5b600080fd5b60007fffffffff0000000000000000000000000000000000000000000000000000000082169050919050565b612a01816129cc565b8114612a0c57600080fd5b50565b600081359050612a1e816129f8565b92915050565b600060208284031215612a3a57612a396129c2565b5b6000612a4884828501612a0f565b91505092915050565b60008115159050919050565b612a6681612a51565b82525050565b6000602082019050612a816000830184612a5d565b92915050565b600081519050919050565b600082825260208201905092915050565b60005b83811015612ac1578082015181840152602081019050612aa6565b60008484015250505050565b6000601f19601f8301169050919050565b6000612ae982612a87565b612af38185612a92565b9350612b03818560208601612aa3565b612b0c81612acd565b840191505092915050565b60006020820190508181036000830152612b318184612ade565b905092915050565b6000819050919050565b612b4c81612b39565b8114612b5757600080fd5b50565b600081359050612b6981612b43565b92915050565b600060208284031215612b8557612b846129c2565b5b6000612b9384828501612b5a565b91505092915050565b600073ffffffffffffffffffffffffffffffffffffffff82169050919050565b6000612bc782612b9c565b9050919050565b612bd781612bbc565b82525050565b6000602082019050612bf26000830184612bce565b92915050565b612c0181612bbc565b8114612c0c57600080fd5b50565b600081359050612c1e81612bf8565b92915050565b60008060408385031215612c3b57612c3a6129c2565b5b6000612c4985828601612c0f565b9250506020612c5a85828601612b5a565b9150509250929050565b600081519050919050565b600082825260208201905092915050565b6000819050602082019050919050565b612c9981612b39565b82525050565b6000612caa82612b9c565b9050919050565b612cba81612c9f565b82525050565b612cc981612a51565b82525050565b60a082016000820151612ce56000850182612c90565b506020820151612cf86020850182612cb1565b506040820151612d0b6040850182612cb1565b506060820151612d1e6060850182612c90565b506080820151612d316080850182612cc0565b50505050565b6000612d438383612ccf565b60a08301905092915050565b6000602082019050919050565b6000612d6782612c64565b612d718185612c6f565b9350612d7c83612c80565b8060005b83811015612dad578151612d948882612d37565b9750612d9f83612d4f565b925050600181019050612d80565b5085935050505092915050565b60006020820190508181036000830152612dd48184612d5c565b905092915050565b600080600060608486031215612df557612df46129c2565b5b6000612e0386828701612c0f565b9350506020612e1486828701612c0f565b9250506040612e2586828701612b5a565b9150509250925092565b60008060408385031215612e4657612e456129c2565b5b6000612e5485828601612b5a565b9250506020612e6585828601612b5a565b9150509250929050565b600060208284031215612e8557612e846129c2565b5b6000612e9384828501612c0f565b91505092915050565b612ea581612b39565b82525050565b6000602082019050612ec06000830184612e9c565b92915050565b600080fd5b600080fd5b7f4e487b7100000000000000000000000000000000000000000000000000000000600052604160045260246000fd5b612f0882612acd565b810181811067ffffffffffffffff82111715612f2757612f26612ed0565b5b80604052505050565b6000612f3a6129b8565b9050612f468282612eff565b919050565b600067ffffffffffffffff821115612f6657612f65612ed0565b5b612f6f82612acd565b9050602081019050919050565b82818337600083830152505050565b6000612f9e612f9984612f4b565b612f30565b905082815260208101848484011115612fba57612fb9612ecb565b5b612fc5848285612f7c565b509392505050565b600082601f830112612fe257612fe1612ec6565b5b8135612ff2848260208601612f8b565b91505092915050565b60008060408385031215613012576130116129c2565b5b600083013567ffffffffffffffff8111156130305761302f6129c7565b5b61303c85828601612fcd565b925050602061304d85828601612b5a565b9150509250929050565b61306081612a51565b811461306b57600080fd5b50565b60008135905061307d81613057565b92915050565b6000806040838503121561309a576130996129c2565b5b60006130a885828601612c0f565b92505060206130b98582860161306e565b9150509250929050565b600067ffffffffffffffff8211156130de576130dd612ed0565b5b6130e782612acd565b9050602081019050919050565b6000613107613102846130c3565b612f30565b90508281526020810184848401111561312357613122612ecb565b5b61312e848285612f7c565b509392505050565b600082601f83011261314b5761314a612ec6565b5b813561315b8482602086016130f4565b91505092915050565b6000806000806080858703121561317e5761317d6129c2565b5b600061318c87828801612c0f565b945050602061319d87828801612c0f565b93505060406131ae87828801612b5a565b925050606085013567ffffffffffffffff8111156131cf576131ce6129c7565b5b6131db87828801613136565b91505092959194509250565b600080604083850312156131fe576131fd6129c2565b5b600061320c85828601612c0f565b925050602061321d85828601612c0f565b9150509250929050565b7f4e487b7100000000000000000000000000000000000000000000000000000000600052602260045260246000fd5b6000600282049050600182168061326e57607f821691505b60208210810361328157613280613227565b5b50919050565b7f4552433732313a20617070726f76616c20746f2063757272656e74206f776e6560008201527f7200000000000000000000000000000000000000000000000000000000000000602082015250565b60006132e3602183612a92565b91506132ee82613287565b604082019050919050565b60006020820190508181036000830152613312816132d6565b9050919050565b7f4552433732313a20617070726f76652063616c6c6572206973206e6f7420746f60008201527f6b656e206f776e6572206f7220617070726f76656420666f7220616c6c000000602082015250565b6000613375603d83612a92565b915061338082613319565b604082019050919050565b600060208201905081810360008301526133a481613368565b9050919050565b7f4e487b7100000000000000000000000000000000000000000000000000000000600052601160045260246000fd5b60006133e582612b39565b91506133f083612b39565b9250828201905080821115613408576134076133ab565b5b92915050565b600061341982612b39565b91507fffffffffffffffffffffffffffffffffffffffffffffffffffffffffffffffff820361344b5761344a6133ab565b5b600182019050919050565b7f4e487b7100000000000000000000000000000000000000000000000000000000600052603260045260246000fd5b7f4552433732313a2063616c6c6572206973206e6f7420746f6b656e206f776e6560008201527f72206f7220617070726f76656400000000000000000000000000000000000000602082015250565b60006134e1602d83612a92565b91506134ec82613485565b604082019050919050565b60006020820190508181036000830152613510816134d4565b9050919050565b7f5375626d6974746564207072696365206e6f7420657175616c20746f204e465460008201527f2070726963652e00000000000000000000000000000000000000000000000000602082015250565b6000613573602783612a92565b915061357e82613517565b604082019050919050565b600060208201905081810360008301526135a281613566565b9050919050565b60006135b482612b39565b91506135bf83612b39565b92508282039050818111156135d7576135d66133ab565b5b92915050565b7f4552433732313a20696e76616c696420746f6b656e2049440000000000000000600082015250565b6000613613601883612a92565b915061361e826135dd565b602082019050919050565b6000602082019050818103600083015261364281613606565b9050919050565b7f596f7520617265206e6f74206f776e6572206f662074686973204e4654000000600082015250565b600061367f601d83612a92565b915061368a82613649565b602082019050919050565b600060208201905081810360008301526136ae81613672565b9050919050565b7f4552433732313a2061646472657373207a65726f206973206e6f74206120766160008201527f6c6964206f776e65720000000000000000000000000000000000000000000000602082015250565b6000613711602983612a92565b915061371c826136b5565b604082019050919050565b6000602082019050818103600083015261374081613704565b9050919050565b600081905092915050565b600061375d82612a87565b6137678185613747565b9350613777818560208601612aa3565b80840191505092915050565b600061378f8285613752565b915061379b8284613752565b91508190509392505050565b7f4552433732313a207472616e736665722066726f6d20696e636f72726563742060008201527f6f776e6572000000000000000000000000000000000000000000000000000000602082015250565b6000613803602583612a92565b915061380e826137a7565b604082019050919050565b60006020820190508181036000830152613832816137f6565b9050919050565b7f4552433732313a207472616e7366657220746f20746865207a65726f2061646460008201527f7265737300000000000000000000000000000000000000000000000000000000602082015250565b6000613895602483612a92565b91506138a082613839565b604082019050919050565b600060208201905081810360008301526138c481613888565b9050919050565b7f436f756e7465723a2064656372656d656e74206f766572666c6f770000000000600082015250565b6000613901601b83612a92565b915061390c826138cb565b602082019050919050565b60006020820190508181036000830152613930816138f4565b9050919050565b7f4552433732313a206d696e7420746f20746865207a65726f2061646472657373600082015250565b600061396d602083612a92565b915061397882613937565b602082019050919050565b6000602082019050818103600083015261399c81613960565b9050919050565b7f4552433732313a20746f6b656e20616c7265616479206d696e74656400000000600082015250565b60006139d9601c83612a92565b91506139e4826139a3565b602082019050919050565b60006020820190508181036000830152613a08816139cc565b9050919050565b7f45524337323155524953746f726167653a2055524920736574206f66206e6f6e60008201527f6578697374656e7420746f6b656e000000000000000000000000000000000000602082015250565b6000613a6b602e83612a92565b9150613a7682613a0f565b604082019050919050565b60006020820190508181036000830152613a9a81613a5e565b9050919050565b60008190508160005260206000209050919050565b60006020601f8301049050919050565b600082821b905092915050565b600060088302613b037fffffffffffffffffffffffffffffffffffffffffffffffffffffffffffffffff82613ac6565b613b0d8683613ac6565b95508019841693508086168417925050509392505050565b6000819050919050565b6000613b4a613b45613b4084612b39565b613b25565b612b39565b9050919050565b6000819050919050565b613b6483613b2f565b613b78613b7082613b51565b848454613ad3565b825550505050565b600090565b613b8d613b80565b613b98818484613b5b565b505050565b5b81811015613bbc57613bb1600082613b85565b600181019050613b9e565b5050565b601f821115613c0157613bd281613aa1565b613bdb84613ab6565b81016020851015613bea578190505b613bfe613bf685613ab6565b830182613b9d565b50505b505050565b600082821c905092915050565b6000613c2460001984600802613c06565b1980831691505092915050565b6000613c3d8383613c13565b9150826002028217905092915050565b613c5682612a87565b67ffffffffffffffff811115613c6f57613c6e612ed0565b5b613c798254613256565b613c84828285613bc0565b600060209050601f831160018114613cb75760008415613ca5578287015190505b613caf8582613c31565b865550613d17565b601f198416613cc586613aa1565b60005b82811015613ced57848901518255600182019150602085019450602081019050613cc8565b86831015613d0a5784890151613d06601f891682613c13565b8355505b6001600288020188555050505b505050505050565b7f50726963652063616e2774206265207a65726f2e000000000000000000000000600082015250565b6000613d55601483612a92565b9150613d6082613d1f565b602082019050919050565b60006020820190508181036000830152613d8481613d48565b9050919050565b613d9481612c9f565b82525050565b6000608082019050613daf6000830187613d8b565b613dbc6020830186613d8b565b613dc96040830185612e9c565b613dd66060830184612a5d565b95945050505050565b7f4552433732313a20617070726f766520746f2063616c6c657200000000000000600082015250565b6000613e15601983612a92565b9150613e2082613ddf565b602082019050919050565b60006020820190508181036000830152613e4481613e08565b9050919050565b7f4552433732313a207472616e7366657220746f206e6f6e20455243373231526560008201527f63656976657220696d706c656d656e7465720000000000000000000000000000602082015250565b6000613ea7603283612a92565b9150613eb282613e4b565b604082019050919050565b60006020820190508181036000830152613ed681613e9a565b9050919050565b600081519050919050565b600082825260208201905092915050565b6000613f0482613edd565b613f0e8185613ee8565b9350613f1e818560208601612aa3565b613f2781612acd565b840191505092915050565b6000608082019050613f476000830187612bce565b613f546020830186612bce565b613f616040830185612e9c565b8181036060830152613f738184613ef9565b905095945050505050565b600081519050613f8d816129f8565b92915050565b600060208284031215613fa957613fa86129c2565b5b6000613fb784828501613f7e565b91505092915050565b7f4e487b7100000000000000000000000000000000000000000000000000000000600052601260045260246000fdfea26469706673582212202afa2092a52be1c6994f8a56afe5d6b0fbb97485a566ce1b6c6354e6e6ad10ef64736f6c63430008110033",
  "linkReferences": {},
  "deployedLinkReferences": {}
}