{
  "_format": "hh-sol-artifact-1",
  "contractName": "Metropolis",
  "sourceName": "contracts/metropolis.sol",
  "abi": [
    {
      "inputs": [],
      "stateMutability": "nonpayable",
      "type": "constructor"
    },
    {
      "anonymous": false,
      "inputs": [
        {
          "indexed": true,
          "internalType": "address",
          "name": "owner",
          "type": "address"
        },
        {
          "indexed": true,
          "internalType": "address",
          "name": "approved",
          "type": "address"
        },
        {
          "indexed": true,
          "internalType": "uint256",
          "name": "tokenId",
          "type": "uint256"
        }
      ],
      "name": "Approval",
      "type": "event"
    },
    {
      "anonymous": false,
      "inputs": [
        {
          "indexed": true,
          "internalType": "address",
          "name": "owner",
          "type": "address"
        },
        {
          "indexed": true,
          "internalType": "address",
          "name": "operator",
          "type": "address"
        },
        {
          "indexed": false,
          "internalType": "bool",
          "name": "approved",
          "type": "bool"
        }
      ],
      "name": "ApprovalForAll",
      "type": "event"
    },
    {
      "anonymous": false,
      "inputs": [
        {
          "indexed": true,
          "internalType": "address",
          "name": "from",
          "type": "address"
        },
        {
          "indexed": true,
          "internalType": "address",
          "name": "to",
          "type": "address"
        },
        {
          "indexed": true,
          "internalType": "uint256",
          "name": "tokenId",
          "type": "uint256"
        }
      ],
      "name": "Transfer",
      "type": "event"
    },
    {
      "anonymous": false,
      "inputs": [
        {
          "indexed": true,
          "internalType": "uint256",
          "name": "tokenId",
          "type": "uint256"
        },
        {
          "indexed": false,
          "internalType": "address payable",
          "name": "seller",
          "type": "address"
        },
        {
          "indexed": false,
          "internalType": "address payable",
          "name": "owner",
          "type": "address"
        },
        {
          "indexed": false,
          "internalType": "address payable",
          "name": "artist",
          "type": "address"
        },
        {
          "indexed": false,
          "internalType": "uint256",
          "name": "price",
          "type": "uint256"
        },
        {
          "indexed": false,
          "internalType": "uint256",
          "name": "royaltyFeeInBips",
          "type": "uint256"
        },
        {
          "indexed": false,
          "internalType": "bool",
          "name": "sold",
          "type": "bool"
        }
      ],
      "name": "nftCreated",
      "type": "event"
    },
    {
      "inputs": [
        {
          "internalType": "address",
          "name": "to",
          "type": "address"
        },
        {
          "internalType": "uint256",
          "name": "tokenId",
          "type": "uint256"
        }
      ],
      "name": "approve",
      "outputs": [],
      "stateMutability": "nonpayable",
      "type": "function"
    },
    {
      "inputs": [
        {
          "internalType": "address",
          "name": "owner",
          "type": "address"
        }
      ],
      "name": "balanceOf",
      "outputs": [
        {
          "internalType": "uint256",
          "name": "",
          "type": "uint256"
        }
      ],
      "stateMutability": "view",
      "type": "function"
    },
    {
      "inputs": [
        {
          "internalType": "uint256",
          "name": "tokenId",
          "type": "uint256"
        }
      ],
      "name": "buyNft",
      "outputs": [],
      "stateMutability": "payable",
      "type": "function"
    },
    {
      "inputs": [
        {
          "internalType": "string",
          "name": "tokenURI",
          "type": "string"
        },
        {
          "internalType": "uint256",
          "name": "price",
          "type": "uint256"
        },
        {
          "internalType": "uint256",
          "name": "royaltyFeeInBips",
          "type": "uint256"
        }
      ],
      "name": "createToken",
      "outputs": [
        {
          "internalType": "uint256",
          "name": "",
          "type": "uint256"
        }
      ],
      "stateMutability": "payable",
      "type": "function"
    },
    {
      "inputs": [],
      "name": "fetchMarket",
      "outputs": [
        {
          "components": [
            {
              "internalType": "uint256",
              "name": "tokenId",
              "type": "uint256"
            },
            {
              "internalType": "address payable",
              "name": "seller",
              "type": "address"
            },
            {
              "internalType": "address payable",
              "name": "owner",
              "type": "address"
            },
            {
              "internalType": "address payable",
              "name": "artist",
              "type": "address"
            },
            {
              "internalType": "uint256",
              "name": "price",
              "type": "uint256"
            },
            {
              "internalType": "uint256",
              "name": "royaltyFeeInBips",
              "type": "uint256"
            },
            {
              "internalType": "bool",
              "name": "sold",
              "type": "bool"
            }
          ],
          "internalType": "struct Metropolis.NFT[]",
          "name": "",
          "type": "tuple[]"
        }
      ],
      "stateMutability": "view",
      "type": "function"
    },
    {
      "inputs": [],
      "name": "fetchMyListings",
      "outputs": [
        {
          "components": [
            {
              "internalType": "uint256",
              "name": "tokenId",
              "type": "uint256"
            },
            {
              "internalType": "address payable",
              "name": "seller",
              "type": "address"
            },
            {
              "internalType": "address payable",
              "name": "owner",
              "type": "address"
            },
            {
              "internalType": "address payable",
              "name": "artist",
              "type": "address"
            },
            {
              "internalType": "uint256",
              "name": "price",
              "type": "uint256"
            },
            {
              "internalType": "uint256",
              "name": "royaltyFeeInBips",
              "type": "uint256"
            },
            {
              "internalType": "bool",
              "name": "sold",
              "type": "bool"
            }
          ],
          "internalType": "struct Metropolis.NFT[]",
          "name": "",
          "type": "tuple[]"
        }
      ],
      "stateMutability": "view",
      "type": "function"
    },
    {
      "inputs": [],
      "name": "fetchMyNFTs",
      "outputs": [
        {
          "components": [
            {
              "internalType": "uint256",
              "name": "tokenId",
              "type": "uint256"
            },
            {
              "internalType": "address payable",
              "name": "seller",
              "type": "address"
            },
            {
              "internalType": "address payable",
              "name": "owner",
              "type": "address"
            },
            {
              "internalType": "address payable",
              "name": "artist",
              "type": "address"
            },
            {
              "internalType": "uint256",
              "name": "price",
              "type": "uint256"
            },
            {
              "internalType": "uint256",
              "name": "royaltyFeeInBips",
              "type": "uint256"
            },
            {
              "internalType": "bool",
              "name": "sold",
              "type": "bool"
            }
          ],
          "internalType": "struct Metropolis.NFT[]",
          "name": "",
          "type": "tuple[]"
        }
      ],
      "stateMutability": "view",
      "type": "function"
    },
    {
      "inputs": [
        {
          "internalType": "uint256",
          "name": "tokenId",
          "type": "uint256"
        }
      ],
      "name": "getApproved",
      "outputs": [
        {
          "internalType": "address",
          "name": "",
          "type": "address"
        }
      ],
      "stateMutability": "view",
      "type": "function"
    },
    {
      "inputs": [
        {
          "internalType": "uint256",
          "name": "_salePrice",
          "type": "uint256"
        }
      ],
      "name": "getCommissionFee",
      "outputs": [
        {
          "internalType": "uint256",
          "name": "",
          "type": "uint256"
        }
      ],
      "stateMutability": "pure",
      "type": "function"
    },
    {
      "inputs": [
        {
          "internalType": "uint256",
          "name": "_salePrice",
          "type": "uint256"
        },
        {
          "internalType": "uint256",
          "name": "royaltyFeeInBips",
          "type": "uint256"
        }
      ],
      "name": "getRoyaltyFee",
      "outputs": [
        {
          "internalType": "uint256",
          "name": "",
          "type": "uint256"
        }
      ],
      "stateMutability": "pure",
      "type": "function"
    },
    {
      "inputs": [
        {
          "internalType": "address",
          "name": "owner",
          "type": "address"
        },
        {
          "internalType": "address",
          "name": "operator",
          "type": "address"
        }
      ],
      "name": "isApprovedForAll",
      "outputs": [
        {
          "internalType": "bool",
          "name": "",
          "type": "bool"
        }
      ],
      "stateMutability": "view",
      "type": "function"
    },
    {
      "inputs": [],
      "name": "name",
      "outputs": [
        {
          "internalType": "string",
          "name": "",
          "type": "string"
        }
      ],
      "stateMutability": "view",
      "type": "function"
    },
    {
      "inputs": [
        {
          "internalType": "uint256",
          "name": "tokenId",
          "type": "uint256"
        }
      ],
      "name": "ownerOf",
      "outputs": [
        {
          "internalType": "address",
          "name": "",
          "type": "address"
        }
      ],
      "stateMutability": "view",
      "type": "function"
    },
    {
      "inputs": [
        {
          "internalType": "uint256",
          "name": "tokenId",
          "type": "uint256"
        },
        {
          "internalType": "uint256",
          "name": "price",
          "type": "uint256"
        }
      ],
      "name": "resellNFTs",
      "outputs": [],
      "stateMutability": "payable",
      "type": "function"
    },
    {
      "inputs": [
        {
          "internalType": "address",
          "name": "from",
          "type": "address"
        },
        {
          "internalType": "address",
          "name": "to",
          "type": "address"
        },
        {
          "internalType": "uint256",
          "name": "tokenId",
          "type": "uint256"
        }
      ],
      "name": "safeTransferFrom",
      "outputs": [],
      "stateMutability": "nonpayable",
      "type": "function"
    },
    {
      "inputs": [
        {
          "internalType": "address",
          "name": "from",
          "type": "address"
        },
        {
          "internalType": "address",
          "name": "to",
          "type": "address"
        },
        {
          "internalType": "uint256",
          "name": "tokenId",
          "type": "uint256"
        },
        {
          "internalType": "bytes",
          "name": "data",
          "type": "bytes"
        }
      ],
      "name": "safeTransferFrom",
      "outputs": [],
      "stateMutability": "nonpayable",
      "type": "function"
    },
    {
      "inputs": [
        {
          "internalType": "address",
          "name": "operator",
          "type": "address"
        },
        {
          "internalType": "bool",
          "name": "approved",
          "type": "bool"
        }
      ],
      "name": "setApprovalForAll",
      "outputs": [],
      "stateMutability": "nonpayable",
      "type": "function"
    },
    {
      "inputs": [
        {
          "internalType": "bytes4",
          "name": "interfaceId",
          "type": "bytes4"
        }
      ],
      "name": "supportsInterface",
      "outputs": [
        {
          "internalType": "bool",
          "name": "",
          "type": "bool"
        }
      ],
      "stateMutability": "view",
      "type": "function"
    },
    {
      "inputs": [],
      "name": "symbol",
      "outputs": [
        {
          "internalType": "string",
          "name": "",
          "type": "string"
        }
      ],
      "stateMutability": "view",
      "type": "function"
    },
    {
      "inputs": [
        {
          "internalType": "uint256",
          "name": "tokenId",
          "type": "uint256"
        }
      ],
      "name": "tokenURI",
      "outputs": [
        {
          "internalType": "string",
          "name": "",
          "type": "string"
        }
      ],
      "stateMutability": "view",
      "type": "function"
    },
    {
      "inputs": [
        {
          "internalType": "address",
          "name": "from",
          "type": "address"
        },
        {
          "internalType": "address",
          "name": "to",
          "type": "address"
        },
        {
          "internalType": "uint256",
          "name": "tokenId",
          "type": "uint256"
        }
      ],
      "name": "transferFrom",
      "outputs": [],
      "stateMutability": "nonpayable",
      "type": "function"
    }
  ],
  "bytecode": "0x60806040523480156200001157600080fd5b506040518060400160405280600e81526020017f4d6574726f706f6c6973204e46540000000000000000000000000000000000008152506040518060400160405280600581526020017f4d4554524f00000000000000000000000000000000000000000000000000000081525081600090816200008f919062000365565b508060019081620000a1919062000365565b50505033600960006101000a81548173ffffffffffffffffffffffffffffffffffffffff021916908373ffffffffffffffffffffffffffffffffffffffff1602179055506200044c565b600081519050919050565b7f4e487b7100000000000000000000000000000000000000000000000000000000600052604160045260246000fd5b7f4e487b7100000000000000000000000000000000000000000000000000000000600052602260045260246000fd5b600060028204905060018216806200016d57607f821691505b60208210810362000183576200018262000125565b5b50919050565b60008190508160005260206000209050919050565b60006020601f8301049050919050565b600082821b905092915050565b600060088302620001ed7fffffffffffffffffffffffffffffffffffffffffffffffffffffffffffffffff82620001ae565b620001f98683620001ae565b95508019841693508086168417925050509392505050565b6000819050919050565b6000819050919050565b600062000246620002406200023a8462000211565b6200021b565b62000211565b9050919050565b6000819050919050565b620002628362000225565b6200027a62000271826200024d565b848454620001bb565b825550505050565b600090565b6200029162000282565b6200029e81848462000257565b505050565b5b81811015620002c657620002ba60008262000287565b600181019050620002a4565b5050565b601f8211156200031557620002df8162000189565b620002ea846200019e565b81016020851015620002fa578190505b6200031262000309856200019e565b830182620002a3565b50505b505050565b600082821c905092915050565b60006200033a600019846008026200031a565b1980831691505092915050565b600062000355838362000327565b9150826002028217905092915050565b6200037082620000eb565b67ffffffffffffffff8111156200038c576200038b620000f6565b5b62000398825462000154565b620003a5828285620002ca565b600060209050601f831160018114620003dd5760008415620003c8578287015190505b620003d4858262000347565b86555062000444565b601f198416620003ed8662000189565b60005b828110156200041757848901518255600182019150602085019450602081019050620003f0565b8683101562000437578489015162000433601f89168262000327565b8355505b6001600288020188555050505b505050505050565b614637806200045c6000396000f3fe60806040526004361061012a5760003560e01c80636352211e116100ab578063a22cb4651161006f578063a22cb465146103ea578063b6342bb414610413578063b88d4fde14610450578063bec2a7c514610479578063c87b56dd146104a9578063e985e9c5146104e65761012a565b80636352211e146102ec5780636b0f8b041461032957806370a082311461034557806377e587031461038257806395d89b41146103bf5761012a565b8063202e3740116100f2578063202e37401461022857806323b872dd14610253578063243adbdd1461027c5780633143ec871461029857806342842e0e146102c35761012a565b806301ffc9a71461012f57806306fdde031461016c578063081812fc14610197578063095ea7b3146101d457806315a70d8d146101fd575b600080fd5b34801561013b57600080fd5b5061015660048036038101906101519190612f6e565b610523565b6040516101639190612fb6565b60405180910390f35b34801561017857600080fd5b50610181610605565b60405161018e9190613061565b60405180910390f35b3480156101a357600080fd5b506101be60048036038101906101b991906130b9565b610697565b6040516101cb9190613127565b60405180910390f35b3480156101e057600080fd5b506101fb60048036038101906101f6919061316e565b6106dd565b005b34801561020957600080fd5b506102126107f4565b60405161021f919061332a565b60405180910390f35b34801561023457600080fd5b5061023d610b3e565b60405161024a919061332a565b60405180910390f35b34801561025f57600080fd5b5061027a6004803603810190610275919061334c565b610e88565b005b610296600480360381019061029191906130b9565b610ee8565b005b3480156102a457600080fd5b506102ad611370565b6040516102ba919061332a565b60405180910390f35b3480156102cf57600080fd5b506102ea60048036038101906102e5919061334c565b611637565b005b3480156102f857600080fd5b50610313600480360381019061030e91906130b9565b611657565b6040516103209190613127565b60405180910390f35b610343600480360381019061033e919061339f565b6116dd565b005b34801561035157600080fd5b5061036c600480360381019061036791906133df565b61188e565b604051610379919061341b565b60405180910390f35b34801561038e57600080fd5b506103a960048036038101906103a4919061339f565b611945565b6040516103b6919061341b565b60405180910390f35b3480156103cb57600080fd5b506103d4611968565b6040516103e19190613061565b60405180910390f35b3480156103f657600080fd5b50610411600480360381019061040c9190613462565b6119fa565b005b34801561041f57600080fd5b5061043a600480360381019061043591906130b9565b611a10565b604051610447919061341b565b60405180910390f35b34801561045c57600080fd5b50610477600480360381019061047291906135d7565b611a34565b005b610493600480360381019061048e91906136fb565b611a96565b6040516104a0919061341b565b60405180910390f35b3480156104b557600080fd5b506104d060048036038101906104cb91906130b9565b611ada565b6040516104dd9190613061565b60405180910390f35b3480156104f257600080fd5b5061050d6004803603810190610508919061376a565b611bec565b60405161051a9190612fb6565b60405180910390f35b60007f80ac58cd000000000000000000000000000000000000000000000000000000007bffffffffffffffffffffffffffffffffffffffffffffffffffffffff1916827bffffffffffffffffffffffffffffffffffffffffffffffffffffffff191614806105ee57507f5b5e139f000000000000000000000000000000000000000000000000000000007bffffffffffffffffffffffffffffffffffffffffffffffffffffffff1916827bffffffffffffffffffffffffffffffffffffffffffffffffffffffff1916145b806105fe57506105fd82611c80565b5b9050919050565b606060008054610614906137d9565b80601f0160208091040260200160405190810160405280929190818152602001828054610640906137d9565b801561068d5780601f106106625761010080835404028352916020019161068d565b820191906000526020600020905b81548152906001019060200180831161067057829003601f168201915b5050505050905090565b60006106a282611cea565b6004600083815260200190815260200160002060009054906101000a900473ffffffffffffffffffffffffffffffffffffffff169050919050565b60006106e882611657565b90508073ffffffffffffffffffffffffffffffffffffffff168373ffffffffffffffffffffffffffffffffffffffff1603610758576040517f08c379a000000000000000000000000000000000000000000000000000000000815260040161074f9061387c565b60405180910390fd5b8073ffffffffffffffffffffffffffffffffffffffff16610777611d35565b73ffffffffffffffffffffffffffffffffffffffff1614806107a657506107a5816107a0611d35565b611bec565b5b6107e5576040517f08c379a00000000000000000000000000000000000000000000000000000000081526004016107dc9061390e565b60405180910390fd5b6107ef8383611d3d565b505050565b606060006108026007611df6565b905060008060005b838110156108a9573373ffffffffffffffffffffffffffffffffffffffff16600a600060018461083a919061395d565b815260200190815260200160002060010160009054906101000a900473ffffffffffffffffffffffffffffffffffffffff1673ffffffffffffffffffffffffffffffffffffffff160361089657828061089290613991565b9350505b80806108a190613991565b91505061080a565b5060008267ffffffffffffffff8111156108c6576108c56134ac565b5b6040519080825280602002602001820160405280156108ff57816020015b6108ec612e81565b8152602001906001900390816108e45790505b50905060005b84811015610b33573373ffffffffffffffffffffffffffffffffffffffff16600a6000600184610935919061395d565b815260200190815260200160002060010160009054906101000a900473ffffffffffffffffffffffffffffffffffffffff1673ffffffffffffffffffffffffffffffffffffffff1603610b20576000600182610991919061395d565b90506000600a60008381526020019081526020016000209050806040518060e0016040529081600082015481526020016001820160009054906101000a900473ffffffffffffffffffffffffffffffffffffffff1673ffffffffffffffffffffffffffffffffffffffff1673ffffffffffffffffffffffffffffffffffffffff1681526020016002820160009054906101000a900473ffffffffffffffffffffffffffffffffffffffff1673ffffffffffffffffffffffffffffffffffffffff1673ffffffffffffffffffffffffffffffffffffffff1681526020016003820160009054906101000a900473ffffffffffffffffffffffffffffffffffffffff1673ffffffffffffffffffffffffffffffffffffffff1673ffffffffffffffffffffffffffffffffffffffff16815260200160048201548152602001600582015481526020016006820160009054906101000a900460ff161515151581525050848681518110610b0457610b036139d9565b5b60200260200101819052508480610b1a90613991565b95505050505b8080610b2b90613991565b915050610905565b508094505050505090565b60606000610b4c6007611df6565b905060008060005b83811015610bf3573373ffffffffffffffffffffffffffffffffffffffff16600a6000600184610b84919061395d565b815260200190815260200160002060020160009054906101000a900473ffffffffffffffffffffffffffffffffffffffff1673ffffffffffffffffffffffffffffffffffffffff1603610be0578280610bdc90613991565b9350505b8080610beb90613991565b915050610b54565b5060008267ffffffffffffffff811115610c1057610c0f6134ac565b5b604051908082528060200260200182016040528015610c4957816020015b610c36612e81565b815260200190600190039081610c2e5790505b50905060005b84811015610e7d573373ffffffffffffffffffffffffffffffffffffffff16600a6000600184610c7f919061395d565b815260200190815260200160002060020160009054906101000a900473ffffffffffffffffffffffffffffffffffffffff1673ffffffffffffffffffffffffffffffffffffffff1603610e6a576000600182610cdb919061395d565b90506000600a60008381526020019081526020016000209050806040518060e0016040529081600082015481526020016001820160009054906101000a900473ffffffffffffffffffffffffffffffffffffffff1673ffffffffffffffffffffffffffffffffffffffff1673ffffffffffffffffffffffffffffffffffffffff1681526020016002820160009054906101000a900473ffffffffffffffffffffffffffffffffffffffff1673ffffffffffffffffffffffffffffffffffffffff1673ffffffffffffffffffffffffffffffffffffffff1681526020016003820160009054906101000a900473ffffffffffffffffffffffffffffffffffffffff1673ffffffffffffffffffffffffffffffffffffffff1673ffffffffffffffffffffffffffffffffffffffff16815260200160048201548152602001600582015481526020016006820160009054906101000a900460ff161515151581525050848681518110610e4e57610e4d6139d9565b5b60200260200101819052508480610e6490613991565b95505050505b8080610e7590613991565b915050610c4f565b508094505050505090565b610e99610e93611d35565b82611e04565b610ed8576040517f08c379a0000000000000000000000000000000000000000000000000000000008152600401610ecf90613a7a565b60405180910390fd5b610ee3838383611e99565b505050565b6000600a60008381526020019081526020016000206004015490506000600a60008481526020019081526020016000206005015490506000600a600085815260200190815260200160002060010160009054906101000a900473ffffffffffffffffffffffffffffffffffffffff1690506000600a600086815260200190815260200160002060030160009054906101000a900473ffffffffffffffffffffffffffffffffffffffff169050833414610fd6576040517f08c379a0000000000000000000000000000000000000000000000000000000008152600401610fcd90613b0c565b60405180910390fd5b33600a600087815260200190815260200160002060020160006101000a81548173ffffffffffffffffffffffffffffffffffffffff021916908373ffffffffffffffffffffffffffffffffffffffff1602179055506001600a600087815260200190815260200160002060060160006101000a81548160ff0219169083151502179055506000600a600087815260200190815260200160002060010160006101000a81548173ffffffffffffffffffffffffffffffffffffffff021916908373ffffffffffffffffffffffffffffffffffffffff1602179055506110ba6008612192565b6110c5303387611e99565b600a600086815260200190815260200160002060030160009054906101000a900473ffffffffffffffffffffffffffffffffffffffff1673ffffffffffffffffffffffffffffffffffffffff16600a600087815260200190815260200160002060010160009054906101000a900473ffffffffffffffffffffffffffffffffffffffff1673ffffffffffffffffffffffffffffffffffffffff160361123857600061116f85611a10565b90506000813461117f9190613b2c565b9050600960009054906101000a900473ffffffffffffffffffffffffffffffffffffffff1673ffffffffffffffffffffffffffffffffffffffff166108fc839081150290604051600060405180830381858888f193505050501580156111e9573d6000803e3d6000fd5b508373ffffffffffffffffffffffffffffffffffffffff166108fc829081150290604051600060405180830381858888f19350505050158015611230573d6000803e3d6000fd5b505050611369565b600061124385611a10565b905060006112518686611945565b905060008183611261919061395d565b3461126c9190613b2c565b90508373ffffffffffffffffffffffffffffffffffffffff166108fc839081150290604051600060405180830381858888f193505050501580156112b4573d6000803e3d6000fd5b50600960009054906101000a900473ffffffffffffffffffffffffffffffffffffffff1673ffffffffffffffffffffffffffffffffffffffff166108fc849081150290604051600060405180830381858888f1935050505015801561131d573d6000803e3d6000fd5b508473ffffffffffffffffffffffffffffffffffffffff166108fc829081150290604051600060405180830381858888f19350505050158015611364573d6000803e3d6000fd5b505050505b5050505050565b6060600061137e6007611df6565b9050600061138c6008611df6565b6113966007611df6565b6113a09190613b2c565b90506000808267ffffffffffffffff8111156113bf576113be6134ac565b5b6040519080825280602002602001820160405280156113f857816020015b6113e5612e81565b8152602001906001900390816113dd5790505b50905060005b8481101561162c573073ffffffffffffffffffffffffffffffffffffffff16600a600060018461142e919061395d565b815260200190815260200160002060020160009054906101000a900473ffffffffffffffffffffffffffffffffffffffff1673ffffffffffffffffffffffffffffffffffffffff160361161957600060018261148a919061395d565b90506000600a60008381526020019081526020016000209050806040518060e0016040529081600082015481526020016001820160009054906101000a900473ffffffffffffffffffffffffffffffffffffffff1673ffffffffffffffffffffffffffffffffffffffff1673ffffffffffffffffffffffffffffffffffffffff1681526020016002820160009054906101000a900473ffffffffffffffffffffffffffffffffffffffff1673ffffffffffffffffffffffffffffffffffffffff1673ffffffffffffffffffffffffffffffffffffffff1681526020016003820160009054906101000a900473ffffffffffffffffffffffffffffffffffffffff1673ffffffffffffffffffffffffffffffffffffffff1673ffffffffffffffffffffffffffffffffffffffff16815260200160048201548152602001600582015481526020016006820160009054906101000a900460ff1615151515815250508486815181106115fd576115fc6139d9565b5b6020026020010181905250848061161390613991565b95505050505b808061162490613991565b9150506113fe565b508094505050505090565b61165283838360405180602001604052806000815250611a34565b505050565b600080611663836121a8565b9050600073ffffffffffffffffffffffffffffffffffffffff168173ffffffffffffffffffffffffffffffffffffffff16036116d4576040517f08c379a00000000000000000000000000000000000000000000000000000000081526004016116cb90613bac565b60405180910390fd5b80915050919050565b3373ffffffffffffffffffffffffffffffffffffffff16600a600084815260200190815260200160002060020160009054906101000a900473ffffffffffffffffffffffffffffffffffffffff1673ffffffffffffffffffffffffffffffffffffffff1614611781576040517f08c379a000000000000000000000000000000000000000000000000000000000815260040161177890613c18565b60405180910390fd5b30600a600084815260200190815260200160002060020160006101000a81548173ffffffffffffffffffffffffffffffffffffffff021916908373ffffffffffffffffffffffffffffffffffffffff1602179055506000600a600084815260200190815260200160002060060160006101000a81548160ff02191690831515021790555033600a600084815260200190815260200160002060010160006101000a81548173ffffffffffffffffffffffffffffffffffffffff021916908373ffffffffffffffffffffffffffffffffffffffff16021790555080600a60008481526020019081526020016000206004018190555061187f60086121e5565b61188a333084611e99565b5050565b60008073ffffffffffffffffffffffffffffffffffffffff168273ffffffffffffffffffffffffffffffffffffffff16036118fe576040517f08c379a00000000000000000000000000000000000000000000000000000000081526004016118f590613caa565b60405180910390fd5b600360008373ffffffffffffffffffffffffffffffffffffffff1673ffffffffffffffffffffffffffffffffffffffff168152602001908152602001600020549050919050565b600081612710846119569190613cf9565b6119609190613d2a565b905092915050565b606060018054611977906137d9565b80601f01602080910402602001604051908101604052809291908181526020018280546119a3906137d9565b80156119f05780601f106119c5576101008083540402835291602001916119f0565b820191906000526020600020905b8154815290600101906020018083116119d357829003601f168201915b5050505050905090565b611a0c611a05611d35565b8383612241565b5050565b600061012c61271083611a239190613cf9565b611a2d9190613d2a565b9050919050565b611a45611a3f611d35565b83611e04565b611a84576040517f08c379a0000000000000000000000000000000000000000000000000000000008152600401611a7b90613a7a565b60405180910390fd5b611a90848484846123ad565b50505050565b6000611aa26007612192565b6000611aae6007611df6565b9050611aba3382612409565b611ac48186612626565b611acf818585612693565b809150509392505050565b6060611ae582611cea565b6000600660008481526020019081526020016000208054611b05906137d9565b80601f0160208091040260200160405190810160405280929190818152602001828054611b31906137d9565b8015611b7e5780601f10611b5357610100808354040283529160200191611b7e565b820191906000526020600020905b815481529060010190602001808311611b6157829003601f168201915b505050505090506000611b8f6128ca565b90506000815103611ba4578192505050611be7565b600082511115611bd9578082604051602001611bc1929190613da8565b60405160208183030381529060405292505050611be7565b611be2846128e1565b925050505b919050565b6000600560008473ffffffffffffffffffffffffffffffffffffffff1673ffffffffffffffffffffffffffffffffffffffff16815260200190815260200160002060008373ffffffffffffffffffffffffffffffffffffffff1673ffffffffffffffffffffffffffffffffffffffff16815260200190815260200160002060009054906101000a900460ff16905092915050565b60007f01ffc9a7000000000000000000000000000000000000000000000000000000007bffffffffffffffffffffffffffffffffffffffffffffffffffffffff1916827bffffffffffffffffffffffffffffffffffffffffffffffffffffffff1916149050919050565b611cf381612949565b611d32576040517f08c379a0000000000000000000000000000000000000000000000000000000008152600401611d2990613bac565b60405180910390fd5b50565b600033905090565b816004600083815260200190815260200160002060006101000a81548173ffffffffffffffffffffffffffffffffffffffff021916908373ffffffffffffffffffffffffffffffffffffffff160217905550808273ffffffffffffffffffffffffffffffffffffffff16611db083611657565b73ffffffffffffffffffffffffffffffffffffffff167f8c5be1e5ebec7d5bd14f71427d1e84f3dd0314c0f7b2291e5b200ac8c7c3b92560405160405180910390a45050565b600081600001549050919050565b600080611e1083611657565b90508073ffffffffffffffffffffffffffffffffffffffff168473ffffffffffffffffffffffffffffffffffffffff161480611e525750611e518185611bec565b5b80611e9057508373ffffffffffffffffffffffffffffffffffffffff16611e7884610697565b73ffffffffffffffffffffffffffffffffffffffff16145b91505092915050565b8273ffffffffffffffffffffffffffffffffffffffff16611eb982611657565b73ffffffffffffffffffffffffffffffffffffffff1614611f0f576040517f08c379a0000000000000000000000000000000000000000000000000000000008152600401611f0690613e3e565b60405180910390fd5b600073ffffffffffffffffffffffffffffffffffffffff168273ffffffffffffffffffffffffffffffffffffffff1603611f7e576040517f08c379a0000000000000000000000000000000000000000000000000000000008152600401611f7590613ed0565b60405180910390fd5b611f8b838383600161298a565b8273ffffffffffffffffffffffffffffffffffffffff16611fab82611657565b73ffffffffffffffffffffffffffffffffffffffff1614612001576040517f08c379a0000000000000000000000000000000000000000000000000000000008152600401611ff890613e3e565b60405180910390fd5b6004600082815260200190815260200160002060006101000a81549073ffffffffffffffffffffffffffffffffffffffff02191690556001600360008573ffffffffffffffffffffffffffffffffffffffff1673ffffffffffffffffffffffffffffffffffffffff168152602001908152602001600020600082825403925050819055506001600360008473ffffffffffffffffffffffffffffffffffffffff1673ffffffffffffffffffffffffffffffffffffffff16815260200190815260200160002060008282540192505081905550816002600083815260200190815260200160002060006101000a81548173ffffffffffffffffffffffffffffffffffffffff021916908373ffffffffffffffffffffffffffffffffffffffff160217905550808273ffffffffffffffffffffffffffffffffffffffff168473ffffffffffffffffffffffffffffffffffffffff167fddf252ad1be2c89b69c2b068fc378daa952ba7f163c4a11628f55a4df523b3ef60405160405180910390a461218d8383836001612ab0565b505050565b6001816000016000828254019250508190555050565b60006002600083815260200190815260200160002060009054906101000a900473ffffffffffffffffffffffffffffffffffffffff169050919050565b60008160000154905060008111612231576040517f08c379a000000000000000000000000000000000000000000000000000000000815260040161222890613f3c565b60405180910390fd5b6001810382600001819055505050565b8173ffffffffffffffffffffffffffffffffffffffff168373ffffffffffffffffffffffffffffffffffffffff16036122af576040517f08c379a00000000000000000000000000000000000000000000000000000000081526004016122a690613fa8565b60405180910390fd5b80600560008573ffffffffffffffffffffffffffffffffffffffff1673ffffffffffffffffffffffffffffffffffffffff16815260200190815260200160002060008473ffffffffffffffffffffffffffffffffffffffff1673ffffffffffffffffffffffffffffffffffffffff16815260200190815260200160002060006101000a81548160ff0219169083151502179055508173ffffffffffffffffffffffffffffffffffffffff168373ffffffffffffffffffffffffffffffffffffffff167f17307eab39ab6107e8899845ad3d59bd9653f200f220920489ca2b5937696c31836040516123a09190612fb6565b60405180910390a3505050565b6123b8848484611e99565b6123c484848484612ab6565b612403576040517f08c379a00000000000000000000000000000000000000000000000000000000081526004016123fa9061403a565b60405180910390fd5b50505050565b600073ffffffffffffffffffffffffffffffffffffffff168273ffffffffffffffffffffffffffffffffffffffff1603612478576040517f08c379a000000000000000000000000000000000000000000000000000000000815260040161246f906140a6565b60405180910390fd5b61248181612949565b156124c1576040517f08c379a00000000000000000000000000000000000000000000000000000000081526004016124b890614112565b60405180910390fd5b6124cf60008383600161298a565b6124d881612949565b15612518576040517f08c379a000000000000000000000000000000000000000000000000000000000815260040161250f90614112565b60405180910390fd5b6001600360008473ffffffffffffffffffffffffffffffffffffffff1673ffffffffffffffffffffffffffffffffffffffff16815260200190815260200160002060008282540192505081905550816002600083815260200190815260200160002060006101000a81548173ffffffffffffffffffffffffffffffffffffffff021916908373ffffffffffffffffffffffffffffffffffffffff160217905550808273ffffffffffffffffffffffffffffffffffffffff16600073ffffffffffffffffffffffffffffffffffffffff167fddf252ad1be2c89b69c2b068fc378daa952ba7f163c4a11628f55a4df523b3ef60405160405180910390a4612622600083836001612ab0565b5050565b61262f82612949565b61266e576040517f08c379a0000000000000000000000000000000000000000000000000000000008152600401612665906141a4565b60405180910390fd5b8060066000848152602001908152602001600020908161268e9190614370565b505050565b600082116126d6576040517f08c379a00000000000000000000000000000000000000000000000000000000081526004016126cd9061448e565b60405180910390fd5b6040518060e001604052808481526020013373ffffffffffffffffffffffffffffffffffffffff1681526020013073ffffffffffffffffffffffffffffffffffffffff1681526020013373ffffffffffffffffffffffffffffffffffffffff16815260200183815260200182815260200160001515815250600a60008581526020019081526020016000206000820151816000015560208201518160010160006101000a81548173ffffffffffffffffffffffffffffffffffffffff021916908373ffffffffffffffffffffffffffffffffffffffff16021790555060408201518160020160006101000a81548173ffffffffffffffffffffffffffffffffffffffff021916908373ffffffffffffffffffffffffffffffffffffffff16021790555060608201518160030160006101000a81548173ffffffffffffffffffffffffffffffffffffffff021916908373ffffffffffffffffffffffffffffffffffffffff1602179055506080820151816004015560a0820151816005015560c08201518160060160006101000a81548160ff021916908315150217905550905050612882333085611e99565b827f57bc5db4260382b0aa84042772478b244fd59a2fa4988fcc77e2d7c0d09dec70333033868660006040516128bd969594939291906144bd565b60405180910390a2505050565b606060405180602001604052806000815250905090565b60606128ec82611cea565b60006128f66128ca565b905060008151116129165760405180602001604052806000815250612941565b8061292084612c3d565b604051602001612931929190613da8565b6040516020818303038152906040525b915050919050565b60008073ffffffffffffffffffffffffffffffffffffffff1661296b836121a8565b73ffffffffffffffffffffffffffffffffffffffff1614159050919050565b6001811115612aaa57600073ffffffffffffffffffffffffffffffffffffffff168473ffffffffffffffffffffffffffffffffffffffff1614612a1e5780600360008673ffffffffffffffffffffffffffffffffffffffff1673ffffffffffffffffffffffffffffffffffffffff1681526020019081526020016000206000828254612a169190613b2c565b925050819055505b600073ffffffffffffffffffffffffffffffffffffffff168373ffffffffffffffffffffffffffffffffffffffff1614612aa95780600360008573ffffffffffffffffffffffffffffffffffffffff1673ffffffffffffffffffffffffffffffffffffffff1681526020019081526020016000206000828254612aa1919061395d565b925050819055505b5b50505050565b50505050565b6000612ad78473ffffffffffffffffffffffffffffffffffffffff16612d0b565b15612c30578373ffffffffffffffffffffffffffffffffffffffff1663150b7a02612b00611d35565b8786866040518563ffffffff1660e01b8152600401612b229493929190614573565b6020604051808303816000875af1925050508015612b5e57506040513d601f19601f82011682018060405250810190612b5b91906145d4565b60015b612be0573d8060008114612b8e576040519150601f19603f3d011682016040523d82523d6000602084013e612b93565b606091505b506000815103612bd8576040517f08c379a0000000000000000000000000000000000000000000000000000000008152600401612bcf9061403a565b60405180910390fd5b805181602001fd5b63150b7a0260e01b7bffffffffffffffffffffffffffffffffffffffffffffffffffffffff1916817bffffffffffffffffffffffffffffffffffffffffffffffffffffffff191614915050612c35565b600190505b949350505050565b606060006001612c4c84612d2e565b01905060008167ffffffffffffffff811115612c6b57612c6a6134ac565b5b6040519080825280601f01601f191660200182016040528015612c9d5781602001600182028036833780820191505090505b509050600082602001820190505b600115612d00578080600190039150507f3031323334353637383961626364656600000000000000000000000000000000600a86061a8153600a8581612cf457612cf3613cca565b5b04945060008503612cab575b819350505050919050565b6000808273ffffffffffffffffffffffffffffffffffffffff163b119050919050565b600080600090507a184f03e93ff9f4daa797ed6e38ed64bf6a1f0100000000000000008310612d8c577a184f03e93ff9f4daa797ed6e38ed64bf6a1f0100000000000000008381612d8257612d81613cca565b5b0492506040810190505b6d04ee2d6d415b85acef81000000008310612dc9576d04ee2d6d415b85acef81000000008381612dbf57612dbe613cca565b5b0492506020810190505b662386f26fc100008310612df857662386f26fc100008381612dee57612ded613cca565b5b0492506010810190505b6305f5e1008310612e21576305f5e1008381612e1757612e16613cca565b5b0492506008810190505b6127108310612e46576127108381612e3c57612e3b613cca565b5b0492506004810190505b60648310612e695760648381612e5f57612e5e613cca565b5b0492506002810190505b600a8310612e78576001810190505b80915050919050565b6040518060e0016040528060008152602001600073ffffffffffffffffffffffffffffffffffffffff168152602001600073ffffffffffffffffffffffffffffffffffffffff168152602001600073ffffffffffffffffffffffffffffffffffffffff16815260200160008152602001600081526020016000151581525090565b6000604051905090565b600080fd5b600080fd5b60007fffffffff0000000000000000000000000000000000000000000000000000000082169050919050565b612f4b81612f16565b8114612f5657600080fd5b50565b600081359050612f6881612f42565b92915050565b600060208284031215612f8457612f83612f0c565b5b6000612f9284828501612f59565b91505092915050565b60008115159050919050565b612fb081612f9b565b82525050565b6000602082019050612fcb6000830184612fa7565b92915050565b600081519050919050565b600082825260208201905092915050565b60005b8381101561300b578082015181840152602081019050612ff0565b60008484015250505050565b6000601f19601f8301169050919050565b600061303382612fd1565b61303d8185612fdc565b935061304d818560208601612fed565b61305681613017565b840191505092915050565b6000602082019050818103600083015261307b8184613028565b905092915050565b6000819050919050565b61309681613083565b81146130a157600080fd5b50565b6000813590506130b38161308d565b92915050565b6000602082840312156130cf576130ce612f0c565b5b60006130dd848285016130a4565b91505092915050565b600073ffffffffffffffffffffffffffffffffffffffff82169050919050565b6000613111826130e6565b9050919050565b61312181613106565b82525050565b600060208201905061313c6000830184613118565b92915050565b61314b81613106565b811461315657600080fd5b50565b60008135905061316881613142565b92915050565b6000806040838503121561318557613184612f0c565b5b600061319385828601613159565b92505060206131a4858286016130a4565b9150509250929050565b600081519050919050565b600082825260208201905092915050565b6000819050602082019050919050565b6131e381613083565b82525050565b60006131f4826130e6565b9050919050565b613204816131e9565b82525050565b61321381612f9b565b82525050565b60e08201600082015161322f60008501826131da565b50602082015161324260208501826131fb565b50604082015161325560408501826131fb565b50606082015161326860608501826131fb565b50608082015161327b60808501826131da565b5060a082015161328e60a08501826131da565b5060c08201516132a160c085018261320a565b50505050565b60006132b38383613219565b60e08301905092915050565b6000602082019050919050565b60006132d7826131ae565b6132e181856131b9565b93506132ec836131ca565b8060005b8381101561331d57815161330488826132a7565b975061330f836132bf565b9250506001810190506132f0565b5085935050505092915050565b6000602082019050818103600083015261334481846132cc565b905092915050565b60008060006060848603121561336557613364612f0c565b5b600061337386828701613159565b935050602061338486828701613159565b9250506040613395868287016130a4565b9150509250925092565b600080604083850312156133b6576133b5612f0c565b5b60006133c4858286016130a4565b92505060206133d5858286016130a4565b9150509250929050565b6000602082840312156133f5576133f4612f0c565b5b600061340384828501613159565b91505092915050565b61341581613083565b82525050565b6000602082019050613430600083018461340c565b92915050565b61343f81612f9b565b811461344a57600080fd5b50565b60008135905061345c81613436565b92915050565b6000806040838503121561347957613478612f0c565b5b600061348785828601613159565b92505060206134988582860161344d565b9150509250929050565b600080fd5b600080fd5b7f4e487b7100000000000000000000000000000000000000000000000000000000600052604160045260246000fd5b6134e482613017565b810181811067ffffffffffffffff82111715613503576135026134ac565b5b80604052505050565b6000613516612f02565b905061352282826134db565b919050565b600067ffffffffffffffff821115613542576135416134ac565b5b61354b82613017565b9050602081019050919050565b82818337600083830152505050565b600061357a61357584613527565b61350c565b905082815260208101848484011115613596576135956134a7565b5b6135a1848285613558565b509392505050565b600082601f8301126135be576135bd6134a2565b5b81356135ce848260208601613567565b91505092915050565b600080600080608085870312156135f1576135f0612f0c565b5b60006135ff87828801613159565b945050602061361087828801613159565b9350506040613621878288016130a4565b925050606085013567ffffffffffffffff81111561364257613641612f11565b5b61364e878288016135a9565b91505092959194509250565b600067ffffffffffffffff821115613675576136746134ac565b5b61367e82613017565b9050602081019050919050565b600061369e6136998461365a565b61350c565b9050828152602081018484840111156136ba576136b96134a7565b5b6136c5848285613558565b509392505050565b600082601f8301126136e2576136e16134a2565b5b81356136f284826020860161368b565b91505092915050565b60008060006060848603121561371457613713612f0c565b5b600084013567ffffffffffffffff81111561373257613731612f11565b5b61373e868287016136cd565b935050602061374f868287016130a4565b9250506040613760868287016130a4565b9150509250925092565b6000806040838503121561378157613780612f0c565b5b600061378f85828601613159565b92505060206137a085828601613159565b9150509250929050565b7f4e487b7100000000000000000000000000000000000000000000000000000000600052602260045260246000fd5b600060028204905060018216806137f157607f821691505b602082108103613804576138036137aa565b5b50919050565b7f4552433732313a20617070726f76616c20746f2063757272656e74206f776e6560008201527f7200000000000000000000000000000000000000000000000000000000000000602082015250565b6000613866602183612fdc565b91506138718261380a565b604082019050919050565b6000602082019050818103600083015261389581613859565b9050919050565b7f4552433732313a20617070726f76652063616c6c6572206973206e6f7420746f60008201527f6b656e206f776e6572206f7220617070726f76656420666f7220616c6c000000602082015250565b60006138f8603d83612fdc565b91506139038261389c565b604082019050919050565b60006020820190508181036000830152613927816138eb565b9050919050565b7f4e487b7100000000000000000000000000000000000000000000000000000000600052601160045260246000fd5b600061396882613083565b915061397383613083565b925082820190508082111561398b5761398a61392e565b5b92915050565b600061399c82613083565b91507fffffffffffffffffffffffffffffffffffffffffffffffffffffffffffffffff82036139ce576139cd61392e565b5b600182019050919050565b7f4e487b7100000000000000000000000000000000000000000000000000000000600052603260045260246000fd5b7f4552433732313a2063616c6c6572206973206e6f7420746f6b656e206f776e6560008201527f72206f7220617070726f76656400000000000000000000000000000000000000602082015250565b6000613a64602d83612fdc565b9150613a6f82613a08565b604082019050919050565b60006020820190508181036000830152613a9381613a57565b9050919050565b7f5375626d6974746564207072696365206e6f7420657175616c20746f204e465460008201527f2070726963652e00000000000000000000000000000000000000000000000000602082015250565b6000613af6602783612fdc565b9150613b0182613a9a565b604082019050919050565b60006020820190508181036000830152613b2581613ae9565b9050919050565b6000613b3782613083565b9150613b4283613083565b9250828203905081811115613b5a57613b5961392e565b5b92915050565b7f4552433732313a20696e76616c696420746f6b656e2049440000000000000000600082015250565b6000613b96601883612fdc565b9150613ba182613b60565b602082019050919050565b60006020820190508181036000830152613bc581613b89565b9050919050565b7f596f7520617265206e6f74206f776e6572206f662074686973204e4654000000600082015250565b6000613c02601d83612fdc565b9150613c0d82613bcc565b602082019050919050565b60006020820190508181036000830152613c3181613bf5565b9050919050565b7f4552433732313a2061646472657373207a65726f206973206e6f74206120766160008201527f6c6964206f776e65720000000000000000000000000000000000000000000000602082015250565b6000613c94602983612fdc565b9150613c9f82613c38565b604082019050919050565b60006020820190508181036000830152613cc381613c87565b9050919050565b7f4e487b7100000000000000000000000000000000000000000000000000000000600052601260045260246000fd5b6000613d0482613083565b9150613d0f83613083565b925082613d1f57613d1e613cca565b5b828204905092915050565b6000613d3582613083565b9150613d4083613083565b9250828202613d4e81613083565b91508282048414831517613d6557613d6461392e565b5b5092915050565b600081905092915050565b6000613d8282612fd1565b613d8c8185613d6c565b9350613d9c818560208601612fed565b80840191505092915050565b6000613db48285613d77565b9150613dc08284613d77565b91508190509392505050565b7f4552433732313a207472616e736665722066726f6d20696e636f72726563742060008201527f6f776e6572000000000000000000000000000000000000000000000000000000602082015250565b6000613e28602583612fdc565b9150613e3382613dcc565b604082019050919050565b60006020820190508181036000830152613e5781613e1b565b9050919050565b7f4552433732313a207472616e7366657220746f20746865207a65726f2061646460008201527f7265737300000000000000000000000000000000000000000000000000000000602082015250565b6000613eba602483612fdc565b9150613ec582613e5e565b604082019050919050565b60006020820190508181036000830152613ee981613ead565b9050919050565b7f436f756e7465723a2064656372656d656e74206f766572666c6f770000000000600082015250565b6000613f26601b83612fdc565b9150613f3182613ef0565b602082019050919050565b60006020820190508181036000830152613f5581613f19565b9050919050565b7f4552433732313a20617070726f766520746f2063616c6c657200000000000000600082015250565b6000613f92601983612fdc565b9150613f9d82613f5c565b602082019050919050565b60006020820190508181036000830152613fc181613f85565b9050919050565b7f4552433732313a207472616e7366657220746f206e6f6e20455243373231526560008201527f63656976657220696d706c656d656e7465720000000000000000000000000000602082015250565b6000614024603283612fdc565b915061402f82613fc8565b604082019050919050565b6000602082019050818103600083015261405381614017565b9050919050565b7f4552433732313a206d696e7420746f20746865207a65726f2061646472657373600082015250565b6000614090602083612fdc565b915061409b8261405a565b602082019050919050565b600060208201905081810360008301526140bf81614083565b9050919050565b7f4552433732313a20746f6b656e20616c7265616479206d696e74656400000000600082015250565b60006140fc601c83612fdc565b9150614107826140c6565b602082019050919050565b6000602082019050818103600083015261412b816140ef565b9050919050565b7f45524337323155524953746f726167653a2055524920736574206f66206e6f6e60008201527f6578697374656e7420746f6b656e000000000000000000000000000000000000602082015250565b600061418e602e83612fdc565b915061419982614132565b604082019050919050565b600060208201905081810360008301526141bd81614181565b9050919050565b60008190508160005260206000209050919050565b60006020601f8301049050919050565b600082821b905092915050565b6000600883026142267fffffffffffffffffffffffffffffffffffffffffffffffffffffffffffffffff826141e9565b61423086836141e9565b95508019841693508086168417925050509392505050565b6000819050919050565b600061426d61426861426384613083565b614248565b613083565b9050919050565b6000819050919050565b61428783614252565b61429b61429382614274565b8484546141f6565b825550505050565b600090565b6142b06142a3565b6142bb81848461427e565b505050565b5b818110156142df576142d46000826142a8565b6001810190506142c1565b5050565b601f821115614324576142f5816141c4565b6142fe846141d9565b8101602085101561430d578190505b614321614319856141d9565b8301826142c0565b50505b505050565b600082821c905092915050565b600061434760001984600802614329565b1980831691505092915050565b60006143608383614336565b9150826002028217905092915050565b61437982612fd1565b67ffffffffffffffff811115614392576143916134ac565b5b61439c82546137d9565b6143a78282856142e3565b600060209050601f8311600181146143da57600084156143c8578287015190505b6143d28582614354565b86555061443a565b601f1984166143e8866141c4565b60005b82811015614410578489015182556001820191506020850194506020810190506143eb565b8683101561442d5784890151614429601f891682614336565b8355505b6001600288020188555050505b505050505050565b7f50726963652063616e2774206265207a65726f2e000000000000000000000000600082015250565b6000614478601483612fdc565b915061448382614442565b602082019050919050565b600060208201905081810360008301526144a78161446b565b9050919050565b6144b7816131e9565b82525050565b600060c0820190506144d260008301896144ae565b6144df60208301886144ae565b6144ec60408301876144ae565b6144f9606083018661340c565b614506608083018561340c565b61451360a0830184612fa7565b979650505050505050565b600081519050919050565b600082825260208201905092915050565b60006145458261451e565b61454f8185614529565b935061455f818560208601612fed565b61456881613017565b840191505092915050565b60006080820190506145886000830187613118565b6145956020830186613118565b6145a2604083018561340c565b81810360608301526145b4818461453a565b905095945050505050565b6000815190506145ce81612f42565b92915050565b6000602082840312156145ea576145e9612f0c565b5b60006145f8848285016145bf565b9150509291505056fea2646970667358221220468c36b48bcd8ad6f299f52fae8e055a1d584a3ec404be64b6c8dbe0735bc34064736f6c63430008110033",
  "linkReferences": {},
  "deployedLinkReferences": {}
}