{
  "_format": "hh-sol-artifact-1",
  "contractName": "Metropolis",
  "sourceName": "contracts/metropolis.sol",
  "abi": [
    {
      "inputs": [],
      "stateMutability": "nonpayable",
      "type": "constructor"
    },
    {
      "anonymous": false,
      "inputs": [
        {
          "indexed": true,
          "internalType": "address",
          "name": "owner",
          "type": "address"
        },
        {
          "indexed": true,
          "internalType": "address",
          "name": "approved",
          "type": "address"
        },
        {
          "indexed": true,
          "internalType": "uint256",
          "name": "tokenId",
          "type": "uint256"
        }
      ],
      "name": "Approval",
      "type": "event"
    },
    {
      "anonymous": false,
      "inputs": [
        {
          "indexed": true,
          "internalType": "address",
          "name": "owner",
          "type": "address"
        },
        {
          "indexed": true,
          "internalType": "address",
          "name": "operator",
          "type": "address"
        },
        {
          "indexed": false,
          "internalType": "bool",
          "name": "approved",
          "type": "bool"
        }
      ],
      "name": "ApprovalForAll",
      "type": "event"
    },
    {
      "anonymous": false,
      "inputs": [
        {
          "indexed": true,
          "internalType": "bytes32",
          "name": "id",
          "type": "bytes32"
        }
      ],
      "name": "ChainlinkCancelled",
      "type": "event"
    },
    {
      "anonymous": false,
      "inputs": [
        {
          "indexed": true,
          "internalType": "bytes32",
          "name": "id",
          "type": "bytes32"
        }
      ],
      "name": "ChainlinkFulfilled",
      "type": "event"
    },
    {
      "anonymous": false,
      "inputs": [
        {
          "indexed": true,
          "internalType": "bytes32",
          "name": "id",
          "type": "bytes32"
        }
      ],
      "name": "ChainlinkRequested",
      "type": "event"
    },
    {
      "anonymous": false,
      "inputs": [
        {
          "indexed": true,
          "internalType": "address",
          "name": "from",
          "type": "address"
        },
        {
          "indexed": true,
          "internalType": "address",
          "name": "to",
          "type": "address"
        },
        {
          "indexed": true,
          "internalType": "uint256",
          "name": "tokenId",
          "type": "uint256"
        }
      ],
      "name": "Transfer",
      "type": "event"
    },
    {
      "anonymous": false,
      "inputs": [
        {
          "indexed": true,
          "internalType": "uint256",
          "name": "tokenId",
          "type": "uint256"
        },
        {
          "indexed": false,
          "internalType": "address payable",
          "name": "seller",
          "type": "address"
        },
        {
          "indexed": false,
          "internalType": "address payable",
          "name": "owner",
          "type": "address"
        },
        {
          "indexed": false,
          "internalType": "address payable",
          "name": "artist",
          "type": "address"
        },
        {
          "indexed": false,
          "internalType": "uint256",
          "name": "price",
          "type": "uint256"
        },
        {
          "indexed": false,
          "internalType": "uint256",
          "name": "royaltyFeeInBips",
          "type": "uint256"
        },
        {
          "indexed": false,
          "internalType": "bool",
          "name": "sold",
          "type": "bool"
        }
      ],
      "name": "nftCreated",
      "type": "event"
    },
    {
      "inputs": [
        {
          "internalType": "address",
          "name": "to",
          "type": "address"
        },
        {
          "internalType": "uint256",
          "name": "tokenId",
          "type": "uint256"
        }
      ],
      "name": "approve",
      "outputs": [],
      "stateMutability": "nonpayable",
      "type": "function"
    },
    {
      "inputs": [
        {
          "internalType": "address",
          "name": "owner",
          "type": "address"
        }
      ],
      "name": "balanceOf",
      "outputs": [
        {
          "internalType": "uint256",
          "name": "",
          "type": "uint256"
        }
      ],
      "stateMutability": "view",
      "type": "function"
    },
    {
      "inputs": [
        {
          "internalType": "uint256",
          "name": "tokenId",
          "type": "uint256"
        }
      ],
      "name": "buyNft",
      "outputs": [],
      "stateMutability": "payable",
      "type": "function"
    },
    {
      "inputs": [
        {
          "internalType": "string",
          "name": "tokenURI",
          "type": "string"
        },
        {
          "internalType": "uint256",
          "name": "price",
          "type": "uint256"
        },
        {
          "internalType": "uint256",
          "name": "royaltyFeeInBips",
          "type": "uint256"
        }
      ],
      "name": "createToken",
      "outputs": [
        {
          "internalType": "uint256",
          "name": "",
          "type": "uint256"
        }
      ],
      "stateMutability": "payable",
      "type": "function"
    },
    {
      "inputs": [],
      "name": "ethUSDvalue",
      "outputs": [
        {
          "internalType": "uint256",
          "name": "",
          "type": "uint256"
        }
      ],
      "stateMutability": "view",
      "type": "function"
    },
    {
      "inputs": [],
      "name": "fetchMarket",
      "outputs": [
        {
          "components": [
            {
              "internalType": "uint256",
              "name": "tokenId",
              "type": "uint256"
            },
            {
              "internalType": "address payable",
              "name": "seller",
              "type": "address"
            },
            {
              "internalType": "address payable",
              "name": "owner",
              "type": "address"
            },
            {
              "internalType": "address payable",
              "name": "artist",
              "type": "address"
            },
            {
              "internalType": "uint256",
              "name": "price",
              "type": "uint256"
            },
            {
              "internalType": "uint256",
              "name": "royaltyFeeInBips",
              "type": "uint256"
            },
            {
              "internalType": "uint256",
              "name": "usdValue",
              "type": "uint256"
            },
            {
              "internalType": "bool",
              "name": "sold",
              "type": "bool"
            }
          ],
          "internalType": "struct Metropolis.NFT[]",
          "name": "",
          "type": "tuple[]"
        }
      ],
      "stateMutability": "view",
      "type": "function"
    },
    {
      "inputs": [],
      "name": "fetchMyListings",
      "outputs": [
        {
          "components": [
            {
              "internalType": "uint256",
              "name": "tokenId",
              "type": "uint256"
            },
            {
              "internalType": "address payable",
              "name": "seller",
              "type": "address"
            },
            {
              "internalType": "address payable",
              "name": "owner",
              "type": "address"
            },
            {
              "internalType": "address payable",
              "name": "artist",
              "type": "address"
            },
            {
              "internalType": "uint256",
              "name": "price",
              "type": "uint256"
            },
            {
              "internalType": "uint256",
              "name": "royaltyFeeInBips",
              "type": "uint256"
            },
            {
              "internalType": "uint256",
              "name": "usdValue",
              "type": "uint256"
            },
            {
              "internalType": "bool",
              "name": "sold",
              "type": "bool"
            }
          ],
          "internalType": "struct Metropolis.NFT[]",
          "name": "",
          "type": "tuple[]"
        }
      ],
      "stateMutability": "view",
      "type": "function"
    },
    {
      "inputs": [],
      "name": "fetchMyNFTs",
      "outputs": [
        {
          "components": [
            {
              "internalType": "uint256",
              "name": "tokenId",
              "type": "uint256"
            },
            {
              "internalType": "address payable",
              "name": "seller",
              "type": "address"
            },
            {
              "internalType": "address payable",
              "name": "owner",
              "type": "address"
            },
            {
              "internalType": "address payable",
              "name": "artist",
              "type": "address"
            },
            {
              "internalType": "uint256",
              "name": "price",
              "type": "uint256"
            },
            {
              "internalType": "uint256",
              "name": "royaltyFeeInBips",
              "type": "uint256"
            },
            {
              "internalType": "uint256",
              "name": "usdValue",
              "type": "uint256"
            },
            {
              "internalType": "bool",
              "name": "sold",
              "type": "bool"
            }
          ],
          "internalType": "struct Metropolis.NFT[]",
          "name": "",
          "type": "tuple[]"
        }
      ],
      "stateMutability": "view",
      "type": "function"
    },
    {
      "inputs": [
        {
          "internalType": "bytes32",
          "name": "_requestId",
          "type": "bytes32"
        },
        {
          "internalType": "uint256",
          "name": "data",
          "type": "uint256"
        }
      ],
      "name": "fulfill",
      "outputs": [],
      "stateMutability": "nonpayable",
      "type": "function"
    },
    {
      "inputs": [
        {
          "internalType": "uint256",
          "name": "tokenId",
          "type": "uint256"
        }
      ],
      "name": "getApproved",
      "outputs": [
        {
          "internalType": "address",
          "name": "",
          "type": "address"
        }
      ],
      "stateMutability": "view",
      "type": "function"
    },
    {
      "inputs": [
        {
          "internalType": "uint256",
          "name": "_salePrice",
          "type": "uint256"
        }
      ],
      "name": "getCommissionFee",
      "outputs": [
        {
          "internalType": "uint256",
          "name": "",
          "type": "uint256"
        }
      ],
      "stateMutability": "pure",
      "type": "function"
    },
    {
      "inputs": [],
      "name": "getETHvalue",
      "outputs": [
        {
          "internalType": "bytes32",
          "name": "",
          "type": "bytes32"
        }
      ],
      "stateMutability": "payable",
      "type": "function"
    },
    {
      "inputs": [],
      "name": "getLINKtokenBalance",
      "outputs": [
        {
          "internalType": "uint256",
          "name": "",
          "type": "uint256"
        }
      ],
      "stateMutability": "view",
      "type": "function"
    },
    {
      "inputs": [
        {
          "internalType": "uint256",
          "name": "_salePrice",
          "type": "uint256"
        },
        {
          "internalType": "uint256",
          "name": "royaltyFeeInBips",
          "type": "uint256"
        }
      ],
      "name": "getRoyaltyFee",
      "outputs": [
        {
          "internalType": "uint256",
          "name": "",
          "type": "uint256"
        }
      ],
      "stateMutability": "pure",
      "type": "function"
    },
    {
      "inputs": [],
      "name": "getTrustedForwarder",
      "outputs": [
        {
          "internalType": "address",
          "name": "forwarder",
          "type": "address"
        }
      ],
      "stateMutability": "view",
      "type": "function"
    },
    {
      "inputs": [
        {
          "internalType": "address",
          "name": "owner",
          "type": "address"
        },
        {
          "internalType": "address",
          "name": "operator",
          "type": "address"
        }
      ],
      "name": "isApprovedForAll",
      "outputs": [
        {
          "internalType": "bool",
          "name": "",
          "type": "bool"
        }
      ],
      "stateMutability": "view",
      "type": "function"
    },
    {
      "inputs": [
        {
          "internalType": "address",
          "name": "forwarder",
          "type": "address"
        }
      ],
      "name": "isTrustedForwarder",
      "outputs": [
        {
          "internalType": "bool",
          "name": "",
          "type": "bool"
        }
      ],
      "stateMutability": "view",
      "type": "function"
    },
    {
      "inputs": [],
      "name": "name",
      "outputs": [
        {
          "internalType": "string",
          "name": "",
          "type": "string"
        }
      ],
      "stateMutability": "view",
      "type": "function"
    },
    {
      "inputs": [
        {
          "internalType": "uint256",
          "name": "tokenId",
          "type": "uint256"
        }
      ],
      "name": "ownerOf",
      "outputs": [
        {
          "internalType": "address",
          "name": "",
          "type": "address"
        }
      ],
      "stateMutability": "view",
      "type": "function"
    },
    {
      "inputs": [
        {
          "internalType": "uint256",
          "name": "tokenId",
          "type": "uint256"
        },
        {
          "internalType": "uint256",
          "name": "price",
          "type": "uint256"
        }
      ],
      "name": "resellNFTs",
      "outputs": [],
      "stateMutability": "payable",
      "type": "function"
    },
    {
      "inputs": [
        {
          "internalType": "address",
          "name": "from",
          "type": "address"
        },
        {
          "internalType": "address",
          "name": "to",
          "type": "address"
        },
        {
          "internalType": "uint256",
          "name": "tokenId",
          "type": "uint256"
        }
      ],
      "name": "safeTransferFrom",
      "outputs": [],
      "stateMutability": "nonpayable",
      "type": "function"
    },
    {
      "inputs": [
        {
          "internalType": "address",
          "name": "from",
          "type": "address"
        },
        {
          "internalType": "address",
          "name": "to",
          "type": "address"
        },
        {
          "internalType": "uint256",
          "name": "tokenId",
          "type": "uint256"
        },
        {
          "internalType": "bytes",
          "name": "data",
          "type": "bytes"
        }
      ],
      "name": "safeTransferFrom",
      "outputs": [],
      "stateMutability": "nonpayable",
      "type": "function"
    },
    {
      "inputs": [
        {
          "internalType": "address",
          "name": "operator",
          "type": "address"
        },
        {
          "internalType": "bool",
          "name": "approved",
          "type": "bool"
        }
      ],
      "name": "setApprovalForAll",
      "outputs": [],
      "stateMutability": "nonpayable",
      "type": "function"
    },
    {
      "inputs": [
        {
          "internalType": "bytes4",
          "name": "interfaceId",
          "type": "bytes4"
        }
      ],
      "name": "supportsInterface",
      "outputs": [
        {
          "internalType": "bool",
          "name": "",
          "type": "bool"
        }
      ],
      "stateMutability": "view",
      "type": "function"
    },
    {
      "inputs": [],
      "name": "symbol",
      "outputs": [
        {
          "internalType": "string",
          "name": "",
          "type": "string"
        }
      ],
      "stateMutability": "view",
      "type": "function"
    },
    {
      "inputs": [
        {
          "internalType": "uint256",
          "name": "tokenId",
          "type": "uint256"
        }
      ],
      "name": "tokenURI",
      "outputs": [
        {
          "internalType": "string",
          "name": "",
          "type": "string"
        }
      ],
      "stateMutability": "view",
      "type": "function"
    },
    {
      "inputs": [
        {
          "internalType": "address",
          "name": "from",
          "type": "address"
        },
        {
          "internalType": "address",
          "name": "to",
          "type": "address"
        },
        {
          "internalType": "uint256",
          "name": "tokenId",
          "type": "uint256"
        }
      ],
      "name": "transferFrom",
      "outputs": [],
      "stateMutability": "nonpayable",
      "type": "function"
    },
    {
      "inputs": [],
      "name": "versionRecipient",
      "outputs": [
        {
          "internalType": "string",
          "name": "",
          "type": "string"
        }
      ],
      "stateMutability": "view",
      "type": "function"
    }
  ],
  "bytecode": "0x60806040526001600b556040518060400160405280600581526020017f322e322e30000000000000000000000000000000000000000000000000000000815250601590816200004f9190620005e9565b503480156200005d57600080fd5b506040518060400160405280600e81526020017f4d6574726f706f6c6973204e46540000000000000000000000000000000000008152506040518060400160405280600581526020017f4d4554524f0000000000000000000000000000000000000000000000000000008152508160009081620000db9190620005e9565b508060019081620000ed9190620005e9565b505050620001157384a0856b038eaad1cc7e297cf34a7e72685a8693620001eb60201b60201c565b620001256200022f60201b60201c565b600f60006101000a81548173ffffffffffffffffffffffffffffffffffffffff021916908373ffffffffffffffffffffffffffffffffffffffff1602179055506200018a73326c977e6efc84e512bb9c30f76e30c160ed06fb6200024b60201b60201c565b620001af73cc79157eb46f5624204f47ab42b3906caa40eab76200028f60201b60201c565b7f636139383336366363373331343935376238633031326337326630356165656260128190555067016345785d8a0000601381905550620006d0565b80600d60006101000a81548173ffffffffffffffffffffffffffffffffffffffff021916908373ffffffffffffffffffffffffffffffffffffffff16021790555050565b600062000246620002d360201b6200223c1760201c565b905090565b80600960006101000a81548173ffffffffffffffffffffffffffffffffffffffff021916908373ffffffffffffffffffffffffffffffffffffffff16021790555050565b80600a60006101000a81548173ffffffffffffffffffffffffffffffffffffffff021916908373ffffffffffffffffffffffffffffffffffffffff16021790555050565b60006014600036905010158015620002f85750620002f7336200031560201b60201c565b5b156200030e57601436033560601c905062000312565b3390505b90565b6000600d60009054906101000a900473ffffffffffffffffffffffffffffffffffffffff1673ffffffffffffffffffffffffffffffffffffffff168273ffffffffffffffffffffffffffffffffffffffff16149050919050565b600081519050919050565b7f4e487b7100000000000000000000000000000000000000000000000000000000600052604160045260246000fd5b7f4e487b7100000000000000000000000000000000000000000000000000000000600052602260045260246000fd5b60006002820490506001821680620003f157607f821691505b602082108103620004075762000406620003a9565b5b50919050565b60008190508160005260206000209050919050565b60006020601f8301049050919050565b600082821b905092915050565b600060088302620004717fffffffffffffffffffffffffffffffffffffffffffffffffffffffffffffffff8262000432565b6200047d868362000432565b95508019841693508086168417925050509392505050565b6000819050919050565b6000819050919050565b6000620004ca620004c4620004be8462000495565b6200049f565b62000495565b9050919050565b6000819050919050565b620004e683620004a9565b620004fe620004f582620004d1565b8484546200043f565b825550505050565b600090565b6200051562000506565b62000522818484620004db565b505050565b5b818110156200054a576200053e6000826200050b565b60018101905062000528565b5050565b601f821115620005995762000563816200040d565b6200056e8462000422565b810160208510156200057e578190505b620005966200058d8562000422565b83018262000527565b50505b505050565b600082821c905092915050565b6000620005be600019846008026200059e565b1980831691505092915050565b6000620005d98383620005ab565b9150826002028217905092915050565b620005f4826200036f565b67ffffffffffffffff81111562000610576200060f6200037a565b5b6200061c8254620003d8565b620006298282856200054e565b600060209050601f8311600181146200066157600084156200064c578287015190505b620006588582620005cb565b865550620006c8565b601f19841662000671866200040d565b60005b828110156200069b5784890151825560018201915060208501945060208101905062000674565b86831015620006bb5784890151620006b7601f891682620005ab565b8355505b6001600288020188555050505b505050505050565b615d2a80620006e06000396000f3fe6080604052600436106101b75760003560e01c80636352211e116100ec578063b6342bb41161008a578063bec2a7c511610064578063bec2a7c51461060b578063c87b56dd1461063b578063ce1b815f14610678578063e985e9c5146106a3576101b7565b8063b6342bb41461057a578063b88d4fde146105b7578063bd67b00b146105e0576101b7565b806370a08231116100c657806370a08231146104ac57806377e58703146104e957806395d89b4114610526578063a22cb46514610551576101b7565b80636352211e146104285780636b0f8b04146104655780636b15976614610481576101b7565b806323b872dd1161015957806342842e0e1161013357806342842e0e1461036e5780634357855e14610397578063486ff0cd146103c0578063572b6c05146103eb576101b7565b806323b872dd146102fe578063243adbdd146103275780633143ec8714610343576101b7565b8063095ea7b311610195578063095ea7b31461026157806315a70d8d1461028a578063177de2c5146102b5578063202e3740146102d3576101b7565b806301ffc9a7146101bc57806306fdde03146101f9578063081812fc14610224575b600080fd5b3480156101c857600080fd5b506101e360048036038101906101de919061400b565b6106e0565b6040516101f09190614053565b60405180910390f35b34801561020557600080fd5b5061020e6107c2565b60405161021b91906140fe565b60405180910390f35b34801561023057600080fd5b5061024b60048036038101906102469190614156565b610854565b60405161025891906141c4565b60405180910390f35b34801561026d57600080fd5b506102886004803603810190610283919061420b565b61089a565b005b34801561029657600080fd5b5061029f6109b1565b6040516102ac91906143dc565b60405180910390f35b6102bd610d14565b6040516102ca9190614417565b60405180910390f35b3480156102df57600080fd5b506102e8610e78565b6040516102f591906143dc565b60405180910390f35b34801561030a57600080fd5b5061032560048036038101906103209190614432565b6111db565b005b610341600480360381019061033c9190614156565b61123b565b005b34801561034f57600080fd5b506103586116d1565b60405161036591906143dc565b60405180910390f35b34801561037a57600080fd5b5061039560048036038101906103909190614432565b6119a3565b005b3480156103a357600080fd5b506103be60048036038101906103b991906144b1565b6119c3565b005b3480156103cc57600080fd5b506103d5611ad4565b6040516103e291906140fe565b60405180910390f35b3480156103f757600080fd5b50610412600480360381019061040d91906144f1565b611b62565b60405161041f9190614053565b60405180910390f35b34801561043457600080fd5b5061044f600480360381019061044a9190614156565b611bbc565b60405161045c91906141c4565b60405180910390f35b61047f600480360381019061047a919061451e565b611c42565b005b34801561048d57600080fd5b50610496611e08565b6040516104a3919061456d565b60405180910390f35b3480156104b857600080fd5b506104d360048036038101906104ce91906144f1565b611e10565b6040516104e0919061456d565b60405180910390f35b3480156104f557600080fd5b50610510600480360381019061050b919061451e565b611ec7565b60405161051d919061456d565b60405180910390f35b34801561053257600080fd5b5061053b611eea565b60405161054891906140fe565b60405180910390f35b34801561055d57600080fd5b50610578600480360381019061057391906145b4565b611f7c565b005b34801561058657600080fd5b506105a1600480360381019061059c9190614156565b611f92565b6040516105ae919061456d565b60405180910390f35b3480156105c357600080fd5b506105de60048036038101906105d99190614729565b611fb6565b005b3480156105ec57600080fd5b506105f5612018565b604051610602919061456d565b60405180910390f35b6106256004803603810190610620919061484d565b61201e565b604051610632919061456d565b60405180910390f35b34801561064757600080fd5b50610662600480360381019061065d9190614156565b61206c565b60405161066f91906140fe565b60405180910390f35b34801561068457600080fd5b5061068d61217e565b60405161069a91906141c4565b60405180910390f35b3480156106af57600080fd5b506106ca60048036038101906106c591906148bc565b6121a8565b6040516106d79190614053565b60405180910390f35b60007f80ac58cd000000000000000000000000000000000000000000000000000000007bffffffffffffffffffffffffffffffffffffffffffffffffffffffff1916827bffffffffffffffffffffffffffffffffffffffffffffffffffffffff191614806107ab57507f5b5e139f000000000000000000000000000000000000000000000000000000007bffffffffffffffffffffffffffffffffffffffffffffffffffffffff1916827bffffffffffffffffffffffffffffffffffffffffffffffffffffffff1916145b806107bb57506107ba82612273565b5b9050919050565b6060600080546107d19061492b565b80601f01602080910402602001604051908101604052809291908181526020018280546107fd9061492b565b801561084a5780601f1061081f5761010080835404028352916020019161084a565b820191906000526020600020905b81548152906001019060200180831161082d57829003601f168201915b5050505050905090565b600061085f826122dd565b6004600083815260200190815260200160002060009054906101000a900473ffffffffffffffffffffffffffffffffffffffff169050919050565b60006108a582611bbc565b90508073ffffffffffffffffffffffffffffffffffffffff168373ffffffffffffffffffffffffffffffffffffffff1603610915576040517f08c379a000000000000000000000000000000000000000000000000000000000815260040161090c906149ce565b60405180910390fd5b8073ffffffffffffffffffffffffffffffffffffffff16610934612328565b73ffffffffffffffffffffffffffffffffffffffff16148061096357506109628161095d612328565b6121a8565b5b6109a2576040517f08c379a000000000000000000000000000000000000000000000000000000000815260040161099990614a60565b60405180910390fd5b6109ac8383612337565b505050565b606060006109bf60106123f0565b905060008060005b83811015610a6d576109d7612328565b73ffffffffffffffffffffffffffffffffffffffff16600e60006001846109fe9190614aaf565b815260200190815260200160002060010160009054906101000a900473ffffffffffffffffffffffffffffffffffffffff1673ffffffffffffffffffffffffffffffffffffffff1603610a5a578280610a5690614ae3565b9350505b8080610a6590614ae3565b9150506109c7565b5060008267ffffffffffffffff811115610a8a57610a896145fe565b5b604051908082528060200260200182016040528015610ac357816020015b610ab0613e8f565b815260200190600190039081610aa85790505b50905060005b84811015610d0957610ad9612328565b73ffffffffffffffffffffffffffffffffffffffff16600e6000600184610b009190614aaf565b815260200190815260200160002060010160009054906101000a900473ffffffffffffffffffffffffffffffffffffffff1673ffffffffffffffffffffffffffffffffffffffff1603610cf6576000600182610b5c9190614aaf565b90506000600e600083815260200190815260200160002090508060405180610100016040529081600082015481526020016001820160009054906101000a900473ffffffffffffffffffffffffffffffffffffffff1673ffffffffffffffffffffffffffffffffffffffff1673ffffffffffffffffffffffffffffffffffffffff1681526020016002820160009054906101000a900473ffffffffffffffffffffffffffffffffffffffff1673ffffffffffffffffffffffffffffffffffffffff1673ffffffffffffffffffffffffffffffffffffffff1681526020016003820160009054906101000a900473ffffffffffffffffffffffffffffffffffffffff1673ffffffffffffffffffffffffffffffffffffffff1673ffffffffffffffffffffffffffffffffffffffff1681526020016004820154815260200160058201548152602001600682015481526020016007820160009054906101000a900460ff161515151581525050848681518110610cda57610cd9614b2b565b5b60200260200101819052508480610cf090614ae3565b95505050505b8080610d0190614ae3565b915050610ac9565b508094505050505090565b600080610d2b60125430634357855e60e01b6123fe565b9050610d8f6040518060400160405280600381526020017f67657400000000000000000000000000000000000000000000000000000000008152506040518060c0016040528060928152602001615c63609291398361242f9092919063ffffffff16565b610e0e6040518060400160405280600481526020017f70617468000000000000000000000000000000000000000000000000000000008152506040518060400160405280600381526020017f55534400000000000000000000000000000000000000000000000000000000008152508361242f9092919063ffffffff16565b6000670de0b6b3a76400009050610e656040518060400160405280600581526020017f74696d657300000000000000000000000000000000000000000000000000000081525082846124629092919063ffffffff16565b610e7182601354612495565b9250505090565b60606000610e8660106123f0565b905060008060005b83811015610f3457610e9e612328565b73ffffffffffffffffffffffffffffffffffffffff16600e6000600184610ec59190614aaf565b815260200190815260200160002060020160009054906101000a900473ffffffffffffffffffffffffffffffffffffffff1673ffffffffffffffffffffffffffffffffffffffff1603610f21578280610f1d90614ae3565b9350505b8080610f2c90614ae3565b915050610e8e565b5060008267ffffffffffffffff811115610f5157610f506145fe565b5b604051908082528060200260200182016040528015610f8a57816020015b610f77613e8f565b815260200190600190039081610f6f5790505b50905060005b848110156111d057610fa0612328565b73ffffffffffffffffffffffffffffffffffffffff16600e6000600184610fc79190614aaf565b815260200190815260200160002060020160009054906101000a900473ffffffffffffffffffffffffffffffffffffffff1673ffffffffffffffffffffffffffffffffffffffff16036111bd5760006001826110239190614aaf565b90506000600e600083815260200190815260200160002090508060405180610100016040529081600082015481526020016001820160009054906101000a900473ffffffffffffffffffffffffffffffffffffffff1673ffffffffffffffffffffffffffffffffffffffff1673ffffffffffffffffffffffffffffffffffffffff1681526020016002820160009054906101000a900473ffffffffffffffffffffffffffffffffffffffff1673ffffffffffffffffffffffffffffffffffffffff1673ffffffffffffffffffffffffffffffffffffffff1681526020016003820160009054906101000a900473ffffffffffffffffffffffffffffffffffffffff1673ffffffffffffffffffffffffffffffffffffffff1673ffffffffffffffffffffffffffffffffffffffff1681526020016004820154815260200160058201548152602001600682015481526020016007820160009054906101000a900460ff1615151515815250508486815181106111a1576111a0614b2b565b5b602002602001018190525084806111b790614ae3565b95505050505b80806111c890614ae3565b915050610f90565b508094505050505090565b6111ec6111e6612328565b826124cc565b61122b576040517f08c379a000000000000000000000000000000000000000000000000000000000815260040161122290614bcc565b60405180910390fd5b611236838383612561565b505050565b6000600e60008381526020019081526020016000206004015490506000600e60008481526020019081526020016000206005015490506000600e600085815260200190815260200160002060010160009054906101000a900473ffffffffffffffffffffffffffffffffffffffff1690506000600e600086815260200190815260200160002060030160009054906101000a900473ffffffffffffffffffffffffffffffffffffffff169050833414611329576040517f08c379a000000000000000000000000000000000000000000000000000000000815260040161132090614c5e565b60405180910390fd5b611331612328565b600e600087815260200190815260200160002060020160006101000a81548173ffffffffffffffffffffffffffffffffffffffff021916908373ffffffffffffffffffffffffffffffffffffffff1602179055506001600e600087815260200190815260200160002060070160006101000a81548160ff0219169083151502179055506000600e600087815260200190815260200160002060010160006101000a81548173ffffffffffffffffffffffffffffffffffffffff021916908373ffffffffffffffffffffffffffffffffffffffff160217905550611414601161285a565b61142630611420612328565b87612561565b600e600086815260200190815260200160002060030160009054906101000a900473ffffffffffffffffffffffffffffffffffffffff1673ffffffffffffffffffffffffffffffffffffffff16600e600087815260200190815260200160002060010160009054906101000a900473ffffffffffffffffffffffffffffffffffffffff1673ffffffffffffffffffffffffffffffffffffffff16036115995760006114d085611f92565b9050600081346114e09190614c7e565b9050600f60009054906101000a900473ffffffffffffffffffffffffffffffffffffffff1673ffffffffffffffffffffffffffffffffffffffff166108fc839081150290604051600060405180830381858888f1935050505015801561154a573d6000803e3d6000fd5b508373ffffffffffffffffffffffffffffffffffffffff166108fc829081150290604051600060405180830381858888f19350505050158015611591573d6000803e3d6000fd5b5050506116ca565b60006115a485611f92565b905060006115b28686611ec7565b9050600081836115c29190614aaf565b346115cd9190614c7e565b90508373ffffffffffffffffffffffffffffffffffffffff166108fc839081150290604051600060405180830381858888f19350505050158015611615573d6000803e3d6000fd5b50600f60009054906101000a900473ffffffffffffffffffffffffffffffffffffffff1673ffffffffffffffffffffffffffffffffffffffff166108fc849081150290604051600060405180830381858888f1935050505015801561167e573d6000803e3d6000fd5b508473ffffffffffffffffffffffffffffffffffffffff166108fc829081150290604051600060405180830381858888f193505050501580156116c5573d6000803e3d6000fd5b505050505b5050505050565b606060006116df60106123f0565b905060006116ed60116123f0565b6116f760106123f0565b6117019190614c7e565b90506000808267ffffffffffffffff8111156117205761171f6145fe565b5b60405190808252806020026020018201604052801561175957816020015b611746613e8f565b81526020019060019003908161173e5790505b50905060005b84811015611998573073ffffffffffffffffffffffffffffffffffffffff16600e600060018461178f9190614aaf565b815260200190815260200160002060020160009054906101000a900473ffffffffffffffffffffffffffffffffffffffff1673ffffffffffffffffffffffffffffffffffffffff16036119855760006001826117eb9190614aaf565b90506000600e600083815260200190815260200160002090508060405180610100016040529081600082015481526020016001820160009054906101000a900473ffffffffffffffffffffffffffffffffffffffff1673ffffffffffffffffffffffffffffffffffffffff1673ffffffffffffffffffffffffffffffffffffffff1681526020016002820160009054906101000a900473ffffffffffffffffffffffffffffffffffffffff1673ffffffffffffffffffffffffffffffffffffffff1673ffffffffffffffffffffffffffffffffffffffff1681526020016003820160009054906101000a900473ffffffffffffffffffffffffffffffffffffffff1673ffffffffffffffffffffffffffffffffffffffff1673ffffffffffffffffffffffffffffffffffffffff1681526020016004820154815260200160058201548152602001600682015481526020016007820160009054906101000a900460ff16151515158152505084868151811061196957611968614b2b565b5b6020026020010181905250848061197f90614ae3565b95505050505b808061199090614ae3565b91505061175f565b508094505050505090565b6119be83838360405180602001604052806000815250611fb6565b505050565b81600c600082815260200190815260200160002060009054906101000a900473ffffffffffffffffffffffffffffffffffffffff1673ffffffffffffffffffffffffffffffffffffffff163373ffffffffffffffffffffffffffffffffffffffff1614611a65576040517f08c379a0000000000000000000000000000000000000000000000000000000008152600401611a5c90614d24565b60405180910390fd5b600c600082815260200190815260200160002060006101000a81549073ffffffffffffffffffffffffffffffffffffffff0219169055807f7cc135e0cebb02c3480ae5d74d377283180a2601f8f644edf7987b009316c63a60405160405180910390a281601481905550505050565b60158054611ae19061492b565b80601f0160208091040260200160405190810160405280929190818152602001828054611b0d9061492b565b8015611b5a5780601f10611b2f57610100808354040283529160200191611b5a565b820191906000526020600020905b815481529060010190602001808311611b3d57829003601f168201915b505050505081565b6000600d60009054906101000a900473ffffffffffffffffffffffffffffffffffffffff1673ffffffffffffffffffffffffffffffffffffffff168273ffffffffffffffffffffffffffffffffffffffff16149050919050565b600080611bc883612870565b9050600073ffffffffffffffffffffffffffffffffffffffff168173ffffffffffffffffffffffffffffffffffffffff1603611c39576040517f08c379a0000000000000000000000000000000000000000000000000000000008152600401611c3090614d90565b60405180910390fd5b80915050919050565b611c4a612328565b73ffffffffffffffffffffffffffffffffffffffff16600e600084815260200190815260200160002060020160009054906101000a900473ffffffffffffffffffffffffffffffffffffffff1673ffffffffffffffffffffffffffffffffffffffff1614611ced576040517f08c379a0000000000000000000000000000000000000000000000000000000008152600401611ce490614dfc565b60405180910390fd5b30600e600084815260200190815260200160002060020160006101000a81548173ffffffffffffffffffffffffffffffffffffffff021916908373ffffffffffffffffffffffffffffffffffffffff1602179055506000600e600084815260200190815260200160002060070160006101000a81548160ff021916908315150217905550611d79612328565b600e600084815260200190815260200160002060010160006101000a81548173ffffffffffffffffffffffffffffffffffffffff021916908373ffffffffffffffffffffffffffffffffffffffff16021790555080600e600084815260200190815260200160002060040181905550611df260116128ad565b611e04611dfd612328565b3084612561565b5050565b600047905090565b60008073ffffffffffffffffffffffffffffffffffffffff168273ffffffffffffffffffffffffffffffffffffffff1603611e80576040517f08c379a0000000000000000000000000000000000000000000000000000000008152600401611e7790614e8e565b60405180910390fd5b600360008373ffffffffffffffffffffffffffffffffffffffff1673ffffffffffffffffffffffffffffffffffffffff168152602001908152602001600020549050919050565b60008161271084611ed89190614edd565b611ee29190614f0e565b905092915050565b606060018054611ef99061492b565b80601f0160208091040260200160405190810160405280929190818152602001828054611f259061492b565b8015611f725780601f10611f4757610100808354040283529160200191611f72565b820191906000526020600020905b815481529060010190602001808311611f5557829003601f168201915b5050505050905090565b611f8e611f87612328565b8383612909565b5050565b600061012c61271083611fa59190614edd565b611faf9190614f0e565b9050919050565b611fc7611fc1612328565b836124cc565b612006576040517f08c379a0000000000000000000000000000000000000000000000000000000008152600401611ffd90614bcc565b60405180910390fd5b61201284848484612a75565b50505050565b60145481565b600061202a601061285a565b600061203660106123f0565b9050612049612043612328565b82612ad1565b6120538186612cee565b612061818585601454612d5b565b809150509392505050565b6060612077826122dd565b60006006600084815260200190815260200160002080546120979061492b565b80601f01602080910402602001604051908101604052809291908181526020018280546120c39061492b565b80156121105780601f106120e557610100808354040283529160200191612110565b820191906000526020600020905b8154815290600101906020018083116120f357829003601f168201915b505050505090506000612121612fa7565b90506000815103612136578192505050612179565b60008251111561216b578082604051602001612153929190614f8c565b60405160208183030381529060405292505050612179565b61217484612fbe565b925050505b919050565b6000600d60009054906101000a900473ffffffffffffffffffffffffffffffffffffffff16905090565b6000600560008473ffffffffffffffffffffffffffffffffffffffff1673ffffffffffffffffffffffffffffffffffffffff16815260200190815260200160002060008373ffffffffffffffffffffffffffffffffffffffff1673ffffffffffffffffffffffffffffffffffffffff16815260200190815260200160002060009054906101000a900460ff16905092915050565b60006014600036905010158015612258575061225733611b62565b5b1561226c57601436033560601c9050612270565b3390505b90565b60007f01ffc9a7000000000000000000000000000000000000000000000000000000007bffffffffffffffffffffffffffffffffffffffffffffffffffffffff1916827bffffffffffffffffffffffffffffffffffffffffffffffffffffffff1916149050919050565b6122e681613026565b612325576040517f08c379a000000000000000000000000000000000000000000000000000000000815260040161231c90614d90565b60405180910390fd5b50565b600061233261223c565b905090565b816004600083815260200190815260200160002060006101000a81548173ffffffffffffffffffffffffffffffffffffffff021916908373ffffffffffffffffffffffffffffffffffffffff160217905550808273ffffffffffffffffffffffffffffffffffffffff166123aa83611bbc565b73ffffffffffffffffffffffffffffffffffffffff167f8c5be1e5ebec7d5bd14f71427d1e84f3dd0314c0f7b2291e5b200ac8c7c3b92560405160405180910390a45050565b600081600001549050919050565b612406613f18565b61240e613f18565b61242585858584613067909392919063ffffffff16565b9150509392505050565b61244682846080015161311790919063ffffffff16565b61245d81846080015161311790919063ffffffff16565b505050565b61247982846080015161311790919063ffffffff16565b61249081846080015161313c90919063ffffffff16565b505050565b60006124c4600a60009054906101000a900473ffffffffffffffffffffffffffffffffffffffff1684846131e9565b905092915050565b6000806124d883611bbc565b90508073ffffffffffffffffffffffffffffffffffffffff168473ffffffffffffffffffffffffffffffffffffffff16148061251a575061251981856121a8565b5b8061255857508373ffffffffffffffffffffffffffffffffffffffff1661254084610854565b73ffffffffffffffffffffffffffffffffffffffff16145b91505092915050565b8273ffffffffffffffffffffffffffffffffffffffff1661258182611bbc565b73ffffffffffffffffffffffffffffffffffffffff16146125d7576040517f08c379a00000000000000000000000000000000000000000000000000000000081526004016125ce90615022565b60405180910390fd5b600073ffffffffffffffffffffffffffffffffffffffff168273ffffffffffffffffffffffffffffffffffffffff1603612646576040517f08c379a000000000000000000000000000000000000000000000000000000000815260040161263d906150b4565b60405180910390fd5b61265383838360016132b5565b8273ffffffffffffffffffffffffffffffffffffffff1661267382611bbc565b73ffffffffffffffffffffffffffffffffffffffff16146126c9576040517f08c379a00000000000000000000000000000000000000000000000000000000081526004016126c090615022565b60405180910390fd5b6004600082815260200190815260200160002060006101000a81549073ffffffffffffffffffffffffffffffffffffffff02191690556001600360008573ffffffffffffffffffffffffffffffffffffffff1673ffffffffffffffffffffffffffffffffffffffff168152602001908152602001600020600082825403925050819055506001600360008473ffffffffffffffffffffffffffffffffffffffff1673ffffffffffffffffffffffffffffffffffffffff16815260200190815260200160002060008282540192505081905550816002600083815260200190815260200160002060006101000a81548173ffffffffffffffffffffffffffffffffffffffff021916908373ffffffffffffffffffffffffffffffffffffffff160217905550808273ffffffffffffffffffffffffffffffffffffffff168473ffffffffffffffffffffffffffffffffffffffff167fddf252ad1be2c89b69c2b068fc378daa952ba7f163c4a11628f55a4df523b3ef60405160405180910390a461285583838360016133db565b505050565b6001816000016000828254019250508190555050565b60006002600083815260200190815260200160002060009054906101000a900473ffffffffffffffffffffffffffffffffffffffff169050919050565b600081600001549050600081116128f9576040517f08c379a00000000000000000000000000000000000000000000000000000000081526004016128f090615120565b60405180910390fd5b6001810382600001819055505050565b8173ffffffffffffffffffffffffffffffffffffffff168373ffffffffffffffffffffffffffffffffffffffff1603612977576040517f08c379a000000000000000000000000000000000000000000000000000000000815260040161296e9061518c565b60405180910390fd5b80600560008573ffffffffffffffffffffffffffffffffffffffff1673ffffffffffffffffffffffffffffffffffffffff16815260200190815260200160002060008473ffffffffffffffffffffffffffffffffffffffff1673ffffffffffffffffffffffffffffffffffffffff16815260200190815260200160002060006101000a81548160ff0219169083151502179055508173ffffffffffffffffffffffffffffffffffffffff168373ffffffffffffffffffffffffffffffffffffffff167f17307eab39ab6107e8899845ad3d59bd9653f200f220920489ca2b5937696c3183604051612a689190614053565b60405180910390a3505050565b612a80848484612561565b612a8c848484846133e1565b612acb576040517f08c379a0000000000000000000000000000000000000000000000000000000008152600401612ac29061521e565b60405180910390fd5b50505050565b600073ffffffffffffffffffffffffffffffffffffffff168273ffffffffffffffffffffffffffffffffffffffff1603612b40576040517f08c379a0000000000000000000000000000000000000000000000000000000008152600401612b379061528a565b60405180910390fd5b612b4981613026565b15612b89576040517f08c379a0000000000000000000000000000000000000000000000000000000008152600401612b80906152f6565b60405180910390fd5b612b976000838360016132b5565b612ba081613026565b15612be0576040517f08c379a0000000000000000000000000000000000000000000000000000000008152600401612bd7906152f6565b60405180910390fd5b6001600360008473ffffffffffffffffffffffffffffffffffffffff1673ffffffffffffffffffffffffffffffffffffffff16815260200190815260200160002060008282540192505081905550816002600083815260200190815260200160002060006101000a81548173ffffffffffffffffffffffffffffffffffffffff021916908373ffffffffffffffffffffffffffffffffffffffff160217905550808273ffffffffffffffffffffffffffffffffffffffff16600073ffffffffffffffffffffffffffffffffffffffff167fddf252ad1be2c89b69c2b068fc378daa952ba7f163c4a11628f55a4df523b3ef60405160405180910390a4612cea6000838360016133db565b5050565b612cf782613026565b612d36576040517f08c379a0000000000000000000000000000000000000000000000000000000008152600401612d2d90615388565b60405180910390fd5b80600660008481526020019081526020016000209081612d569190615554565b505050565b60008311612d9e576040517f08c379a0000000000000000000000000000000000000000000000000000000008152600401612d9590615672565b60405180910390fd5b612da6610d14565b5083600e60008681526020019081526020016000206000018190555082600e60008681526020019081526020016000206004018190555081600e600086815260200190815260200160002060050181905550670de0b6b3a76400008184612e0d9190614f0e565b612e179190614edd565b600e600086815260200190815260200160002060060181905550612e39612328565b600e600086815260200190815260200160002060010160006101000a81548173ffffffffffffffffffffffffffffffffffffffff021916908373ffffffffffffffffffffffffffffffffffffffff16021790555030600e600086815260200190815260200160002060020160006101000a81548173ffffffffffffffffffffffffffffffffffffffff021916908373ffffffffffffffffffffffffffffffffffffffff160217905550612eea612328565b600e600086815260200190815260200160002060030160006101000a81548173ffffffffffffffffffffffffffffffffffffffff021916908373ffffffffffffffffffffffffffffffffffffffff160217905550612f50612f49612328565b3086612561565b837f57bc5db4260382b0aa84042772478b244fd59a2fa4988fcc77e2d7c0d09dec70612f7a612328565b30612f83612328565b87876000604051612f99969594939291906156a1565b60405180910390a250505050565b606060405180602001604052806000815250905090565b6060612fc9826122dd565b6000612fd3612fa7565b90506000815111612ff3576040518060200160405280600081525061301e565b80612ffd84613568565b60405160200161300e929190614f8c565b6040516020818303038152906040525b915050919050565b60008073ffffffffffffffffffffffffffffffffffffffff1661304883612870565b73ffffffffffffffffffffffffffffffffffffffff1614159050919050565b61306f613f18565b61307f8560800151610100613636565b508385600001818152505082856020019073ffffffffffffffffffffffffffffffffffffffff16908173ffffffffffffffffffffffffffffffffffffffff16815250508185604001907bffffffffffffffffffffffffffffffffffffffffffffffffffffffff191690817bffffffffffffffffffffffffffffffffffffffffffffffffffffffff191681525050849050949350505050565b61312482600383516136a0565b613137818361382590919063ffffffff16565b505050565b7fffffffffffffffffffffffffffffffffffffffffffffffff00000000000000008112156131735761316e8282613847565b6131e5565b67ffffffffffffffff8113156131925761318d82826138be565b6131e4565b600081126131ab576131a6826000836136a0565b6131e3565b6131e2826001837fffffffffffffffffffffffffffffffffffffffffffffffffffffffffffffffff6131dd919061570c565b6136a0565b5b5b5b5050565b600080600b5490506001816131fe9190614aaf565b600b819055506000634042994660e01b60008087600001513089604001518760018c608001516000015160405160240161323f9897969594939291906157b3565b604051602081830303815290604052907bffffffffffffffffffffffffffffffffffffffffffffffffffffffff19166020820180517bffffffffffffffffffffffffffffffffffffffffffffffffffffffff838183161783525050505090506132aa8683868461390a565b925050509392505050565b60018111156133d557600073ffffffffffffffffffffffffffffffffffffffff168473ffffffffffffffffffffffffffffffffffffffff16146133495780600360008673ffffffffffffffffffffffffffffffffffffffff1673ffffffffffffffffffffffffffffffffffffffff16815260200190815260200160002060008282546133419190614c7e565b925050819055505b600073ffffffffffffffffffffffffffffffffffffffff168373ffffffffffffffffffffffffffffffffffffffff16146133d45780600360008573ffffffffffffffffffffffffffffffffffffffff1673ffffffffffffffffffffffffffffffffffffffff16815260200190815260200160002060008282546133cc9190614aaf565b925050819055505b5b50505050565b50505050565b60006134028473ffffffffffffffffffffffffffffffffffffffff16613a9f565b1561355b578373ffffffffffffffffffffffffffffffffffffffff1663150b7a0261342b612328565b8786866040518563ffffffff1660e01b815260040161344d9493929190615838565b6020604051808303816000875af192505050801561348957506040513d601f19601f820116820180604052508101906134869190615899565b60015b61350b573d80600081146134b9576040519150601f19603f3d011682016040523d82523d6000602084013e6134be565b606091505b506000815103613503576040517f08c379a00000000000000000000000000000000000000000000000000000000081526004016134fa9061521e565b60405180910390fd5b805181602001fd5b63150b7a0260e01b7bffffffffffffffffffffffffffffffffffffffffffffffffffffffff1916817bffffffffffffffffffffffffffffffffffffffffffffffffffffffff191614915050613560565b600190505b949350505050565b60606000600161357784613ac2565b01905060008167ffffffffffffffff811115613596576135956145fe565b5b6040519080825280601f01601f1916602001820160405280156135c85781602001600182028036833780820191505090505b509050600082602001820190505b60011561362b578080600190039150507f3031323334353637383961626364656600000000000000000000000000000000600a86061a8153600a858161361f5761361e614eae565b5b049450600085036135d6575b819350505050919050565b61363e613f85565b600060208361364d91906158c6565b146136795760208261365f91906158c6565b602061366b9190614c7e565b826136769190614aaf565b91505b81836020018181525050604051808452600081528281016020016040525082905092915050565b60178167ffffffffffffffff16116136d7576136d18160058460ff16901b60ff161784613c1590919063ffffffff16565b50613820565b60ff8167ffffffffffffffff161161372d57613706601860058460ff16901b1784613c1590919063ffffffff16565b506137278167ffffffffffffffff16600185613c359092919063ffffffff16565b5061381f565b61ffff8167ffffffffffffffff16116137845761375d601960058460ff16901b1784613c1590919063ffffffff16565b5061377e8167ffffffffffffffff16600285613c359092919063ffffffff16565b5061381e565b63ffffffff8167ffffffffffffffff16116137dd576137b6601a60058460ff16901b1784613c1590919063ffffffff16565b506137d78167ffffffffffffffff16600485613c359092919063ffffffff16565b5061381d565b6137fa601b60058460ff16901b1784613c1590919063ffffffff16565b5061381b8167ffffffffffffffff16600885613c359092919063ffffffff16565b505b5b5b5b505050565b61382d613f85565b61383f83846000015151848551613c57565b905092915050565b61386560036005600660ff16901b1783613c1590919063ffffffff16565b506138ba82827fffffffffffffffffffffffffffffffffffffffffffffffffffffffffffffffff613896919061570c565b6040516020016138a6919061456d565b604051602081830303815290604052613d46565b5050565b6138dc60026005600660ff16901b1783613c1590919063ffffffff16565b5061390682826040516020016138f2919061456d565b604051602081830303815290604052613d46565b5050565b6000308460405160200161391f9291906159a6565b60405160208183030381529060405280519060200120905084600c600083815260200190815260200160002060006101000a81548173ffffffffffffffffffffffffffffffffffffffff021916908373ffffffffffffffffffffffffffffffffffffffff160217905550807fb5e6e01e79f91267dc17b4e6314d5d4d03593d2ceee0fbb452b750bd70ea5af960405160405180910390a2600960009054906101000a900473ffffffffffffffffffffffffffffffffffffffff1673ffffffffffffffffffffffffffffffffffffffff16634000aea08685856040518463ffffffff1660e01b8152600401613a15939291906159d2565b6020604051808303816000875af1158015613a34573d6000803e3d6000fd5b505050506040513d601f19601f82011682018060405250810190613a589190615a25565b613a97576040517f08c379a0000000000000000000000000000000000000000000000000000000008152600401613a8e90615ac4565b60405180910390fd5b949350505050565b6000808273ffffffffffffffffffffffffffffffffffffffff163b119050919050565b600080600090507a184f03e93ff9f4daa797ed6e38ed64bf6a1f0100000000000000008310613b20577a184f03e93ff9f4daa797ed6e38ed64bf6a1f0100000000000000008381613b1657613b15614eae565b5b0492506040810190505b6d04ee2d6d415b85acef81000000008310613b5d576d04ee2d6d415b85acef81000000008381613b5357613b52614eae565b5b0492506020810190505b662386f26fc100008310613b8c57662386f26fc100008381613b8257613b81614eae565b5b0492506010810190505b6305f5e1008310613bb5576305f5e1008381613bab57613baa614eae565b5b0492506008810190505b6127108310613bda576127108381613bd057613bcf614eae565b5b0492506004810190505b60648310613bfd5760648381613bf357613bf2614eae565b5b0492506002810190505b600a8310613c0c576001810190505b80915050919050565b613c1d613f85565b613c2d8384600001515184613d6b565b905092915050565b613c3d613f85565b613c4e848560000151518585613dc1565b90509392505050565b613c5f613f85565b8251821115613c6d57600080fd5b84602001518285613c7e9190614aaf565b1115613cb357613cb2856002613ca388602001518887613c9e9190614aaf565b613e4f565b613cad9190614f0e565b613e6b565b5b600080865180518760208301019350808887011115613cd25787860182525b60208701925050505b60208410613d195780518252602082613cf49190614aaf565b9150602081613d039190614aaf565b9050602084613d129190614c7e565b9350613cdb565b60006001856020036101000a03905080198251168184511681811785525050508692505050949350505050565b613d5382600283516136a0565b613d66818361382590919063ffffffff16565b505050565b613d73613f85565b83602001518310613d9957613d988460028660200151613d939190614f0e565b613e6b565b5b83518051602085830101848153818603613db4576001820183525b5050508390509392505050565b613dc9613f85565b84602001518483613dda9190614aaf565b1115613e0257613e018560028685613df29190614aaf565b613dfc9190614f0e565b613e6b565b5b6000600183610100613e149190615c17565b613e1e9190614c7e565b90508551838682010185831982511617815281518588011115613e415784870182525b505085915050949350505050565b600081831115613e6157829050613e65565b8190505b92915050565b600082600001519050613e7e8383613636565b50613e898382613825565b50505050565b60405180610100016040528060008152602001600073ffffffffffffffffffffffffffffffffffffffff168152602001600073ffffffffffffffffffffffffffffffffffffffff168152602001600073ffffffffffffffffffffffffffffffffffffffff1681526020016000815260200160008152602001600081526020016000151581525090565b6040518060a0016040528060008019168152602001600073ffffffffffffffffffffffffffffffffffffffff16815260200160007bffffffffffffffffffffffffffffffffffffffffffffffffffffffff1916815260200160008152602001613f7f613f85565b81525090565b604051806040016040528060608152602001600081525090565b6000604051905090565b600080fd5b600080fd5b60007fffffffff0000000000000000000000000000000000000000000000000000000082169050919050565b613fe881613fb3565b8114613ff357600080fd5b50565b60008135905061400581613fdf565b92915050565b60006020828403121561402157614020613fa9565b5b600061402f84828501613ff6565b91505092915050565b60008115159050919050565b61404d81614038565b82525050565b60006020820190506140686000830184614044565b92915050565b600081519050919050565b600082825260208201905092915050565b60005b838110156140a857808201518184015260208101905061408d565b60008484015250505050565b6000601f19601f8301169050919050565b60006140d08261406e565b6140da8185614079565b93506140ea81856020860161408a565b6140f3816140b4565b840191505092915050565b6000602082019050818103600083015261411881846140c5565b905092915050565b6000819050919050565b61413381614120565b811461413e57600080fd5b50565b6000813590506141508161412a565b92915050565b60006020828403121561416c5761416b613fa9565b5b600061417a84828501614141565b91505092915050565b600073ffffffffffffffffffffffffffffffffffffffff82169050919050565b60006141ae82614183565b9050919050565b6141be816141a3565b82525050565b60006020820190506141d960008301846141b5565b92915050565b6141e8816141a3565b81146141f357600080fd5b50565b600081359050614205816141df565b92915050565b6000806040838503121561422257614221613fa9565b5b6000614230858286016141f6565b925050602061424185828601614141565b9150509250929050565b600081519050919050565b600082825260208201905092915050565b6000819050602082019050919050565b61428081614120565b82525050565b600061429182614183565b9050919050565b6142a181614286565b82525050565b6142b081614038565b82525050565b610100820160008201516142cd6000850182614277565b5060208201516142e06020850182614298565b5060408201516142f36040850182614298565b5060608201516143066060850182614298565b5060808201516143196080850182614277565b5060a082015161432c60a0850182614277565b5060c082015161433f60c0850182614277565b5060e082015161435260e08501826142a7565b50505050565b600061436483836142b6565b6101008301905092915050565b6000602082019050919050565b60006143898261424b565b6143938185614256565b935061439e83614267565b8060005b838110156143cf5781516143b68882614358565b97506143c183614371565b9250506001810190506143a2565b5085935050505092915050565b600060208201905081810360008301526143f6818461437e565b905092915050565b6000819050919050565b614411816143fe565b82525050565b600060208201905061442c6000830184614408565b92915050565b60008060006060848603121561444b5761444a613fa9565b5b6000614459868287016141f6565b935050602061446a868287016141f6565b925050604061447b86828701614141565b9150509250925092565b61448e816143fe565b811461449957600080fd5b50565b6000813590506144ab81614485565b92915050565b600080604083850312156144c8576144c7613fa9565b5b60006144d68582860161449c565b92505060206144e785828601614141565b9150509250929050565b60006020828403121561450757614506613fa9565b5b6000614515848285016141f6565b91505092915050565b6000806040838503121561453557614534613fa9565b5b600061454385828601614141565b925050602061455485828601614141565b9150509250929050565b61456781614120565b82525050565b6000602082019050614582600083018461455e565b92915050565b61459181614038565b811461459c57600080fd5b50565b6000813590506145ae81614588565b92915050565b600080604083850312156145cb576145ca613fa9565b5b60006145d9858286016141f6565b92505060206145ea8582860161459f565b9150509250929050565b600080fd5b600080fd5b7f4e487b7100000000000000000000000000000000000000000000000000000000600052604160045260246000fd5b614636826140b4565b810181811067ffffffffffffffff82111715614655576146546145fe565b5b80604052505050565b6000614668613f9f565b9050614674828261462d565b919050565b600067ffffffffffffffff821115614694576146936145fe565b5b61469d826140b4565b9050602081019050919050565b82818337600083830152505050565b60006146cc6146c784614679565b61465e565b9050828152602081018484840111156146e8576146e76145f9565b5b6146f38482856146aa565b509392505050565b600082601f8301126147105761470f6145f4565b5b81356147208482602086016146b9565b91505092915050565b6000806000806080858703121561474357614742613fa9565b5b6000614751878288016141f6565b9450506020614762878288016141f6565b935050604061477387828801614141565b925050606085013567ffffffffffffffff81111561479457614793613fae565b5b6147a0878288016146fb565b91505092959194509250565b600067ffffffffffffffff8211156147c7576147c66145fe565b5b6147d0826140b4565b9050602081019050919050565b60006147f06147eb846147ac565b61465e565b90508281526020810184848401111561480c5761480b6145f9565b5b6148178482856146aa565b509392505050565b600082601f830112614834576148336145f4565b5b81356148448482602086016147dd565b91505092915050565b60008060006060848603121561486657614865613fa9565b5b600084013567ffffffffffffffff81111561488457614883613fae565b5b6148908682870161481f565b93505060206148a186828701614141565b92505060406148b286828701614141565b9150509250925092565b600080604083850312156148d3576148d2613fa9565b5b60006148e1858286016141f6565b92505060206148f2858286016141f6565b9150509250929050565b7f4e487b7100000000000000000000000000000000000000000000000000000000600052602260045260246000fd5b6000600282049050600182168061494357607f821691505b602082108103614956576149556148fc565b5b50919050565b7f4552433732313a20617070726f76616c20746f2063757272656e74206f776e6560008201527f7200000000000000000000000000000000000000000000000000000000000000602082015250565b60006149b8602183614079565b91506149c38261495c565b604082019050919050565b600060208201905081810360008301526149e7816149ab565b9050919050565b7f4552433732313a20617070726f76652063616c6c6572206973206e6f7420746f60008201527f6b656e206f776e6572206f7220617070726f76656420666f7220616c6c000000602082015250565b6000614a4a603d83614079565b9150614a55826149ee565b604082019050919050565b60006020820190508181036000830152614a7981614a3d565b9050919050565b7f4e487b7100000000000000000000000000000000000000000000000000000000600052601160045260246000fd5b6000614aba82614120565b9150614ac583614120565b9250828201905080821115614add57614adc614a80565b5b92915050565b6000614aee82614120565b91507fffffffffffffffffffffffffffffffffffffffffffffffffffffffffffffffff8203614b2057614b1f614a80565b5b600182019050919050565b7f4e487b7100000000000000000000000000000000000000000000000000000000600052603260045260246000fd5b7f4552433732313a2063616c6c6572206973206e6f7420746f6b656e206f776e6560008201527f72206f7220617070726f76656400000000000000000000000000000000000000602082015250565b6000614bb6602d83614079565b9150614bc182614b5a565b604082019050919050565b60006020820190508181036000830152614be581614ba9565b9050919050565b7f5375626d6974746564207072696365206e6f7420657175616c20746f204e465460008201527f2070726963652e00000000000000000000000000000000000000000000000000602082015250565b6000614c48602783614079565b9150614c5382614bec565b604082019050919050565b60006020820190508181036000830152614c7781614c3b565b9050919050565b6000614c8982614120565b9150614c9483614120565b9250828203905081811115614cac57614cab614a80565b5b92915050565b7f536f75726365206d75737420626520746865206f7261636c65206f662074686560008201527f2072657175657374000000000000000000000000000000000000000000000000602082015250565b6000614d0e602883614079565b9150614d1982614cb2565b604082019050919050565b60006020820190508181036000830152614d3d81614d01565b9050919050565b7f4552433732313a20696e76616c696420746f6b656e2049440000000000000000600082015250565b6000614d7a601883614079565b9150614d8582614d44565b602082019050919050565b60006020820190508181036000830152614da981614d6d565b9050919050565b7f596f7520617265206e6f74206f776e6572206f662074686973204e4654000000600082015250565b6000614de6601d83614079565b9150614df182614db0565b602082019050919050565b60006020820190508181036000830152614e1581614dd9565b9050919050565b7f4552433732313a2061646472657373207a65726f206973206e6f74206120766160008201527f6c6964206f776e65720000000000000000000000000000000000000000000000602082015250565b6000614e78602983614079565b9150614e8382614e1c565b604082019050919050565b60006020820190508181036000830152614ea781614e6b565b9050919050565b7f4e487b7100000000000000000000000000000000000000000000000000000000600052601260045260246000fd5b6000614ee882614120565b9150614ef383614120565b925082614f0357614f02614eae565b5b828204905092915050565b6000614f1982614120565b9150614f2483614120565b9250828202614f3281614120565b91508282048414831517614f4957614f48614a80565b5b5092915050565b600081905092915050565b6000614f668261406e565b614f708185614f50565b9350614f8081856020860161408a565b80840191505092915050565b6000614f988285614f5b565b9150614fa48284614f5b565b91508190509392505050565b7f4552433732313a207472616e736665722066726f6d20696e636f72726563742060008201527f6f776e6572000000000000000000000000000000000000000000000000000000602082015250565b600061500c602583614079565b915061501782614fb0565b604082019050919050565b6000602082019050818103600083015261503b81614fff565b9050919050565b7f4552433732313a207472616e7366657220746f20746865207a65726f2061646460008201527f7265737300000000000000000000000000000000000000000000000000000000602082015250565b600061509e602483614079565b91506150a982615042565b604082019050919050565b600060208201905081810360008301526150cd81615091565b9050919050565b7f436f756e7465723a2064656372656d656e74206f766572666c6f770000000000600082015250565b600061510a601b83614079565b9150615115826150d4565b602082019050919050565b60006020820190508181036000830152615139816150fd565b9050919050565b7f4552433732313a20617070726f766520746f2063616c6c657200000000000000600082015250565b6000615176601983614079565b915061518182615140565b602082019050919050565b600060208201905081810360008301526151a581615169565b9050919050565b7f4552433732313a207472616e7366657220746f206e6f6e20455243373231526560008201527f63656976657220696d706c656d656e7465720000000000000000000000000000602082015250565b6000615208603283614079565b9150615213826151ac565b604082019050919050565b60006020820190508181036000830152615237816151fb565b9050919050565b7f4552433732313a206d696e7420746f20746865207a65726f2061646472657373600082015250565b6000615274602083614079565b915061527f8261523e565b602082019050919050565b600060208201905081810360008301526152a381615267565b9050919050565b7f4552433732313a20746f6b656e20616c7265616479206d696e74656400000000600082015250565b60006152e0601c83614079565b91506152eb826152aa565b602082019050919050565b6000602082019050818103600083015261530f816152d3565b9050919050565b7f45524337323155524953746f726167653a2055524920736574206f66206e6f6e60008201527f6578697374656e7420746f6b656e000000000000000000000000000000000000602082015250565b6000615372602e83614079565b915061537d82615316565b604082019050919050565b600060208201905081810360008301526153a181615365565b9050919050565b60008190508160005260206000209050919050565b60006020601f8301049050919050565b600082821b905092915050565b60006008830261540a7fffffffffffffffffffffffffffffffffffffffffffffffffffffffffffffffff826153cd565b61541486836153cd565b95508019841693508086168417925050509392505050565b6000819050919050565b600061545161544c61544784614120565b61542c565b614120565b9050919050565b6000819050919050565b61546b83615436565b61547f61547782615458565b8484546153da565b825550505050565b600090565b615494615487565b61549f818484615462565b505050565b5b818110156154c3576154b860008261548c565b6001810190506154a5565b5050565b601f821115615508576154d9816153a8565b6154e2846153bd565b810160208510156154f1578190505b6155056154fd856153bd565b8301826154a4565b50505b505050565b600082821c905092915050565b600061552b6000198460080261550d565b1980831691505092915050565b6000615544838361551a565b9150826002028217905092915050565b61555d8261406e565b67ffffffffffffffff811115615576576155756145fe565b5b615580825461492b565b61558b8282856154c7565b600060209050601f8311600181146155be57600084156155ac578287015190505b6155b68582615538565b86555061561e565b601f1984166155cc866153a8565b60005b828110156155f4578489015182556001820191506020850194506020810190506155cf565b86831015615611578489015161560d601f89168261551a565b8355505b6001600288020188555050505b505050505050565b7f50726963652063616e2774206265207a65726f2e000000000000000000000000600082015250565b600061565c601483614079565b915061566782615626565b602082019050919050565b6000602082019050818103600083015261568b8161564f565b9050919050565b61569b81614286565b82525050565b600060c0820190506156b66000830189615692565b6156c36020830188615692565b6156d06040830187615692565b6156dd606083018661455e565b6156ea608083018561455e565b6156f760a0830184614044565b979650505050505050565b6000819050919050565b600061571782615702565b915061572283615702565b925082820390508181126000841216828213600085121516171561574957615748614a80565b5b92915050565b61575881613fb3565b82525050565b600081519050919050565b600082825260208201905092915050565b60006157858261575e565b61578f8185615769565b935061579f81856020860161408a565b6157a8816140b4565b840191505092915050565b6000610100820190506157c9600083018b6141b5565b6157d6602083018a61455e565b6157e36040830189614408565b6157f060608301886141b5565b6157fd608083018761574f565b61580a60a083018661455e565b61581760c083018561455e565b81810360e0830152615829818461577a565b90509998505050505050505050565b600060808201905061584d60008301876141b5565b61585a60208301866141b5565b615867604083018561455e565b8181036060830152615879818461577a565b905095945050505050565b60008151905061589381613fdf565b92915050565b6000602082840312156158af576158ae613fa9565b5b60006158bd84828501615884565b91505092915050565b60006158d182614120565b91506158dc83614120565b9250826158ec576158eb614eae565b5b828206905092915050565b600061591261590d61590884614183565b61542c565b614183565b9050919050565b6000615924826158f7565b9050919050565b600061593682615919565b9050919050565b60008160601b9050919050565b60006159558261593d565b9050919050565b60006159678261594a565b9050919050565b61597f61597a8261592b565b61595c565b82525050565b6000819050919050565b6159a061599b82614120565b615985565b82525050565b60006159b2828561596e565b6014820191506159c2828461598f565b6020820191508190509392505050565b60006060820190506159e760008301866141b5565b6159f4602083018561455e565b8181036040830152615a06818461577a565b9050949350505050565b600081519050615a1f81614588565b92915050565b600060208284031215615a3b57615a3a613fa9565b5b6000615a4984828501615a10565b91505092915050565b7f756e61626c6520746f207472616e73666572416e6443616c6c20746f206f726160008201527f636c650000000000000000000000000000000000000000000000000000000000602082015250565b6000615aae602383614079565b9150615ab982615a52565b604082019050919050565b60006020820190508181036000830152615add81615aa1565b9050919050565b60008160011c9050919050565b6000808291508390505b6001851115615b3b57808604811115615b1757615b16614a80565b5b6001851615615b265780820291505b8081029050615b3485615ae4565b9450615afb565b94509492505050565b600082615b545760019050615c10565b81615b625760009050615c10565b8160018114615b785760028114615b8257615bb1565b6001915050615c10565b60ff841115615b9457615b93614a80565b5b8360020a915084821115615bab57615baa614a80565b5b50615c10565b5060208310610133831016604e8410600b8410161715615be65782820a905083811115615be157615be0614a80565b5b615c10565b615bf38484846001615af1565b92509050818404811115615c0a57615c09614a80565b5b81810290505b9392505050565b6000615c2282614120565b9150615c2d83614120565b9250615c5a7fffffffffffffffffffffffffffffffffffffffffffffffffffffffffffffffff8484615b44565b90509291505056fe68747470733a2f2f6d696e2d6170692e63727970746f636f6d706172652e636f6d2f646174612f70726963653f6673796d3d455448267473796d733d5553442c4a50592c455552266170695f6b65793d7b613064333165666461636561366137393734646164613262373931613961303865366237366136323563363864373433323861366236643565363639303931387da2646970667358221220d5ab6e4a8c1d313953562554d6c9e5306aeff1d67ddfd8fe48f498428e6dc2f564736f6c63430008110033",
  "linkReferences": {},
  "deployedLinkReferences": {}
}